:020000040800F2
:10000000C013002099020008A5410008753D0008B2
:1000100000000000000000000000000000000000E0
:10002000000000000000000000000000294300085C
:1000300000000000000000003D4200084D430008A1
:10004000AB02000800000000ED420008AB0200080F
:10005000AB020008AB020008AB020008AB020008CC
:1000600000000000651E0008751E0008551E0008EF
:10007000AB020008F1430008AB02000800000000DA
:100080004D4400080000000000000000E1430008AB
:1000900000000000AB020008AB020008AB02000841
:1000A000AB020008AB020008AB020008614D00087B
:1000B000F14D0008000000000000000000000000FA
:1000C00000F002F800F0BDF80CA030C80838241881
:1000D0002D18A246671EAB4654465D46AC4201D180
:1000E00000F0AFF87E460F3E0FCCB64601263342F5
:1000F00000D0FB1AA246AB463343184724520000F7
:1001000044520000103A02D378C878C1FAD8520796
:1001100001D330C830C101D504680C6070470000BD
:100120000023002400250026103A01D378C1FBD813
:10013000520700D330C100D50B60704710B56E294F
:1001400002D100F0C3FC10BD702902D100F04FF9BC
:1001500010BD662902D105F00DF810BD652902D148
:1001600005F008F810BD672902D105F003F810BDAD
:10017000612902D105F006F810BD03681B0A01D3FE
:1001800080231943692902D100F06AFC10BD64295B
:1001900002D100F065FC10BD752902D100F060FCB1
:1001A00010BD6F2902D100F07BFD10BD782902D16E
:1001B00000F00AF910BDE92902D100F017FD10BDC9
:1001C000E42902D100F012FD10BDF52902D100F0A2
:1001D0000DFD10BDEF2902D100F06EFD10BDF82914
:1001E00002D100F0FFF810BD0368DB0901D38023C2
:1001F0001943632902D101F02AF910BD732902D1F4
:1002000001F02DF910BDE32902D101F037F910BD3D
:10021000F32902D101F03AF910BD002010BD1FB53D
:1002200001F094F904000020002104F08DFF401C2F
:1002300060600020002104F071FFE0601FBD10B578
:1002400010BD01F05BF91146FFF7E9FF04F07EFEF7
:1002500001F0F0FC03B4FFF7F2FF03BC01F0F6FC81
:1002600070B505460C46164602E00FCC0FC5103E91
:10027000102EFAD2082E02D303CC03C5083E042E5A
:1002800007D301CC01C5361F03E021782970641C17
:100290006D1C761EF9D270BD07488047074800479D
:1002A000FEE7FEE7FEE7FEE7FEE7FEE70448054956
:1002B000054A064B70470000D1430008C100000802
:1002C000C00D0020C0130020C00F0020C00F002070
:1002D0001CB50C46064B7B4469460090204600F056
:1002E0000EFC04460020694600F01CFC20461CBDA4
:1002F0004B0800000FB41CB5084B06AA7B446946A6
:100300000090059800F0FBFB04460020694600F0D1
:1003100009FC20461CBC08BC04B018472508000096
:1003200070B5044685690068C10601D5302600E035
:100330002026C00707D070BD62683046A16890478C
:10034000206A401C20626D1EF6D570BD70B5044653
:1003500085690078C00707D170BD6268A168202058
:100360009047206A401C20626D1EF6D570BD0000CB
:10037000F8B50F460188090502D5224C7C4402E0FD
:10038000204C7C440E3405460021243508E0160735
:100390001209360FA65D6E541E0732431B09491C15
:1003A00016461E43F3D1224604780023240705D5C0
:1003B000702F06D0002901D00223113200F0F7FA85
:1003C000F8BD01231032F9E770B504460D46214609
:1003D000106800F0BAFA0023024629462046FFF7CB
:1003E000C7FF70BDD21DD308DB000CCBC0E730B413
:1003F000036820241268234303600823C36130BCD0
:100400000023B5E7A04E0000F3B50446002081B0FC
:1004100020622046E1688847002872D0252802D053
:100420006268A168ABE0594F00267F442046E1682E
:1004300088472028054608DB312D06D27819203858
:100440000078002801D00643F0E7B00701D504206A
:1004500086430020E0610746A0612A2D0AD0284685
:1004600004F06CFD002827D0B8000019303D009042
:10047000856119E00298BA00121902C891610290D0
:100480002046E1688847012F054617D1E06900281A
:100490001FDA202086431CE000980A218069484327
:1004A00000994019303888612046E1688847054640
:1004B00004F044FD0028EFD1012F0AD02E2D08D1E1
:1004C0002046E16888470546202006437F1C022F0E
:1004D000C3DBA069002803DA4042A0610120064383
:1004E000F00701D0102086436C2D0BD0682D09D069
:1004F0004C2D3CD06A2D38D0742D38D07A2D36D082
:1005000016E040E0E1682F4620468847B84205469D
:1005100009D16C2F29D001208002E16806432046D2
:100520008847054604E06C2F1DD0FF2001300643AC
:10053000002D28D028464138192803D80120C002B0
:1005400006432035204626602946029A1646FFF7C4
:10055000F5FD002810D001280BD0F61DF008C000D2
:100560000830029055E74020E1E78020D5E70020E1
:10057000D3E7361D02964CE762682846A16890478B
:10058000206A401C44E7206AFEBD00001A4E0000AD
:1005900030B5441C03E00178401C00290DD08107D0
:1005A000F9D10B4BDD0104C8D11A91432940FAD08F
:1005B000001B0A0603D0C01E30BD001B30BD0A045C
:1005C00001D0801E30BD0902FCD0401E30BD0000AD
:1005D000010101010346F0B50B439B072DD1244DCA
:1005E000EF01042A29D308C810C95E1B9E43121FBD
:1005F0003E4017D0D8B2E1B2401A3106014310D1C3
:1006000098B2A1B2401A310401430AD11802210262
:10061000000A090A401A3102014302D1180E210EC4
:10062000401AF0BDA342DCD018BA21BA884201D9E1
:100630000120F0BD0020C043F0BD002A01D1002000
:10064000F0BD03780C78401C491C002B0DD0A34250
:100650000BD1521E09D003780C78401C491C002B8A
:1006600003D0A34201D1521EEBD1181BF0BD0000F4
:1006700001010101421E5378521C002BFBD10B7863
:10068000491C1370521C002BF9D17047F8B5042A8D
:100690002CD3830712D00B78491C0370401C521EC8
:1006A00083070BD00B78491C0370401C521E830734
:1006B00004D00B78491C0370401C521E8B079B0F03
:1006C00005D0C91ADF002023DE1B08C90AE0FFF7A6
:1006D000C7FDF8BD1D4608C9FD401C46B4402C436B
:1006E00010C0121F042AF5D2F308C91A521EF0D402
:1006F0000B78491C0370401C521EEAD40B78491C2D
:100700000370401C012AE4D409780170F8BD01E0AF
:1007100004C0091F0429FBD28B0701D50280801C6D
:10072000C90700D00270704700290BD0C30702D060
:100730000270401C491E022904D3830702D502809F
:10074000801C891EE3E70022EEE70022DFE70000BD
:10075000024670B50A4392072AD11E4DEE0104C825
:1007600008C9541B9443344017D0D0B2D9B2401AB0
:100770002106014310D190B299B2401A21040143DD
:100780000AD110021902000A090A401A2102014383
:1007900002D1100E190E401A70BD9A42DFD010BA65
:1007A00019BA884201D9012070BD0020C04370BD34
:1007B00002780B78401C491C002A09D09A4207D1C4
:1007C00002780B78401C491C002A01D09A42EFD0D5
:1007D000D01A70BD01010101002203098B422CD304
:1007E000030A8B4211D300239C464EE003460B4381
:1007F0003CD4002243088B4231D303098B421CD3E3
:10080000030A8B4201D394463FE0C3098B4201D3D4
:10081000CB01C01A524183098B4201D38B01C01A0C
:10082000524143098B4201D34B01C01A5241030983
:100830008B4201D30B01C01A5241C3088B4201D332
:10084000CB00C01A524183088B4201D38B00C01ADF
:10085000524143088B4201D34B00C01A5241411A06
:1008600000D201465241104670475DE0CA0F00D0E9
:100870004942031000D34042534000229C460309E2
:100880008B422DD3030A8B4212D3FC22890112BA68
:10089000030A8B420CD3890192118B4208D3890140
:1008A00092118B4204D389013AD0921100E0890958
:1008B000C3098B4201D3CB01C01A524183098B4239
:1008C00001D38B01C01A524143098B4201D34B0122
:1008D000C01A524103098B4201D30B01C01A524185
:1008E000C3088B4201D3CB00C01A524183088B420C
:1008F00001D38B00C01A5241D9D243088B4201D395
:100900004B00C01A5241411A00D20146634652417F
:100910005B10104601D34042002B00D5494270477E
:1009200063465B1000D3404201B50020C046C0467C
:1009300002BD70477047704709684A0501D540B24B
:100940007047C905FCD500B2704709684A0501D552
:10095000C0B27047C905FCD580B2704770B50C466F
:100960000546012A05D02878800600D5EA690023CB
:1009700002E0012305E05B1C934202D2E05C002808
:10098000F9D1A869E618C01AA861286AC0182862B7
:100990002846FFF7C5FC04E06A682078A968641C53
:1009A0009047B442F8D32846FFF7D0FC70BDFFB59E
:1009B00004460D4681B0243000902168880604D595
:1009C0001022E0699143216000E00120A84201DD8E
:1009D000471B00E000270498A1697A191018081A2B
:1009E000A0612078C00602D42046FFF799FC0026BB
:1009F00008E003986268A168805D9047206A401C07
:100A0000761C206204988642F3DB2078C0060AD563
:100A10002046FFF785FC06E06268A1683020904719
:100A2000206A401C206238467F1E0028F4DC07E064
:100A300000986268A168405D9047206A401C20626F
:100A400028466D1E0028F3DC2046FFF77FFC207847
:100A5000000602D5022005B0F0BD0120FBE7000032
:100A6000F7B5002575291068009914A611D0FFF775
:100A700063FF002802DA404211A608E000990968E5
:100A80008A0701D50FA602E0490704D50EA6012565
:100A900001E0FFF75AFF009F0024243704E000F034
:100AA00019FD30313955641C0028F8D12B463246E7
:100AB00021460098FFF77BFFFEBD0000000000000C
:100AC0002D0000002B0000002000000011680268CB
:100AD000006A530501D5087009E0D30501D50880E7
:100AE00005E0130602D5C21705C100E00860012029
:100AF0007047000001694A1C02610878704700B520
:100B00008FB0029100210591054901937944039129
:100B1000114604906846FFF777FC0FB000BD000057
:100B2000E5FFFFFF0A681070521C0A607047000062
:100B3000F7B50446154686B02B487844002703C80D
:100B40003E460090019111E007986A467100415AB3
:100B500002A800F09FFC411C07D02178890603D52C
:100B6000E269391891420ED83F18761C2078800629
:100B700002D5E069B84206DDAE42E5DB07987100B8
:100B8000405A0028E0D1A069C01BA0612046FFF7B1
:100B9000C7FB154878445A3803C8009000200191DB
:100BA00016E041006A460798415A02A800F072FC1C
:100BB0000590401C0AD0002505E0626802A8A168E3
:100BC000405D90476D1C05988542F6D30498401C03
:100BD000B0420490E5DB206AC01920622046FFF78E
:100BE000B5FB09B0F0BD00001E470000F7B5D21DEF
:100BF0000025D20815A6D200F52905CA11D0002A71
:100C000005DA00214042914111A60A4608E0009908
:100C100009688B0701D50FA602E0490701D50EA68A
:100C200001251146009F0024243704E000F04EF80F
:100C300030323A55641C02460A43F7D12B463246FD
:100C400021460098FFF7B3FEFEBD00000000000043
:100C50002D0000002B0000002000000070B50446AD
:100C60000021243408E05507D2086D0F3035655453
:100C70005D072A43DB08491C15461D43F3D1046870
:100C8000002310A2250708D5A40601D4002904D00A
:100C9000C46901230CA2641EC461FFF788FE70BD05
:100CA00010B5044621461068FFF74FFE00230246A8
:100CB0002046FFF7D3FF10BDD21DD108C9000CC9D3
:100CC000CCE7000000000000300000000B4670B5CB
:100CD000024689078008084319469D08141AA9414D
:100CE00025090807054308092C194841250A01066A
:100CF0000D43010A2C194141200C0D0428430D0C11
:100D000000194D41002140194D41C00869070843B1
:100D1000E908840F8D002543840024184D412419CF
:100D20006D41121BAB4107E00925ED432C1152190F
:100D300063410024401C61411C460A250026551BC6
:100D4000B441F1D270BD00007047FFB50C461E469D
:100D50008FB003CA089009914F007D0D00D16D1E20
:100D6000002108460020C0460321099A8905084051
:100D7000002A03DA8200801840080840800D01280C
:100D80000A9002DD0020C0430A90089807430DD066
:100D9000F048F149281848430714189800281DD036
:100DA0007542291E1DDD0A9842421BE01898012851
:100DB00002D00020302104E00020F24305E021545D
:100DC000401CB042FBDB30460022189B002121541E
:100DD0000F998B600A60486013B0F0BDBD1B6D1C9D
:100DE000DFE70A9A002900DA69420BA800F0F6FB57
:100DF0000BAB07CB03AB07C30899099800F05AFC6B
:100E00006B4607C30146D5480918002D00910BDD3C
:100E1000D24903980A9A49424018002303A9039033
:100E2000684600F0B7FE08E003990A9A0023081804
:100E300003A90390684600F057FE6B4607C3000401
:100E4000000C03D00020C043410800E01046189A6F
:100E5000002A03D00022009215461EE0751E05D41C
:100E6000FFF734FF303262556D1EF9D50122084379
:100E7000079602D000227F1C04E02078302801D1A0
:100E800000227F1E002A069787D01EE0112D07DA68
:100E9000FFF71CFF303262556D1C02460A43F5D144
:100EA000084303D00098002819D00EE00021681EE6
:100EB00005E0235C625C63542254401E491C81425D
:100EC000F7DBA81B401E07950690079A189900208B
:100ED000A0540F98079B069A81600CC07CE71126EE
:100EE0000020189059E7D21DF0B50D460446D108F0
:100EF00093B0C90003C90C900D9103F0E7FF0246BF
:100F00000D98C00F01D02D2007E02068810701D582
:100F10002B2002E04007C00F4001032A0F9001D0B0
:100F2000072A05DB03462946204600F013FB0EE1A5
:100F30002078800601D5E76900E006272846652D60
:100F400004D0662814D0672D69D12DE00020112F20
:100F5000009001DB112300E07B1C0CAA03A910A860
:100F6000FFF7F3FE1199002610987D1C0E9142E0C8
:100F700001203B460CAAC0070B900120009003A95A
:100F800010A8FFF7E2FE119D129810990026002884
:100F90000E9501D1781C0D18781B02D446427D1C99
:100FA000761EE81B00903AE0012F00DA01270020AE
:100FB000112F009001DD112300E03B460CAA03A98C
:100FC00010A8FFF7C2FE11993D46109800260E9119
:100FD000217809070BD40E99A94200DA0D4603A91E
:100FE000012D04DD4A19203AD27F302A06D0B842BA
:100FF00001DA011D04DA012100910FE06D1EEFE717
:10100000002802DC86192D1A03E0411CA94200DDEC
:101010000D46801B401C00900120C0070B902078DB
:10102000000705D40098A84202DB0020C0430090CE
:1010300069460020C8720B98012102AF0337C90727
:10104000884225D0022010902B2011900B98002868
:101050000BDA40420B902D20119006E00B9800F027
:1010600039FA30317F1E0B9039701099481E0029D3
:101070001090F3DC0B980028F0D111987F1E387087
:101080002088000501D5452000E065207F1E3870CE
:1010900001A8C01BC01D0B900F98002800D0012094
:1010A00041190098C01709180B980818A169081A67
:1010B000401EA0612078C00602D42046FFF730F918
:1010C0000F98002805D06268A1689047206A401CEC
:1010D00020622078C00625D52046FFF721F921E0BF
:1010E000002E07DB0E98B04204DD03A86268805D25
:1010F000A16802E06268A16830209047206A761CEF
:10110000401C20620098401E002800900AD100F088
:101110001DFAC06862680168405CA1689047206A57
:10112000401C206228466D1E0028D9DC07E062685A
:101130003878A1687F1C9047206A401C20620B9978
:10114000481E00290B90F2DC2046FFF7FFF8032031
:1011500042E6000001FCFFFF104D0000E1DFFFFF51
:10116000D21DF0B504460D46D0088DB0C0004668CB
:1011700007683146384603F0A9FE0246F00F01D059
:101180002D2307E02068810701D52B2302E04007CB
:10119000C00F43016846002B037001D0012000E01E
:1011A0000020032A0A9001D0072A04DB29462046A2
:1011B00000F0D0F92DE12078800601D40D2500E063
:1011C000E5697000400D0D2D01904BDA300D0021C6
:1011D0000B9008460020C046032189050840002ED8
:1011E00005DA82008018C20F1018401008408015E0
:1011F000012801DD0020C043A9000023182906D3DF
:101200009C460A460123183A1B07D34003E00122FB
:101210001205CA4094460C31202902D33A4620399F
:1012200000E032468A40002802DD002A06D119E09B
:10123000002817D10121C9078A4213D319466346F2
:101240007F185E41002806D10120C007824202D1EA
:10125000084687439E430B98310D814202D0019886
:10126000401C01902088000502D57149794402E0B4
:101270006F49794419396B460A9830221A540A98F2
:101280000A7C401C1A54401C0A900198002801DC7A
:10129000302000E031201872019A0120002A02D08B
:1012A000644BD21804E072003A4302D0614A521CE7
:1012B0000192002D02DC2278120703D56A462E2007
:1012C000507202200022864694460CE0320336011A
:1012D000120F6D1E8B5C02AA13546246521C401CF6
:1012E0009446052A01DA002DF0DC002202AE08E067
:1012F0003B0F3F01CB5C521C6D1E3354401C082A2F
:1013000001DA002DF4DC23689A0601D511E0401EB5
:10131000704504DD3218203AD27F302AF7D00028F9
:1013200007DD3218203AD27F2E2A02D11A0700D4C4
:10133000401E002D03DD3E223254401C6D1E497CB0
:1013400031540199401C002906DA2D21471C3154E3
:1013500001984042019003E02B21471C3154019831
:101360007D21C900884206DBFFF740FA3030F05596
:101370007F1C019101E0642808DB01986421FFF7DC
:1013800035FA3030F0557F1C019101E00A2806DB68
:1013900001980A21FFF72AFA3030F0557F1C019896
:1013A0000A21FFF723FA3031F1550A98A1697F1C11
:1013B0007A191018081AA0612078C00602D42046B5
:1013C000FEF7AEFF216A6E460A980818206204E014
:1013D00062683078A168761C90470A98401E0A908F
:1013E000401CF5D12078C00602D52046FEF798FFB4
:1013F00002AE09E03078761C3E280DD06268A16804
:101400009047206A401C20627F1EF3D22046FEF7E0
:101410009DFF0DB00320F0BD206A4019206203E05B
:101420006268A168302090476D1EEDD3F8E7000098
:101430000740000001FCFFFF10B54369002B02D0FC
:10144000C046C04601E0FFF789FA012010BD1278BE
:10145000014624310A7000224A700122ECE711682B
:101460000022D243E8E710B54369002B02D0C04602
:10147000C04601E0FFF75CFB012010BD1288014669
:10148000243182840022C2840122ECE71168002208
:10149000D243E8E770B516460C46054600F04EF814
:1014A0000368FF200230C05C012807D0FF2C0ED853
:1014B000185D00280BD001202C7070BDFF33324620
:1014C000214608331868C3182846984770BD002085
:1014D000C04370BD01468008081A02091018020AAC
:1014E0001018020C1018C008820012185200891A35
:1014F00001E0401C0A390A29FBD27047754600F00A
:10150000A1FBAE46050069465346C008C0008546AB
:1015100018B020B5FEF7CAFE60BC00274908B646E1
:101520000026C0C5C0C5C0C5C0C5C0C5C0C5C0C5F2
:10153000C0C5403D49008D467047000010B500F021
:1015400005F8001D10BD00BF013C000000487047B9
:10155000800D0020F8B51F46044601230068DB0219
:10156000032601461840072A05DB002801D017A5ED
:1015700006E017A504E0002801D016A500E016A596
:10158000102081432160A069C01E002FA06101D0FE
:10159000401EA0612046FEF7C3FE002F09D038464A
:1015A0006268A1689047206A401C2062C01C2062CB
:1015B00006E0206AFAE762682878A1686D1C904707
:1015C000761EF8D22046FEF7C1FEF8BD4E414E0011
:1015D0006E616E00494E4600696E6600F7B51646AC
:1015E0008AB0334878446C4603467C33C06F5A68EF
:1015F0009B680DC42E487844763003AC0DC80DC4EA
:101600003720C001081837211B30FFF7EFF80546D7
:101610000C46803D1B3C02D56442012000E00020C6
:101620000027099010E0E0070CD00C2020497843F7
:10163000794432464C3941186846012300F054FA87
:101640006B4607C364107F1C002CECD1184F7F44FD
:101650002E3F16E0E80712D02001C0190EC80691EF
:10166000089307920068F04201D198190890324619
:10167000012306A903A800F037FA03AB07C36D10D6
:10168000641C002DE6D10998002806D03246694630
:10169000012303A800F07EFA05E0012332466946E3
:1016A00003A800F021FA0A9B07C30DB0F0BD0000AB
:1016B000A43C0000034640000A4610B5400D0BD084
:1016C0000121C9070F24A40200191C036408214347
:1016D000540D2143D20207E000210120F2E7D40F8C
:1016E000490021435200401E0029F8DADB0FDB07D6
:1016F000184310BDFFB50D46144685B048685168C3
:1017000003F0BEFB00910190A868A16803F0B8FB4C
:1017100002910390A868616803F0B2FB029A121864
:101720008242029201D2012000E00020019A0B18AF
:10173000D2180028019202D08A4202D903E08A42DC
:1017400001D2012000E0002000990818009068688C
:10175000A16803F095FB029A12188242029201D20C
:10176000012000E00020019A0B18D21800280192F5
:1017700002D08A4202D903E08A4201D2012000E06D
:10178000002000990818009028682168400049004E
:10179000400849084018FA49471814E001994000E8
:1017A000C90F08430090019802994000C90F0843EF
:1017B0000190029803994000C90F084302900398D2
:1017C00040007F1E039000980028E7DA0898002860
:1017D00001D0EC4E00E00026B74201DA012000E023
:1017E0000020002804902AD0F71BF806C00E15D060
:1017F000029B2021091A039A8B401A430392029AF2
:10180000019BC2408B401A430292019A009BC24046
:101810008B4000991A430192C14000917B110DD079
:101820006F460320C11A03D500218200B95003E09E
:101830008A008100BA587A50401EF3D53746039883
:101840000299002800D00120014308980291002845
:1018500008460CD0002800D001200199019A4905C2
:1018600008430121D20AC902D202019200E00121FB
:101870000E9B0122D207012B02D0002B03D013E0D4
:10188000002807D120E0904204D890420CD1019B5F
:101890000B4209D0019B5918019105D10099491CAF
:1018A000009101D17F1C009200280DD01021084624
:1018B0000020C0460498002806D00F98002803D0C6
:1018C000082108460020C04628682168019B009A2C
:1018D0004840C10F0598C90739430EC009B0F0BD93
:1018E000FFB587B0099A08980899536892684068CC
:1018F000896896460022039317469446089A126810
:101900005300099A5B081268520052089A1A9E4BBB
:10191000D4180A9A002A01D0352200E0402206920B
:101920000022012315460492DB07059324E0002DD5
:1019300005D175460346039E4D1BB34109D3754639
:101940006646039B491B049D9841059B7519AC464F
:101950005F4163463B4308D0059B049EDD07760844
:101960002E435B080496059301E0521E641EC50FCA
:10197000ED0749184041521C069B9A42D7DB002DC7
:1019800004D17546039A6B1A824101D203200CE000
:10199000039A0B466B404240134303D0014303D0EC
:1019A000012002E0022000E00020614601910021B8
:1019B000009702910A99002905D06146400201432F
:1019C000704B019102E08007002302909C4201DAF3
:1019D000012000E0002007003AD01A1BD006C00EFC
:1019E00015D0029D2021019C091AC5408C40254339
:1019F000029C8C4000D001242543019C0295009D4F
:101A0000C4408D4000992C430194C1400091541171
:101A10001DD06D460221002202290CD10320001B9B
:101A200007E0002804DB8600AE59002E00D001221A
:101A3000401C0328F5DB081B02D588002A5004E06F
:101A40008000285810438A00A850491EE3D51C4640
:101A50000A98002802980CD0002800D00120019993
:101A6000019A490508430121D20AC902D202019212
:101A700000E00121109B0122D207012B02D0002B94
:101A800003D013E0002807D11FE0904204D8904211
:101A90000CD1019B0B4209D0019B5918019105D132
:101AA0000099491C009101D1641C009200280CD0BF
:101AB000102108460020C046002F06D011980028AB
:101AC00003D0082108460020C04608980999019AC9
:101AD000009B006809684840C10F0798C907214367
:101AE00082600AC00BB0F0BD00B585B001930092D2
:101AF0000A460146002302A8FFF7FCFD02A807C81A
:101B000005B000BDFFB50A461F4685B00799019391
:101B100001230091014602A8FFF7ECFD029903980A
:101B2000049ECA0F4900D20700920F224908920270
:101B30008C1A0021002800DB0C46450013486D0874
:101B4000844214D3079A002A04DA441E0026104D5A
:101B5000F64302E004460D460E46102108460020DA
:101B6000C046002F03D0042108460020C0462005AF
:101B7000E90A0843009908436905F20A1143ADE6F2
:101B800002C0FFFF013C0000FF3F0000FF07000014
:101B9000FFFFFF7F00B585B0019300920A46014622
:101BA000002302A8FFF79CFE02A807C8A8E7FFB51C
:101BB0000A461F4685B0079901930123009101460B
:101BC00002A8FFF78DFE02990398049ECA0F4900F0
:101BD000D20700920F22490892028C1A0021002895
:101BE00000DB0C46450011486D08844214D3079A67
:101BF000002A04DA441E00260D4DF64302E0044696
:101C00000D460E46102108460020C046002F03D086
:101C1000042108460020C0462005E90A084300992F
:101C200008436905F20A114358E60000FF07000067
:101C3000FFFFFF7F10B50446C046C0462046FEF7B2
:101C400009FB10BD00487047600D002001491820B5
:101C5000ABBEFEE7260002007047000010B5054A43
:101C60004100515A044A80001058002200F0D0FB75
:101C700010BD0000945100080000002010B5054A76
:101C80004100515A044A80001058012200F0C0FB64
:101C900010BD0000945100080000002010B5054A56
:101CA0004100515A044A80001058012200F0B0FB54
:101CB00010BD0000945100080000002010B5054A36
:101CC0004100515A044A80001058002200F0A0FB45
:101CD00010BD0000945100080000002010B5044A17
:101CE0004100515A034A8000105800F089FB10BD92
:101CF000945100080000002070B50C46054602E033
:101D0000012000F0BDFA084800F0C2F90228F7D01F
:101D10000648C1694906FCD50348224629465C307D
:101D200001F0D0FF70BD0000740C002000440040A2
:101D3000421A884201D310467047501E7047000077
:101D400070B504460B4800230B4D0FE0227850403D
:101D50000022641CC60702D04008684000E040082A
:101D6000521CD2B2082AF5D35B1CDBB28B42EDD3F6
:101D700070BD0000FFFF000001A0000010B5FF21B2
:101D80005F310448FEF7DFFC034800218180417089
:101D900010BD0000B60600206000002010B5FF2135
:101DA0005F310448FEF7CFFC0348002141800170F9
:101DB00010BD0000FA0300206000002010B5174895
:101DC000007801281AD116A11648FEF7C1FC002898
:101DD00015D015A11348FEF7BBFC002811D0022234
:101DE00013A11048FEF7F6FB00280ED011480D4A4B
:101DF000018811A003F02AF9FFF7D0FF10BD08A059
:101E000000E010A003F022F9F6E7064910A003F065
:101E10001DF904490EA003F04BF9EDE76000002026
:101E200062756700FA0300207265626F6F740000CC
:101E30007532000062000020526563312825642954
:101E40003A257300207265626F6F7420436D6400E1
:101E50002573000010B5024800F01EF910BD000007
:101E6000180C002010B5024800F016F910BD000053
:101E7000740C002010B5034800F00EF9024800F081
:101E80000BF910BDBC0B0020600B002010B5044600
:101E9000006C094980088000401860642078142193
:101EA0000838FEF799FC04498031A164C106C90EC7
:101EB00001208840E06410BD000802400179084B11
:101EC0008906890E8A00D2180265054A4432491EE5
:101ED00042658A07920F0121914081657047000099
:101EE000FC080240F0B5846CC56C6560046D002C84
:101EF00002D0446D856D65600B4C6568066C1C27CF
:101F00003E400127B7403D436560046863608368D5
:101F1000102B036803D099600068C260F0BD9A601E
:101F20000068C160F0BD00000000024070B50D46C1
:101F30000646002464210B48FEF705FC1E2D09D936
:101F40001E256000074920184018325D06A1FEF7E3
:101F5000D1F9641CAC42F4D3024905A003F076F831
:101F600070BD0000AB00002025303258200000007A
:101F700025730000704700000148006870470000AA
:101F8000540000200449034809680089496A000494
:101F900008187047540000206C010020F0B500289C
:101FA00008D0014620314A79022A05D00422C263B2
:101FB000002008710120F0BD026813680E24A343BD
:101FC0001360426C1468FF2301339C431460026861
:101FD00014686408640014600C4A5568066C1C247C
:101FE000264001242746B7403D435560826CC56CAE
:101FF0005560026D002A05D015689D431560826DFD
:10200000406D42604C7100200871F0BD000002403C
:10201000F8B50024024620325179022903D0042168
:10202000C16301242DE001680B680E25AB430B60F2
:1020300001680B685B085B000B60416C0B68FF2557
:102040000135AB430B6010494D68066C1C231E40E4
:1020500001231F46B7403D434D60816CC56C4D6008
:10206000016D002906D00E681D02AE430E60416D61
:10207000856D4D60537100211171816B002900D075
:1020800088472046F8BD000000000240C06B704742
:102090002030407970470000F0B42C490C68026889
:1020A0001368056C1C273D400426AE40264211D023
:1020B0005E070FD513689B0603D4146804239C4362
:1020C00014604B68046C04223C40A24013434B60F4
:1020D000016B1CE00227AF40064627402036002F48
:1020E00019D09F0717D513689B0605D413680A24D7
:1020F000A3431360012272714B68046C1C221440CC
:102100000222A24013434B6000213171C16A0029B1
:102110001AD0F0BC08470827AF40274214D01B074D
:1021200012D513680E24A34313604B68046C1C2261
:10213000144001221546A5402B434B60C2637271C7
:1021400000213171416BE2E7F0BC704700000240B2
:1021500070B504003FD02548256814212818FEF7E3
:102160003BFB8000206402202646203670712868E0
:102170001F4908402860E168A06862690843216936
:1021800011430843A1690843E1690843216A0843F0
:1021900021680A68104308602046FFF777FE012196
:1021A000A06889030025884200D165602079616CB0
:1021B0008006800E0860A06CE16C41606068401E83
:1021C00003280AD82046FFF779FE206D0560606D70
:1021D000A16D416004E0012070BD25656565A565C0
:1021E000E563012070713571002070BDF8FFFDBFFF
:1021F0000F80FFFFF8B504468C462030017900259A
:1022000001290BD00126067141790027012907D049
:102210008021E163077101252846F8BD0220F8BD41
:1022200002214171E76320680168490849000160A3
:1022300061462046FFF756FE206B002820680168A3
:1022400001D00E2205E0042291430160206801685C
:102250000A2211430160606C0168CA03074902D574
:1022600002680A430260206D002802D002680A4317
:1022700002602068016831430160CDE70001000081
:1022800070B5044600F0CAF80546601C02D0044848
:102290000078241800F0C2F8401BA042FAD370BDA9
:1022A00068000020FCB5002301259AE022462C4658
:1022B0009C4022406FD04E68012E05D0022E03D0E4
:1022C000112E01D0122E16D186680327B4465E0067
:1022D000B646B7406646BE43B446CF687646B7407A
:1022E0006646374387604668A6430C79E406E40FE8
:1022F0009C4034434460C6685F000324BC40A4464D
:10230000A6438C68BC403443C4604C68022C01D0A6
:10231000122C14D1DC08A40024180194266A5C074E
:10232000B646E60E0F24B44000967646A643B6465F
:102330000C69009EB44076462643019C26620468E0
:102340006646B4430E79B607B60FBE402643066014
:102350004C68E40044D59E08254CB6003419A446C8
:10236000246E9E07F60E0F27B740BC4305273F0794
:10237000B84201D1002710E01E4FB84201D1012719
:102380000BE01D4FB84201D1022706E01B4FB842B7
:1023900002D1032701E023E00527B7402743644625
:1023A0002766134E803634684F689443FF0300D588
:1023B0001443346074684F689443BF0300D51443DA
:1023C00074600B4C26684F689643FF0200D5164395
:1023D000266066684F689643BF0200D51643666064
:1023E0005B1C0A681446DA4000D05FE7FCBD0000C1
:1023F000001802400004005000080050000C00507B
:10240000426913460B401B0491430B4383617047A1
:10241000002A01D08161704781627047014880685D
:10242000704700006800002070B504000FD02168DC
:102430001348086021681348086003CC4160206895
:10244000083C21688860FFF7E9FF054608E00120A5
:1024500070BDFFF7E3FF401B302801D9032070BD9A
:102460002068C0680028F4D120680269E1688A42C7
:1024700001D0016101E004490160002070BD00004D
:10248000CCCC000055550000AAAA00000068024903
:102490000160002070470000AAAA0000024881687D
:1024A00002788918816070476800002010B50848DC
:1024B00000240168821511430160204600F00AF8EB
:1024C000002801D0012401E000F028F8204610BDCA
:1024D0000020024070B50F4E0024317805460029D7
:1024E00015D07D20C000FEF777F901460A48006844
:1024F000FEF772F900F03CFE002808D1042D06D248
:1025000000222946401E00F031F8756000E00124E9
:10251000204670BD680000207400002008B50C48FB
:1025200001680122114301600068104000900848D2
:102530004038C26B01040A43C263C06B084000907C
:10254000082000F00DFE102000F00AFE08BD00007B
:1025500040100240002805DBC106C90E012088405A
:10256000014908607047000000E100E010B502F08A
:10257000C3FC10BD10B50F4C2168032252029143D9
:1025800001432160C11FFF39FA390ED10A480621E3
:10259000006848430949FEF71FF9401C02E0002883
:1025A00005D0401E61694905F9D4002010BD032003
:1025B00010BD0000007000407400002040420F0079
:1025C000F8B50446006800264D4D800358D54C48A8
:1025D00000274038C06BC00009D449484038C26B5E
:1025E00001040A43C263C06B0840012700904548BC
:1025F0000168821511430160FFF710FF009005E0AC
:10260000FFF70CFF0099401A022825D83D480068C2
:10261000C005F5D5E8690321090208400FD06169BA
:1026200081420CD0E86903210902EA69884301214B
:1026300009040A43EA61EA698A43EA61E861C0077A
:102640000FD0FFF7EBFE009008E0FFF7E7FE0099E0
:10265000411A2D48814201D9032609E0E869800723
:10266000F3D5E86903210902884361690843E861F9
:10267000002F05D022484038C26B01048A43C26350
:102680002078C00705D06869616880088000084329
:1026900068612078800606D56869032109038843AC
:1026A000A168084368612088400411D568692169E0
:1026B00080008008084368610121206989078842F9
:1026C00006D10F484038C168012212041143C1608D
:1026D0002088000512D56869032189038843E168D1
:1026E000084368610121E0688903884206D10448F3
:1026F0004038C168012212041143C1603046F8BD60
:10270000401002400070004088130000F8B50F46EA
:10271000060043D04D4D28684007400FB84213D201
:102720002868C008C00038432860FFF777FE0446D9
:1027300005E0FFF773FE011B4548814261D8286818
:102740004007400FB842F4D13068424C81070DD5A4
:10275000400704D5A068072109030843A060A068CA
:102760000F2109028843B1680843A0603078C00790
:1027700032D0706801280AD002280BD000280FD070
:102780003449403103280ED0C969890704E0216823
:10279000890301E021688901002906DB0120F8BDD9
:1027A00021684905F8E7096AEFE7A168C908C90087
:1027B0000143A160FFF732FE009006E0FFF72EFE16
:1027C0000099411A224881421BD8A068382108404C
:1027D0007168C9008842F1D128684007400FB842AB
:1027E00017D91A480168C908C90039430160FFF7C1
:1027F00015FE054607E0FFF711FE411B1448814214
:1028000001D90320F8BD114800684007400FB842C5
:10281000F1D13078400706D5A06807210903884325
:10282000F1680843A06000F031F8A1683C228909F2
:102830001140094A515CC906C90EC84007490860E1
:1028400007480068FFF746FEF8BD00000020024080
:102850008813000000100240C051000874000020DE
:102860006C0000200648074900688968064A490448
:10287000490F8900515CC906C90EC8407047000065
:1028800074000020001002400052000810B5204CD7
:10289000A068204A8006400F16D0A0688006410F2D
:1028A000501001290FD0A1688906490F022912D0C2
:1028B000A0688006400F042823D0A0688006400F3F
:1028C000032821D0002010BD206801218004400F82
:1028D0008140104612E0E1688B07E1689B0F4906D2
:1028E000490F491C032B00D01046FDF775FFE16826
:1028F0004904490E4843E168490F491CFDF76CFF44
:1029000010BD0120C00310BD7D20000210BD0000DD
:10291000001002400024F400F8B504007ED02078B6
:102920003827C007EB4D002846D0A868E968384032
:102930008907890F102802D008280BD001E003294D
:1029400008D001206268000482420AD1296801434C
:10295000296015E0286880032ED560680028DDD046
:102960002AE0052301211B0489049A422A6802D126
:102970000A432A60EAE782432A602868884328607D
:10298000606800280CD0FFF749FD064604E0FFF719
:1029900045FD801B642873D828688003F7D50BE0B9
:1029A000FFF73CFD064604E0FFF738FD801B642876
:1029B000F1D828688003F7D42078800769D5A86803
:1029C000E96838408A070721920FC902102802D00F
:1029D000002813D001E0022A10D0E068002846D079
:1029E000286888432169084328602868FF2101314D
:1029F00008432860FFF712FD06462CE02A685205BE
:102A000002D5E268002A89D06A687F231B029A43B4
:102A100063691B021A436A60002800E08DE00ED152
:102A200028688843216908432860286801218004B8
:102A3000400F8140A848FDF7CFFEA8490860A8488C
:102A40000068FFF747FD002877D122E0FFF7E6FC9A
:102A5000801B02289FD828684005F7D568687F2129
:102A600009028843616909020843686011E0296826
:102A7000FF20013081432960FFF7D0FC064605E0C6
:102A800098E0FFF7CBFC801B022884D8286840051B
:102A9000F7D42078934E00072ED5A8688006400F03
:102AA00003280AD0A0690028306A16D00121084303
:102AB0003062FFF7B3FC07460BE0306A80071BD596
:102AC000A06900289FD017E0FFF7A8FCC01B0228D0
:102AD00070D8306A8007F7D50EE0400840003062B9
:102AE000FFF79CFC074604E0FFF798FCC01B022898
:102AF00060D8306A8007F7D4207840076CD5A86882
:102B000000278006400F042818D0E86BC00008D4C6
:102B1000E96B012000070143E963E96B01400127EC
:102B2000009171480168C90519D4016882151143E3
:102B30000160FFF773FC00900DE083E0F06980070F
:102B40004AD5A06800287DD046E0FFF767FC0099D1
:102B5000401A02282ED864480068C005F5D5A1683F
:102B6000012910D004200529F16911D04908490034
:102B7000F161F1698143F161A068002816D0FFF787
:102B80004DFC00900EE0F06901210843F061F3E78D
:102B90000143F161F7E7FFF741FC0099411A5348FF
:102BA00081426DD8F0698007F5D50EE0FFF736FC5D
:102BB000009007E064E0FFF731FC0099411A4B48B0
:102BC00081425DD8F0698007F5D4002F04D0E96B0D
:102BD000012000078143E963E069002877D0A968F4
:102BE0008906490F022951D0012636060228286895
:102BF0000DD0B0432860E86880088000E860E8688D
:102C00003B490840E860FFF709FC04463AE0B0435E
:102C10002860FFF703FC074604E0FFF7FFFBC01B3B
:102C200002282DD828688001F7D4616A206AA26A38
:102C30000843E16A120211430843216B0843E96823
:102C40002C4A00E041E011400843E8602868304326
:102C50002860E868012109070843E860FFF7DEFB08
:102C6000044604E0FFF7DAFB001B022808D82868B6
:102C70008001F7D52BE0FFF7D1FB001B022801D91B
:102C80000320F8BD28688001F5D420E00128F8D0A1
:102C9000E868226A8107890F914216D17021626A21
:102CA0000140914211D17F21A26A09020140120222
:102CB00091420AD11F214904E26A0140914204D1A4
:102CC000400F216B4007884201D00120F8BD002051
:102CD000F8BD0000001002400024F4007400002041
:102CE0006C0000204010024000700040881300007B
:102CF000FFFFFEEF8C80C11F7047000010B5084831
:102D0000017801290BD10021017001F023FB01F0B2
:102D10008DF801F067F801F045F901F0F1F910BD07
:102D20004C00002070B50446006881690125C90483
:102D3000002908DA016DC90705D0C16D2943C165B5
:102D40002046FFF7DBFF20688169890409D5016D02
:102D5000890706D5C16D02221143C1652046FFF7E0
:102D6000CBFF2034657270BD70B504460120002C85
:102D700049D025462035687A002806D128721120CE
:102D8000C0026060204600F041F8022068722168AD
:102D9000CA204862216853204862204601F05BFA4D
:102DA000002829D120688169174A11408161216872
:102DB0008869A268E369104362691A431043886115
:102DC00021682069086120680169A2891204114301
:102DD0000161204601F062FA00280DD121688A695C
:102DE000D200D2088A6122689169636AA669194390
:102DF000236A3343194391612268FF2151620028FD
:102E000001D10121697270BDBFFF8FFB08B5006859
:102E10000D49884216D10D48C1690122D2031143E0
:102E2000C1610A484038C26B01150A43C263C06BD6
:102E300000220840009011460220FFF797FB022075
:102E4000FFF788FB08BD000000280040401002404A
:102E5000FEB5064604462036307A0B4601284BD094
:102E600001203072022070721846203000902068D5
:102E700000278069002A41D0400600D4DF7019780D
:102E80009D7809040D435978DA78090292051143B7
:102E90000D430099D869097809060D43054358691F
:102EA000996905435868084300902168CA20486220
:102EB000216853204862586AC11F2068F9390DD033
:102EC000816901225202914381612068C16D022211
:102ED0001143C165FFF7A2FA019054E08269FF2116
:102EE00001318A4382612068C16D01221143C165AD
:102EF000FFF794FA019024E00220FEBD400600D4C2
:102F0000DF70187801F09BF90504587801F097F903
:102F100000020543987801F092F90543D8788005BE
:102F200005430098007801F08AF900060543D86946
:102F3000B4E7FFF773FA0199411A7D20C00081427E
:102F40001AD82068C068C007F3D0206805642168DB
:102F50000098486420688169FF2201321143816131
:102F600020688169120120E0FFF758FA0199411A9F
:102F70007D20C000814206D92168FF2048620320DD
:102F800070723772FEBD2068C0688007ECD520687B
:102F9000856421680098C864206881690122520212
:102FA00011438161206881691201114381610748E1
:102FB00001680122D204114301602168FF204862A8
:102FC0000120707237720020FEBD000080180240A0
:102FD000F8B5064605462036307A0B4601280FD054
:102FE0000127377202207072002A0BD0D8789C78A3
:102FF000000404435878097800024903084317E0A5
:103000000220F8BD5878C10603D5EF2108400A30E8
:103010005870D87801F013F90404587801F00FF9CA
:1030200000020443987801F00AF904431878400339
:1030300004432968CA204862296853204862284608
:1030400001F009F9002806D10748044028684460C7
:10305000284601F023F92A68FF215162002800D197
:10306000777200213172F8BD3FFFFF00F7B50646C9
:1030700005462036307A0C46012810D001203072E7
:10308000022070722968CA20486229685320486269
:10309000284601F0E0F80027002802D027E00220AF
:1030A000FEBD029800282868806926D0400600D41A
:1030B000E7702078A378000403436078E178000289
:1030C00089050843034318480340286803602868BB
:1030D000816901229204914381612169E06808437A
:1030E00029688A6910438861284601F0D7F82A6860
:1030F000FF215162002813D014E0400600D4E7708D
:10310000207801F09CF80304607801F098F8000240
:103110000343A07801F093F80343E0788005D1E7FA
:10312000012171723772FEBD7F7F7F0070B504464A
:103130000068C168A0229143C160FFF76FF97D2646
:103140000546F60006E0FFF769F9401BB04201D9D9
:10315000032070BD2068C0688006F4D5002070BDD3
:1031600002490A6802430A607047000000000140FB
:10317000094910B5401E884201D9012010BD074CF5
:1031800060610321081F01F0B7FE0020A061072045
:103190002061002010BD0000FFFFFF0000E000E004
:1031A0007047704770470000F0B5034620331A7F20
:1031B000012A24D001221A7702225A770468626811
:1031C000A568104FBC4205D116460F221205964342
:1031D0004A6832437026B2430E6816436660006840
:1031E000B84202D0084A904204D1802289689543AF
:1031F000294381600120587700201877F0BD022014
:10320000F0BD0000002C01400004004070B5040037
:1032100005D025462035687F002802D006E0012031
:1032200070BD00202877204600F016F8022068774D
:10323000211D206801F040F9012240342272AA7752
:10324000EA7722706270A270E27022716271A271DC
:10325000E2716A77002070BDF0B587B00446142192
:103260006846FDF772FA3449324F2668052000247B
:10327000314A4039012502230007BE421BD117689D
:10328000CE14374317601268324005924A6B2A43C6
:103290004A63496B6E4629400591D9011AC66946B1
:1032A00003940493FEF7FEFF002211460D20FFF762
:1032B0005DF90D201CE0214FBE421DD1CA6B1A439F
:1032C000CA63CA6B1A4005924A6B2A434A63496B28
:1032D0006A46C907C90F059140211AC230C2694622
:1032E000FEF7E0FF002211461020FFF73FF9102003
:1032F000FFF730F907B0F0BD114886420DD11168D3
:10330000C01301431160116800220140059111466C
:103310001320FFF72BF91320EAE70A488642E9D188
:1033200011680120400401431160116801400591BA
:10333000E0E70000002C0140401002400004004083
:103340000020004000440140014620314A7F012A0C
:1033500001D00120704702224A770068094A012102
:10336000904202D0084A904207D18268074B1A4027
:10337000062A05D0DB1F9A4202D002680A43026087
:1033800000207047002C01400004004007000100AD
:10339000014620314A7F012A01D0012070470222D4
:1033A0004A770168CB6801221343CB600068094962
:1033B000884202D00849884207D18168074B1940EA
:1033C000062905D0DB1F994202D001681143016034
:1033D00000207047002C014000040040070001005D
:1033E0007047000030B5024604462032403405469E
:1033F00000290CD004290DD008290ED00C290FD09B
:1034000010290FD0E078E37901280FD10CE0907FEC
:103410002379F9E7D07F6379F6E72078A379F3E79A
:103420006078F0E7A078EEE7012B01D0012030BDF5
:103430000220002922D0042923D0082924D00C29D5
:1034400025D0102925D0E070E0710122286801F014
:103450006FF8114928680122884202D00F4988423A
:1034600007D181680E4B1940062905D0DB1F994210
:1034700002D0016811430160002030BD90772071B7
:10348000E3E7D0776071E0E72070A071DDE760705E
:10349000DAE7A070D8E70000002C014000040040EB
:1034A0000700010070B50446006801690025C943A2
:1034B0008907002915DBC168C943890711D4E91EB2
:1034C000016101202077206880698007204602D0B2
:1034D000FFF786FF04E000F0A7F8204600F0A5F80B
:1034E000257720680169C943490717D4C168C943D2
:1034F000490713D40421C9430161022020772068C1
:1035000080698005800F204602D0FFF769FF04E044
:1035100000F08AF8204600F088F8257720680169D5
:10352000C943090716D4C168C943090712D4082141
:10353000C9430161042020772068C06980072046C4
:1035400002D0FFF74DFF04E000F06EF8204600F0D7
:103550006CF8257720680169C943C90617D4C1688A
:10356000C943C90613D41021C9430161082020773B
:103570002068C0698005800F204602D0FFF730FF29
:1035800004E000F051F8204600F04FF8257720685D
:103590000169C943C90708D1C168C943C90704D132
:1035A000891E0161204600F041F820680169C94385
:1035B000090609D4C168C943090605D48021C94355
:1035C00001612046FFF7EDFD20680169C943C90587
:1035D00008D4C168C943090604D4124901612046D0
:1035E000FFF7DEFD20680169C943490609D4C168B7
:1035F000C943490605D44021C9430161204600F072
:1036000049F820680169C943890609D4C168C943DA
:10361000890605D42021C94301612046FFF7C2FD78
:1036200070BD0000FFFEFFFF70477047044900684F
:103630000968884203D103480168491C016070474A
:10364000040200205400002070B5044605462034D2
:10365000207F01280ED00126267702206077284699
:1036600000F0B6FF01460020002905D066772077DC
:10367000012070BD022070BD2968CA6840239A43AA
:10368000CA602968CA681B029A43CA6066772077B5
:10369000002070BD704710B50446803421780129A0
:1036A00016D0012121702421616001680A680B682D
:1036B0005B085B000B60012149070A434166016812
:1036C0000A6001F087F8202060600020207010BDA3
:1036D000022010BD7047704770B50446054680341F
:1036E000207801281AD001202070242060602868EA
:1036F0000668026852085200026028688268072340
:103700005B069A430A438260284601F063F8286802
:103710000660202060600020207070BD022070BD17
:1037200070B50446054680342078012819D0012060
:1037300020702420606028680668026852085200E1
:10374000026028688268D200D2080A438260284654
:1037500001F040F82868066020206060002020709A
:1037600070BD022070BD70477047F8B505468035C2
:1037700069680446AE680068826810271206002A4D
:1037800014DA212912D18168802291438160A06FCF
:10379000002808D0FEF702FC002804D0A06FFEF736
:1037A00075FC20281DD0204601F084F9206881682E
:1037B000490614D5222E12D181684022914381609E
:1037C000E06F002808D0FEF7E9FB002804D0E06F86
:1037D000FEF75CFC202804D0204601F04FF90020C1
:1037E000F8BDEF600320F8BD70470000F8B503682E
:1037F0000446D96918689A68914D0E462E402546B0
:103800008035002E6CD08F4E8F4F164007403743C7
:103810007FD0CF0706D0C70504D501271F62EB680C
:103820003B43EB608B0708D5D30706D027680223FC
:103830003B62EB6804273B43EB604B0708D5D3079B
:1038400006D0276804233B62EB6802273B43EB600A
:103850000B0709D520230340334305D026680823EE
:103860003362EE681E43EE600B0509D5430107D5B0
:1038700001232668DB023362EB6820263343EB60CA
:10388000EB68002B3AD089060AD520210840C905EB
:103890000A40104304D0216F002901D020468847F8
:1038A000E86821688968490602D4282108422AD09C
:1038B000204601F0E3F82068816849061FD5826838
:1038C00040218A438260E06F002818D05F498163FD
:1038D000E06FFEF79DFB002810D0E06F816B0CE0DD
:1038E0008E0616D5012720263F07064017403E4387
:1038F0000FD0216F7FE00CE020468847F8BD2046BE
:10390000FFF772FFF8BD2046FFF76EFF0020E8606A
:10391000F8BDE66E012E59D1CE0657D5C60655D54F
:1039200010221A622068816826464906403600291E
:103930002BDAE36F196849680904090CE8D0B78BE2
:103940008F42E5D9F18319680968890618D401689E
:10395000130199430160206881684908490081602A
:10396000206881684023994381602020A86000205E
:10397000E0662068016891430160E06FFEF70EFB8E
:10398000B08BF18B401A81B21CE0B18BF38BC91A5A
:10399000F38B89B2002BBBD00029B9D00368FF2676
:1039A0002136B343036020688368264EF6433340D4
:1039B00083602020A8600020E066206720680368FC
:1039C000934303602046FFF785FEF8BDCE0208D57D
:1039D000560206D50120000518622046FFF7C4FEF6
:1039E000F8BD0E060BD501278026FF0506403A409C
:1039F000164304D0616F002900D07DE7F8BD4A0668
:103A00000DD542060BD51A68204640218A431A601C
:103A1000202169600021616700F0AAF9F8BD0A025F
:103A200005D5420003D52046FFF79DFEF8BDC9012C
:103A3000FCD50028FADA2046FFF74DFEF8BD00005D
:103A40000F08000001000010200100046549000873
:103A500070B5040005D0254680356868002802D07E
:103A600006E0012070BD00202870204600F026F8F6
:103A700024206860206801684908490001602046E8
:103A800001F028F80128EDD0A06A002802D02046D5
:103A900000F0D0FE206841680922D20291434160C3
:103AA000206881682A229143816020680168012290
:103AB00011430160204600F023FF70BDF0B587B0D0
:103AC000044614216846FCF740FE644E22686448B0
:103AD000012102230025B2425CD1614A40321768BD
:103AE0008E0337431760126832400592426B0A43D7
:103AF0004263406B6A46084005900320400229C299
:103B000004910520039569460007FEF7CBFB564E4E
:103B1000544830601027B7603320F56070607561DD
:103B2000B561F5618020356230613046FEF710FBEB
:103B3000002801D0FEF71EFAA667B46249484A4E33
:103B400014385C363060B5603220F56070607561A5
:103B5000B561F5618020356230613046FEF7F8FAD4
:103B6000002801D0FEF706FAE667002211461B2066
:103B7000B462FEF7FBFC1B20FEF7ECFC3A489038E1
:103B80000068016839430160FF2237485F323749D6
:103B900090385EE0364EB2425DD1C66B01225204CF
:103BA0001643C663C66B16400596426B0A434263D2
:103BB000406B6A46C007C00F05900C2029C20491D3
:103BC0000520039569460007FEF76CFB2548294E42
:103BD000283830601027B7603520F5607060756157
:103BE000B561F5618020356230613046FEF7B0FA8C
:103BF000002801D0FEF7BEF9A667B46219481D4E31
:103C000014305C3E3060B5603420F56070607561E2
:103C1000B561F5618020356230613046FEF798FA73
:103C2000002801D0FEF7A6F9E667002211461C2005
:103C3000B462FEF79BFC1C20FEF78CFC0D485C3048
:103C400000680168394301600A48FF225F320A496F
:103C50005C3000F013F807B0F0BD00000038014000
:103C60000010024030000240600B002014080020C9
:103C700000440040740C00207209002070B5034617
:103C800080339C68202C19D100290BD0002A09D040
:103C9000012584682D03AC4206D10469002C03D1B0
:103CA000CC0701D0012070BD1C78012C06D0012466
:103CB0001C700023C36600F0C3FF70BD022070BDFE
:103CC00070477047F8B50546044680356868202877
:103CD00045D100290BD0002A09D00123A0681B037D
:103CE000984206D12069002803D1C80701D00120DD
:103CF000F8BD2878012832D00120287020464030B5
:103D000021658282C2820026EE6021206860A06F59
:103D1000002819D01349C162A16F13480863A16F2D
:103D200012484863A06F134686632768216D3A46A0
:103D30002832A06FFEF75EFA002805D01020E86058
:103D40002E7020206860D2E72168402008622E7023
:103D5000206881688022114381600020F8BD022024
:103D6000F8BD0000434A0008734A0008794900087A
:103D700070477047FEE7000070B5194D0024285DBC
:103D8000002804D0012806D002280BD107E02046E5
:103D9000FDF784FF06E02046FDF790FF02E0204695
:103DA000FDF79CFF641CE4B2072CE8D30724285DD0
:103DB000002804D0012806D002280BD107E02046B5
:103DC000FDF74CFF06E02046FDF758FF02E02046D5
:103DD000FDF784FF641CE4B20A2CE8D370BD000038
:103DE0000F01002008B51048816B01221143816347
:103DF000806B10400022009011460920FEF7B6FBB0
:103E00000920FEF7A7FB002211460A20FEF7AEFBB1
:103E10000A20FEF79FFB002211460B20FEF7A6FBAF
:103E20000B20FEF797FB08BD0010024030B587B0AD
:103E300014216846FCF789FC1748426B02210A43AB
:103E40004263426B0A400592426B04210A4342637B
:103E5000426B0A400592416B012211434163406B62
:103E60000324104005900D4800256A4631C269467A
:103E70000B48FEF717FAA0036A4631C269460948A3
:103E8000FEF710FA08486A4631C205206946000765
:103E9000FEF708FA07B030BD00100240FF03000033
:103EA0000004005000080050B380000010B508481E
:103EB00006490160052141600649C1608160FEF745
:103EC000B3FA002801D0FEF755F810BD00300040CD
:103ED0001C010020FF0F000030B591B0142168468E
:103EE000FCF733FC0024282106A80594FCF72DFCE0
:103EF0002B482A49846001607F21C160446184614C
:103F0000FF21C46101610121890744620162FEF75A
:103F10002BFF002801D0FEF72DF814256846057008
:103F2000102141702421817001940394002269467C
:103F30001B480494FFF79AF8002801D0FEF71AF8FE
:103F4000072069460875062048758875CC750022DB
:103F500005A91348FFF73CF8002801D0FEF70AF83E
:103F6000684605761121417605218176C8070794B8
:103F70000B9009940A940C9401210D9408A80176E1
:103F800008020F90002206A90548FEF761FF0028ED
:103F900001D0FDF7EFFF11B030BD00000028004058
:103FA0004001002010B50B480949016000223F2163
:103FB000826041607D21C9000261C1608021816110
:103FC000FFF724F9002801D0FDF7D4FF10BD000051
:103FD000002000400402002010B50A480849016092
:103FE0003F214160002181600161074A4161C26057
:103FF0008161FFF70BF9002801D0FDF7BBFF10BD71
:104000000044014050020020FFFF000010B588B0BE
:1040100014216846FCF799FB0024184918480594B8
:104020000694079412C004608460C460154904615A
:1040300041600838FFF7EAF8002801D0FDF79AFF41
:1040400007200090502001900294694604940C4887
:10405000FFF7FAFA002801D0FDF78CFF05940694CB
:1040600005A907480794FFF79FF8002801D0FDF73E
:1040700081FF0348FFF78CF908B010BD002C014008
:104080006C010020FFFF000010B588B014216846C5
:10409000FCF75BFB00241749174805940694079426
:1040A00012C0046084601549046141600838FFF75C
:1040B000ADF8002801D0FDF75DFF072000905020EB
:1040C00001900294694604940B48FFF7BDFA00285A
:1040D00001D0FDF74FFF059405A907480794FFF7A6
:1040E00063F8002801D0FDF745FF0348FFF750F9BA
:1040F00008B010BD00040040B8010020FFFF000020
:1041000010B5184816490160E121490241600021BB
:104110008160C16001618161C16101620C22416203
:1041200042618162FFF794FC002801D0FDF722FF75
:1041300000210C48FFF7F4FA002801D0FDF71AFF20
:1041400000210848FFF7C8FA002801D0FDF712FF48
:104150000448FFF7A0FA002801D0FDF70BFF10BDBF
:1041600000380140D00A002010B50D480B4901600D
:10417000E1214902416000218160C16001618161EA
:10418000C16101620C22416242618162FFF760FC01
:10419000002801D0FDF7EEFE10BD000000440040F5
:1041A000D00C0020704700007FB50178012901D0B4
:1041B00019A01EE04178032903D006290DD019A0CB
:1041C00017E0C178827809021143012913D141799E
:1041D000027908021043C0B21AE0C17882780D0259
:1041E00015434179027909021143CCB20A2C03D05C
:1041F0000EA000F02BFF7FBD811D22466846FCF714
:1042000045FA6946284600F091F8FFF7B5FD2046CB
:1042100000F074F87FBD0000416464722065727222
:1042200000000000436D6420657272004C4544201C
:10423000436F756E74204572720D0A00704700223C
:10424000014602E00A39C9B2521C0A29FAD2100703
:10425000000E08437047F8B5044600680025C168A1
:10426000490618D4C16880221143C160FEF7D6F810
:1042700027460646203708E0FEF7D0F8811B7D2050
:10428000C000814201D903257D722068C0684006C4
:1042900001D4032DF0D12846F8BD0000F8B5124C2A
:1042A0000026E16880229143E160A1690546890604
:1042B0002035002907DBFEF739FF002811D0032045
:1042C000687206460DE0A1692027B943A161FEF797
:1042D0002DFF002802D0032068720646A0693843EB
:1042E000A0613046F8BD00000028004010B502482B
:1042F000FEF718FD10BD00004001002010B5094C6C
:104300000121217006226270A170E0700421204614
:10431000FDF716FD2071000A607106212046FDF7A9
:10432000EBFC10BD290000207047000010B5064BC3
:104330000022C40701D08C5C9C54521C400892B2ED
:104340000A2AF6D310BD00000F01002010B5FEF7B9
:10435000A5F810BD70B598B034216846FCF7F5F9A2
:1043600000240D940E940F94182111A81094FCF7BA
:10437000ECF9012676023046FEF7FCF80A200090A0
:1043800070100390402005900120069008200A90AC
:10439000022580030B900795000304940C90089568
:1043A00009946846FEF7B8FA07200D900F94022191
:1043B0000E9510940DA8FEF7A9F9044816961190D1
:1043C000129411A8FEF7FCF818B070BD01000200AD
:1043D00001200249C00688607047000000ED00E03F
:1043E00010B50248FFF75EF810BD0000040200207F
:1043F00010B50748FFF756F80548016808690548F1
:104400008268521C82600120C043086110BD000018
:104410006C0100205400002010B5032201210D2062
:10442000FEF7A4F80D20FEF795F80748FEF78CFF7D
:1044300005480068C16801221143C160002102489B
:10444000FEF7D0FF10BD00006C01002010B5094838
:10445000FFF728F8074C2068006907484168491CA5
:10446000416006A000F0F2FD01202168C043086110
:1044700010BD0000B80100205400002054494D3305
:104480000000000010B5032201211020FEF76EF895
:104490001020FEF75FF80748FEF756FF0548006852
:1044A000C16801221143C16000210248FEF79AFF52
:1044B00010BD0000B801002070B50268174B184EFF
:1044C000984201D0B04203D17024A2434C682243E9
:1044D000144C154D984208D0B04206D0134EB0424D
:1044E00003D0A04201D0A84204D103263602B24331
:1044F000CE6832438026B2434E69324302608A68F6
:10450000C2620A688262984203D0A04201D0A842E7
:1045100001D1096901630121416170BD002C014095
:1045200000040040004401400048014000200040D9
:1045300010B5CB06DB0E0121046A99408C4304625E
:10454000016A9A401143016210BD0000F0B516499E
:104550000868026A154B164C1A4206D1026A2242BA
:1045600003D10268520852000260124D0020A86078
:104570000A68506209680A68012632430A600A49DB
:104580004C310A68176A1F4205D1136A234202D1CF
:104590001368B343136068600A6850620868016872
:1045A00031430160F0BD00006C01002011110000DA
:1045B000440400005400002030B58468FF252D021B
:1045C0001B021343AC430B432343836030BD000005
:1045D00070B50468A368204A13404A681A431F4B09
:1045E0001A400B681343A3604A6813071B0F30D1AE
:1045F0001211130000F05CFC082D2D2D2D0C22282B
:10460000052D0B698A68C9680068FFF7D5FF20E0AF
:104610000A68052A10D00268136A146A64086400E4
:1046200014620468A2690969F025AA4309011143CB
:10463000A161006803620CE0012070BD0A6989680D
:10464000006800F00DF804E00A698968006800F06D
:1046500018F8002070BD00008FFFCFFFF8FFFEFFAD
:1046600030B5036A046A6408640004628469F02552
:10467000AC43120122430A24A3430B438261036229
:1046800030BD30B5036A1024A34303628469036A12
:104690000F252D031203AC432243A024A343090199
:1046A00019438261016230BDF8B5364800780128AF
:1046B0001CD13548354E0178012907D140780328AF
:1046C00001D0062802D13188122910D030A12E48FD
:1046D000FCF73EF800284FD031882FA000F0B6FC40
:1046E00031882948FDF722FCFDF748FBF8BD2DA0D5
:1046F00000F0ACFC31882448FDF718FC32882249D0
:104700002C48FBF7C3FF2B4D2B4F2C4628781E342B
:10471000207068786070E878A9780002084340BA91
:10472000A070000AE070687929790002084342BA53
:104730002271100A6071901D3870A91DA01DFBF731
:10474000A5FF3878295CE1742818407820753088F6
:10475000801E81B22846FDF7F3FA217DE27C090232
:104760008A18824203D12046FFF71EFDBCE70146AE
:1047700012A000F06BFCB7E7012210211448FDF7EE
:1047800047FEB1E761000020B6060020640000206B
:104790006869676800000000526563322825642953
:1047A00000000000BDD3CAD5B5BD434D44282564E3
:1047B00029000000780000202800002043524320F8
:1047C00045727220253034583A25303458000000A4
:1047D00000080050F0B513A106C985B00192009100
:1047E00012A206CA039202910446416E4034002987
:1047F00015D000688168806809014D0F400F02AE36
:10480000315C6F46385CC000FBF7E6FF6085785D81
:10481000715DC000FBF7E0FF208505B0F0BD012011
:104820006085F9E7010101030701000008040204A3
:104830000801010110B5018DC90707D001684A6858
:1048400001235B049A43C36A1A434A60018D8907B6
:1048500007D501684A6801231B049A43036B1A4376
:104860004A60018D490707D501684A6801239B0406
:104870009A43436B1A434A60018D090707D50168C3
:104880004A680123DB039A43836B1A434A60018D14
:10489000C90607D50268916801231B039943C36BBE
:1048A00019439160018D890607D501688A68012343
:1048B0005B039A43036C1A438A60018D490612D543
:1048C00003685A6801210905446C8A4322435A60EF
:1048D000426C8A4207D10268516803235B05994301
:1048E000836C19435160018D090607D501684A6838
:1048F0000123DB04C06C9A4302434A6010BD0000F0
:10490000FEB50546002680350446EE60FDF786FDBF
:10491000019020680068124F000709D50121009717
:10492000002249052046019B00F0CCF900280DD15A
:104930002068006840070BD50121009700228905F7
:104940002046019B00F0BEF9002801D00320FEBDE7
:1049500020206860A860E6662E700020FEBD000082
:10496000FFFFFF0110B5806A002201464031CA8373
:10497000CA82FEF739FF10BDF8B5846A2046803040
:104980004168054686682068806800270006002880
:1049900006DA212904D156200753204600F08AF870
:1049A00020688068400606D5222E04D15E20075379
:1049B000204600F063F8E86810210843E8602046CC
:1049C000FEF712FFF8BD10B501460968806A096854
:1049D00089061DD400225E210A5201680A68FF235D
:1049E00001339A430A6001688A68520852008A605B
:1049F00001688A6840239A438A60202288210A50ED
:104A0000C16E012904D101680A6810239A430A6023
:104A1000C16E012902D0FFF753F910BD5C21095A7C
:104A2000FEF758FE10BD10B5806AC16E012902D094
:104A3000FFF747F910BD5C21095A4908FEF74AFE05
:104A400010BD10B501460968806A096889060DD451
:104A5000002256210A5201688A6880239A438A609C
:104A60000068016840221143016010BDFFF780F922
:104A700010BD10B5806AFFF77CF910BD01680A68A7
:104A8000FF2321339A430A6001688A68084B1A4061
:104A90008A60C16E012904D101680A6810239A4313
:104AA0000A60202288210A500021C16601677047F0
:104AB000FEFFFFEF01680A68C0239A430A6001689D
:104AC0008A680123DB059A438A6020218030416097
:104AD00070470000F8B5044680682169E269084320
:104AE0006169002511430843616E22680143106823
:104AF0004B4B18400843106021684868032212039A
:104B00009043E26810434860A169206A2268084324
:104B10009168444B1940014391602068C16A626A00
:104B2000090909011143C1623F492068884211D136
:104B30003E4840698007800F0FD0012806D0022828
:104B400002D003280BD103E0022109E0042107E091
:104B5000082105E03649884201D1002100E01021FA
:104B60000120E369C003334A334E344F834228D1D6
:104B7000002906D0022907D0042907D0082941D1ED
:104B800008E0FDF76FFE03E0104603E0FDF77EFE50
:104B900000283BD0616A4900715AFBF71DFE61682D
:104BA00040004A088018FBF717FE80B20146103912
:104BB000B94227D82149491C01400007400F08434A
:104BC00022E0002906D0022907D0042907D00829AD
:104BD00018D108E0FDF746FE03E0104603E0FDF7BC
:104BE00055FE002812D0616A4900715AFBF7F4FDA6
:104BF00061684A088018FBF7EFFD80B20146103962
:104C0000B94201D9012501E02168C860204601218F
:104C10004030418501850020206760672846F8BD47
:104C2000F369FFCFFFF4FF1100380140401002404C
:104C3000004400400024F400A8510008EFFF0000E9
:104C4000F8B50446816540300026254682838035CC
:104C5000EE602220A860E06F00281AD01649C162D9
:104C6000E16F16480863E16F15484863E06F13462B
:104C70008663A76D21683A462431E06FFDF7BAFAE2
:104C8000002806D01020E8602E70202068600120E7
:104C9000F8BD2E7020680168FF22013211430160C7
:104CA0002068816801221143816020688168402268
:104CB000114381600020F8BDC7490008274A000859
:104CC00079490008FFB581B005460F460446803596
:104CD0000A9E38E0701C36D0FDF7A0FB0499401AFC
:104CE000B04221D8002E1FD02068016849072AD57C
:104CF000C069C043000526D401202168C0020862B3
:104D000020680168FF22A132914301602068816818
:104D100049084900816020206860A860E8600020A0
:104D20002870032005B0F0BD20680168FF22A13281
:104D30009143016020688168490849008160202012
:104D40006860A860EBE72068C1693846884305D0F1
:104D5000002103988142BDD00020E3E70121F8E75C
:104D600070B51C48FEF742FD1A48FEF73FFD194C8E
:104D70001949206888422BD1C169C906C90F1ED0C4
:104D8000102101622046FEF7F0FC144800684068DC
:104D9000FF255F35281A81B21148A942018001D34D
:104DA000691E01800F4A0121117002880E490F48C7
:104DB000FBF76CFC2A460C490648FEF75FFF2068AB
:104DC000C1690907C90F03D008210162FCF7E6FF9A
:104DD00070BD0000D00A002000380140BC0B00204C
:104DE000620000206000002014080020FA03002068
:104DF00070B51C48FEF7FAFC1A4C1B492068884223
:104E00002FD1C169C906C90F22D0102101622046E5
:104E1000FEF7ABFC154800684068FF255F35281A8F
:104E200081B21348A942018001D3691E0180114A51
:104E300001211170028810491048FBF727FC2A460F
:104E40000D490848FEF71AFF29460B48FBF77BFC83
:104E50002068C1690907C90F03D008210162FCF766
:104E60008DFF70BDD00C002000440040180C0020C5
:104E7000640000206100002072090020B6060020B6
:104E8000F8B5040C8BB2264682B25E4310465843F6
:104E90000D0C370C360400218019164679416E43FB
:104EA000370C36048019264679416E438919F8BDBE
:104EB00030B47446641E2578641CAB4200D21D4693
:104EC000635D5B00E31830BC184700004900CA026C
:104ED0000243100000D004204A0D01D001221043EB
:104EE000044A490D914201D102210843012800D111
:104EF00005207047FF0700008307FF22DB0E9A4062
:104F00008907090E9940002808DB830809489B009F
:104F10001B18186890430843186070470007000F7B
:104F20000838830804489B001B18D869904308433D
:104F3000D861704700E400E000ED00E030380A2856
:104F400001D20120704700207047000086B0142174
:104F50006846FBF7FAFBFDF7A9FAFFF7FBF9FEF746
:104F600065FFFEF73FFFFFF78FF8FFF71BF8FFF72E
:104F7000C7F8FEF79BFFFEF7AFFFFFF72DF8FFF72F
:104F8000F3F8FFF743F86420FDF77AF9FCF706FF22
:104F9000FCF7F4FE20A000F059F82848FEF7F8F9D5
:104FA000FFF73AFAFFF76EFAFFF7D0FA6420FDF741
:104FB00067F9FCF7F3FEFCF7E1FE7D25ED00204CE0
:104FC000FCF7DAFF2168FCF7B3FEA84211D3FCF727
:104FD000D3FF1B4E20600836FCF7D4FF0146A060CB
:104FE00018A000F033F804213046FCF785FEFFF7E7
:104FF000ADFAFCF7C1FF6168FCF79AFE642805D39F
:10500000FCF7BAFF60601048FDF740FAFFF74CFB71
:10501000FCF7D4FED4E7000053544D33324730330D
:1050200030463620C6B5C2CABCC62C2047595320CC
:1050300032303233313031310000000004020020C0
:1050400040000020256400001C0100200FB410B5B2
:1050500002E00120FDF714F91148FDF719F80228C4
:10506000F7D0FF215F310F48FBF76FFB03AA0D4814
:105070000299FBF72DF90CA10A48FBF7FBFA094846
:10508000FBF786FA82B20948C1694906FCD5044893
:1050900004499038FEF716FE10BC08BC04B018474F
:1050A000600B00209C0200200D0A00000038014027
:1050B0000FB410B5154C02E00120FDF7E1F81448DB
:1050C000FCF7E6FF0228F7D0E0694006FCD5FF2197
:1050D0005F311048FBF739FB03AA0E480299FBF732
:1050E000F7F80DA10B48FBF7C5FA0A48FBF750FA91
:1050F00082B2E0694006FCD5054806495C30FEF7FF
:10510000E1FD10BC08BC04B018470000004400409A
:10511000740C0020580500200D0A000010B500296D
:105120000AD00878002807D005487844FBF710FB20
:10513000002801D0002010BD0248784410BD0000B6
:10514000160200000E02000010B500290AD00878EF
:10515000002807D005487844FBF7FAFA002801D068
:10516000002010BD0248784410BD00000602000077
:10517000FE01000003B402487844844603BC604743
:105180006BBDFFFF03B402487844844603BC60470C
:10519000D5BFFFFF080000200100800001002000B3
:1051A000100001000200004001000200040006009F
:1051B00008000A000C0010002000400080000001E0
:1051C00000000000000000000000000000000000DF
:1051D00000000000000000000000000000000000CF
:1051E00001000000020000000300000004000000B5
:1051F0000600000007000000080000000900000091
:10520000000000000000000000000000000000009E
:105210000100000002000000030000000400000084
:1052200030313233343536373839414243444546DC
:1052300040305800303132333435363738396162D6
:1052400063646566403078000400000800000000D8
:10525000000000020001000010000000000000003B
:10526000000000003031323334353637383961626E
:1052700063646566787000303132333435363738E0
:105280003941424344454658500000000240000066
:10529000000000A00000000005400000000000C861
:1052A000000000000C4000000000409C00000000D6
:1052B000194000000020BCBE000000003440000087
:1052C000BFC91B8E00000004B5400000504BCFD07A
:1052D0006607E2CF010000006C4100003E8251AA47
:1052E000DFEEA73401000000D9420000DCB5A0E2E7
:1052F0003A301F97FFFFFFFFB4450000FD25A0C80F
:10530000E9A3C14FFFFFFFFFFF3F00000000008047
:1053100000000000FF3F00000000008000000000CF
:105320006C54000800000020780000000401000810
:10533000E454000878000020481300002001000811
:105340001C00000043000000F8FFFFFF0C000000FD
:105350000E0000000F0000002E00000010010000F1
:1053600043000000F8FFFFFF004040404040404045
:105370004040414141414140404040404040404028
:1053800040404040404040404005020202020202CC
:10539000020202020202020202202020202020201B
:1053A000202020020202020202029090909090902F
:1053B00010101010101010101010101010101010ED
:1053C0001010101002020202020288888888888861
:1053D000080808080808080808080808080808084D
:1053E0000808080802020202400000000000000055
:1053F00000000000000000000000000000000000AD
:10540000000000000000000000000000000000009C
:10541000000000000000000000000000000000008C
:10542000000000000000000000000000000000007C
:10543000000000000000000000000000000000006C
:10544000000000000000000000000000000000005C
:10545000000000000000000000000000000000004C
:1054600000000000000000000000000000040050E8
:1054700000000050000400500000005000000050E8
:1054800000000050000000500000005000000050DC
:1054900000000050000103020000000106010000AE
:1054A00000010300000000000000000000000000F8
:1054B00000000000000000000000000000000000EC
:1054C00000000000000000000000000000000000DC
:1054D00000000000010000000400000000000000C7
:0454E0000024F400B0
:04000005080000C12E
:00000001FF
