Component: ARM Compiler 5.06 update 7 (build 960) Tool: armlink [4d3601]

==============================================================================

Section Cross References

    startup_stm32g030xx.o(STACK) refers (Special) to heapauxi.o(.text) for __use_two_region_memory
    startup_stm32g030xx.o(HEAP) refers (Special) to heapauxi.o(.text) for __use_two_region_memory
    startup_stm32g030xx.o(RESET) refers (Special) to heapauxi.o(.text) for __use_two_region_memory
    startup_stm32g030xx.o(RESET) refers to startup_stm32g030xx.o(STACK) for __initial_sp
    startup_stm32g030xx.o(RESET) refers to startup_stm32g030xx.o(.text) for Reset_Handler
    startup_stm32g030xx.o(RESET) refers to stm32g0xx_it.o(i.NMI_Handler) for NMI_Handler
    startup_stm32g030xx.o(RESET) refers to stm32g0xx_it.o(i.HardFault_Handler) for HardFault_Handler
    startup_stm32g030xx.o(RESET) refers to stm32g0xx_it.o(i.SVC_Handler) for SVC_Handler
    startup_stm32g030xx.o(RESET) refers to stm32g0xx_it.o(i.PendSV_Handler) for PendSV_Handler
    startup_stm32g030xx.o(RESET) refers to stm32g0xx_it.o(i.SysTick_Handler) for SysTick_Handler
    startup_stm32g030xx.o(RESET) refers to stm32g0xx_it.o(i.RTC_TAMP_IRQHandler) for RTC_TAMP_IRQHandler
    startup_stm32g030xx.o(RESET) refers to stm32g0xx_it.o(i.DMA1_Channel1_IRQHandler) for DMA1_Channel1_IRQHandler
    startup_stm32g030xx.o(RESET) refers to stm32g0xx_it.o(i.DMA1_Channel2_3_IRQHandler) for DMA1_Channel2_3_IRQHandler
    startup_stm32g030xx.o(RESET) refers to stm32g0xx_it.o(i.DMA1_Ch4_5_DMAMUX1_OVR_IRQHandler) for DMA1_Ch4_5_DMAMUX1_OVR_IRQHandler
    startup_stm32g030xx.o(RESET) refers to tim.o(i.TIM1_BRK_UP_TRG_COM_IRQHandler) for TIM1_BRK_UP_TRG_COM_IRQHandler
    startup_stm32g030xx.o(RESET) refers to tim.o(i.TIM3_IRQHandler) for TIM3_IRQHandler
    startup_stm32g030xx.o(RESET) refers to stm32g0xx_it.o(i.TIM14_IRQHandler) for TIM14_IRQHandler
    startup_stm32g030xx.o(RESET) refers to stm32g0xx_it.o(i.USART1_IRQHandler) for USART1_IRQHandler
==============================================================================

Removing Unused input sections from the image.

    Removing led.o(.rev16_text), (4 bytes).
    Removing led.o(.revsh_text), (4 bytes).
    Removing led.o(i.BSP_LED_DeInit), (52 bytes).
    Removing led.o(i.BSP_LED_Init), (72 bytes).
    Removing iic.o(.rev16_text), (4 bytes).
    Removing iic.o(.revsh_text), (4 bytes).
    Removing iic.o(i.IIC_DeInit), (64 bytes).
    Removing iic.o(i.IIC_Init), (68 bytes).
    Removing iic.o(i.IIC_InterfaceReset), (106 bytes).
    Removing iic.o(i.IIC_ReadByte), (164 bytes).
    Removing iic.o(i.IIC_Start), (64 bytes).
    Removing iic.o(i.IIC_Stop), (70 bytes).
    Removing iic.o(i.IIC_WaitACK), (88 bytes).
    Removing iic.o(i.IIC_WriteByte), (94 bytes).
    Removing iic.o(i.SDA_IN), (40 bytes).
    Removing iic.o(i.SDA_OUT), (42 bytes).
    Removing task.o(.rev16_text), (4 bytes).
    Removing task.o(.revsh_text), (4 bytes).
==============================================================================

Image Symbol Table

    Local Symbols

    Symbol Name                              Value     Ov Type        Size  Object(Section)

    ../Drivers/STM32G0xx_HAL_Driver/Src/stm32g0xx_hal.c 0x00000000   Number         0  stm32g0xx_hal.o ABSOLUTE
    ../Drivers/STM32G0xx_HAL_Driver/Src/stm32g0xx_hal_cortex.c 0x00000000   Number         0  stm32g0xx_hal_cortex.o ABSOLUTE
    ../Drivers/STM32G0xx_HAL_Driver/Src/stm32g0xx_hal_dma.c 0x00000000   Number         0  stm32g0xx_hal_dma.o ABSOLUTE
    ../Drivers/STM32G0xx_HAL_Driver/Src/stm32g0xx_hal_dma_ex.c 0x00000000   Number         0  stm32g0xx_hal_dma_ex.o ABSOLUTE
    ../Drivers/STM32G0xx_HAL_Driver/Src/stm32g0xx_hal_exti.c 0x00000000   Number         0  stm32g0xx_hal_exti.o ABSOLUTE
    ../Drivers/STM32G0xx_HAL_Driver/Src/stm32g0xx_hal_flash.c 0x00000000   Number         0  stm32g0xx_hal_flash.o ABSOLUTE
    ../Drivers/STM32G0xx_HAL_Driver/Src/stm32g0xx_hal_flash_ex.c 0x00000000   Number         0  stm32g0xx_hal_flash_ex.o ABSOLUTE
    ../Drivers/STM32G0xx_HAL_Driver/Src/stm32g0xx_hal_gpio.c 0x00000000   Number         0  stm32g0xx_hal_gpio.o ABSOLUTE
    ../Drivers/STM32G0xx_HAL_Driver/Src/stm32g0xx_hal_iwdg.c 0x00000000   Number         0  stm32g0xx_hal_iwdg.o ABSOLUTE
    ../Drivers/STM32G0xx_HAL_Driver/Src/stm32g0xx_hal_pwr.c 0x00000000   Number         0  stm32g0xx_hal_pwr.o ABSOLUTE
    ../Drivers/STM32G0xx_HAL_Driver/Src/stm32g0xx_hal_pwr_ex.c 0x00000000   Number         0  stm32g0xx_hal_pwr_ex.o ABSOLUTE
    ../Drivers/STM32G0xx_HAL_Driver/Src/stm32g0xx_hal_rcc.c 0x00000000   Number         0  stm32g0xx_hal_rcc.o ABSOLUTE
    ../Drivers/STM32G0xx_HAL_Driver/Src/stm32g0xx_hal_rcc_ex.c 0x00000000   Number         0  stm32g0xx_hal_rcc_ex.o ABSOLUTE
    ../Drivers/STM32G0xx_HAL_Driver/Src/stm32g0xx_hal_rtc.c 0x00000000   Number         0  stm32g0xx_hal_rtc.o ABSOLUTE
    ../Drivers/STM32G0xx_HAL_Driver/Src/stm32g0xx_hal_rtc_ex.c 0x00000000   Number         0  stm32g0xx_hal_rtc_ex.o ABSOLUTE
    ../Drivers/STM32G0xx_HAL_Driver/Src/stm32g0xx_hal_tim.c 0x00000000   Number         0  stm32g0xx_hal_tim.o ABSOLUTE
    ../Drivers/STM32G0xx_HAL_Driver/Src/stm32g0xx_hal_tim_ex.c 0x00000000   Number         0  stm32g0xx_hal_tim_ex.o ABSOLUTE
    ../Drivers/STM32G0xx_HAL_Driver/Src/stm32g0xx_hal_uart.c 0x00000000   Number         0  stm32g0xx_hal_uart.o ABSOLUTE
    ../Drivers/STM32G0xx_HAL_Driver/Src/stm32g0xx_hal_uart_ex.c 0x00000000   Number         0  stm32g0xx_hal_uart_ex.o ABSOLUTE
    ../Drivers/STM32G0xx_HAL_Driver/Src/stm32g0xx_ll_dma.c 0x00000000   Number         0  stm32g0xx_ll_dma.o ABSOLUTE
    ../Drivers/STM32G0xx_HAL_Driver/Src/stm32g0xx_ll_rcc.c 0x00000000   Number         0  stm32g0xx_ll_rcc.o ABSOLUTE
    ../Src/dma.c                             0x00000000   Number         0  dma.o ABSOLUTE
    ../Src/gpio.c                            0x00000000   Number         0  gpio.o ABSOLUTE
    ../Src/iwdg.c                            0x00000000   Number         0  iwdg.o ABSOLUTE
    ../Src/main.c                            0x00000000   Number         0  main.o ABSOLUTE
    ../Src/rtc.c                             0x00000000   Number         0  rtc.o ABSOLUTE
    ../Src/stm32g0xx_hal_msp.c               0x00000000   Number         0  stm32g0xx_hal_msp.o ABSOLUTE
    ../Src/stm32g0xx_it.c                    0x00000000   Number         0  stm32g0xx_it.o ABSOLUTE
    ../Src/system_stm32g0xx.c                0x00000000   Number         0  system_stm32g0xx.o ABSOLUTE
    ../Src/tim.c                             0x00000000   Number         0  tim.o ABSOLUTE
    ../Src/usart.c                           0x00000000   Number         0  usart.o ABSOLUTE
    ../clib/angel/boardlib.s                 0x00000000   Number         0  boardinit3.o ABSOLUTE
    ../clib/angel/boardlib.s                 0x00000000   Number         0  boardinit2.o ABSOLUTE
    ../clib/angel/boardlib.s                 0x00000000   Number         0  boardinit1.o ABSOLUTE
    ../clib/angel/boardlib.s                 0x00000000   Number         0  boardshut.o ABSOLUTE
    ../clib/angel/handlers.s                 0x00000000   Number         0  __scatter_copy.o ABSOLUTE
    ../clib/angel/handlers.s                 0x00000000   Number         0  __scatter_zi.o ABSOLUTE
    ../clib/angel/kernel.s                   0x00000000   Number         0  rtexit.o ABSOLUTE
    ../clib/angel/kernel.s                   0x00000000   Number         0  __rtentry.o ABSOLUTE
    ../clib/angel/kernel.s                   0x00000000   Number         0  __rtentry4.o ABSOLUTE
    ../clib/angel/kernel.s                   0x00000000   Number         0  __rtentry2.o ABSOLUTE
    ../clib/angel/kernel.s                   0x00000000   Number         0  rtexit2.o ABSOLUTE
    ../clib/angel/rt.s                       0x00000000   Number         0  aeabi_idiv0_sigfpe.o ABSOLUTE
    ../clib/angel/rt.s                       0x00000000   Number         0  rt_locale.o ABSOLUTE
    ../clib/angel/rt.s                       0x00000000   Number         0  rt_ctype_table.o ABSOLUTE
    ../clib/angel/rt.s                       0x00000000   Number         0  rt_div0.o ABSOLUTE
    ../clib/angel/rt.s                       0x00000000   Number         0  rt_raise.o ABSOLUTE
    ../clib/angel/rt.s                       0x00000000   Number         0  aeabi_idiv0.o ABSOLUTE
    ../clib/angel/rt.s                       0x00000000   Number         0  rt_locale_intlibspace.o ABSOLUTE
    ../clib/angel/scatterp.s                 0x00000000   Number         0  __scatter.o ABSOLUTE
    ../clib/angel/startup.s                  0x00000000   Number         0  __main.o ABSOLUTE
    ../clib/angel/sys.s                      0x00000000   Number         0  tempstk.o ABSOLUTE
    ../clib/angel/sys.s                      0x00000000   Number         0  indicate_semi.o ABSOLUTE
    ../clib/angel/sys.s                      0x00000000   Number         0  libspace.o ABSOLUTE
    ../clib/angel/sys.s                      0x00000000   Number         0  use_no_semi.o ABSOLUTE
    ../clib/angel/sys.s                      0x00000000   Number         0  sys_stackheap_outer.o ABSOLUTE
    ../clib/angel/sysapp.c                   0x00000000   Number         0  sys_exit.o ABSOLUTE
    ../clib/angel/sysapp.c                   0x00000000   Number         0  sys_wrch.o ABSOLUTE
    ../clib/angel/sysapp.c                   0x00000000   Number         0  sys_command.o ABSOLUTE
    ../clib/armsys.c                         0x00000000   Number         0  _get_argv_nomalloc.o ABSOLUTE
    ../clib/armsys.c                         0x00000000   Number         0  no_argv.o ABSOLUTE
    ../clib/armsys.c                         0x00000000   Number         0  argv_veneer.o ABSOLUTE
    ../clib/bigflt.c                         0x00000000   Number         0  bigflt0.o ABSOLUTE
    ../clib/btod.c                           0x00000000   Number         0  btod.o ABSOLUTE
    ../clib/division.c                       0x00000000   Number         0  rtudiv10.o ABSOLUTE
    ../clib/division.c                       0x00000000   Number         0  lludiv10.o ABSOLUTE
    ../clib/division.s                       0x00000000   Number         0  aeabi_sdiv.o ABSOLUTE
    ../clib/division.s                       0x00000000   Number         0  aeabi_sdiv_div0.o ABSOLUTE
    ../clib/heapalloc.c                      0x00000000   Number         0  hrguard.o ABSOLUTE
    ../clib/heapaux.c                        0x00000000   Number         0  heapauxi.o ABSOLUTE
    ../clib/libinit.s                        0x00000000   Number         0  libinit.o ABSOLUTE
    ../clib/libinit.s                        0x00000000   Number         0  libshutdown.o ABSOLUTE
    ../clib/libinit.s                        0x00000000   Number         0  libinit2.o ABSOLUTE
    ../clib/libinit.s                        0x00000000   Number         0  libshutdown2.o ABSOLUTE
    ../clib/locale.c                         0x00000000   Number         0  _wcrtomb.o ABSOLUTE
    ../clib/locale.s                         0x00000000   Number         0  lc_ctype_c.o ABSOLUTE
    ../clib/locale.s                         0x00000000   Number         0  lc_numeric_c.o ABSOLUTE
    ../clib/memcpset.c                       0x00000000   Number         0  rt_memclr.o ABSOLUTE
    ../clib/memcpset.c                       0x00000000   Number         0  rt_memcpy.o ABSOLUTE
    ../clib/memcpset.c                       0x00000000   Number         0  rt_memcpy.o ABSOLUTE
    ../clib/misc.s                           0x00000000   Number         0  printf_stubs.o ABSOLUTE
    ../clib/printf.c                         0x00000000   Number         0  __printf_nopercent.o ABSOLUTE
    ../clib/printf.c                         0x00000000   Number         0  _printf_fp_hex.o ABSOLUTE
    ../clib/printf.c                         0x00000000   Number         0  _printf_fp_dec.o ABSOLUTE
    ../clib/printf.c                         0x00000000   Number         0  _printf_char.o ABSOLUTE
    ../clib/printf.c                         0x00000000   Number         0  _printf_pad.o ABSOLUTE
    ../clib/printf.c                         0x00000000   Number         0  __printf.o ABSOLUTE
    ../clib/printf.c                         0x00000000   Number         0  noretval__2sprintf.o ABSOLUTE
    ../clib/printf.c                         0x00000000   Number         0  __2sprintf.o ABSOLUTE
    ../clib/printf.c                         0x00000000   Number         0  vsprintf.o ABSOLUTE
    ../clib/printf.c                         0x00000000   Number         0  _printf_hex_ll.o ABSOLUTE
    ../clib/printf.c                         0x00000000   Number         0  _printf_hex_int.o ABSOLUTE
    ../clib/printf.c                         0x00000000   Number         0  _printf_hex_int_ll.o ABSOLUTE
    ../clib/printf.c                         0x00000000   Number         0  _printf_hex_ptr.o ABSOLUTE
    ../clib/printf.c                         0x00000000   Number         0  _printf_hex_int_ptr.o ABSOLUTE
    ../clib/printf.c                         0x00000000   Number         0  _printf_hex_ll_ptr.o ABSOLUTE
    ../clib/printf.c                         0x00000000   Number         0  _printf_hex_int_ll_ptr.o ABSOLUTE
    ../clib/printf.c                         0x00000000   Number         0  __printf_flags.o ABSOLUTE
    ../clib/printf.c                         0x00000000   Number         0  __printf_ss.o ABSOLUTE
    ../clib/printf.c                         0x00000000   Number         0  __printf_flags_ss.o ABSOLUTE
    ../clib/printf.c                         0x00000000   Number         0  __printf_wp.o ABSOLUTE
    ../clib/printf.c                         0x00000000   Number         0  __printf_flags_wp.o ABSOLUTE
    ../clib/printf.c                         0x00000000   Number         0  __printf_ss_wp.o ABSOLUTE
    ../clib/printf.c                         0x00000000   Number         0  __printf_flags_ss_wp.o ABSOLUTE
    ../clib/printf.c                         0x00000000   Number         0  _printf_oct_ll.o ABSOLUTE
    ../clib/printf.c                         0x00000000   Number         0  _printf_truncate.o ABSOLUTE
    ../clib/printf.c                         0x00000000   Number         0  _printf_oct_int.o ABSOLUTE
    ../clib/printf.c                         0x00000000   Number         0  _printf_str.o ABSOLUTE
    ../clib/printf.c                         0x00000000   Number         0  _printf_intcommon.o ABSOLUTE
    ../clib/printf.c                         0x00000000   Number         0  _printf_dec.o ABSOLUTE
    ../clib/printf.c                         0x00000000   Number         0  _printf_charcount.o ABSOLUTE
    ../clib/printf.c                         0x00000000   Number         0  _printf_char_common.o ABSOLUTE
    ../clib/printf.c                         0x00000000   Number         0  _sputc.o ABSOLUTE
    ../clib/printf.c                         0x00000000   Number         0  _printf_wctomb.o ABSOLUTE
    ../clib/printf.c                         0x00000000   Number         0  _printf_oct_int_ll.o ABSOLUTE
    ../clib/printf.c                         0x00000000   Number         0  _printf_fp_infnan.o ABSOLUTE
    ../clib/printf.c                         0x00000000   Number         0  _printf_longlong_dec.o ABSOLUTE
    ../clib/printf.c                         0x00000000   Number         0  _printf_wchar.o ABSOLUTE
    ../clib/printf_percent.s                 0x00000000   Number         0  _printf_llu.o ABSOLUTE
    ../clib/printf_percent.s                 0x00000000   Number         0  _printf_llx.o ABSOLUTE
    ../clib/printf_percent.s                 0x00000000   Number         0  _printf_i.o ABSOLUTE
    ../clib/printf_percent.s                 0x00000000   Number         0  _printf_d.o ABSOLUTE
    ../clib/printf_percent.s                 0x00000000   Number         0  _printf_lld.o ABSOLUTE
    ../clib/printf_percent.s                 0x00000000   Number         0  _printf_llo.o ABSOLUTE
    ../clib/printf_percent.s                 0x00000000   Number         0  _printf_percent_end.o ABSOLUTE
    ../clib/printf_percent.s                 0x00000000   Number         0  _printf_g.o ABSOLUTE
    ../clib/printf_percent.s                 0x00000000   Number         0  _printf_lli.o ABSOLUTE
    ../clib/printf_percent.s                 0x00000000   Number         0  _printf_percent.o ABSOLUTE
    ../clib/printf_percent.s                 0x00000000   Number         0  _printf_s.o ABSOLUTE
    ../clib/printf_percent.s                 0x00000000   Number         0  _printf_c.o ABSOLUTE
    ../clib/printf_percent.s                 0x00000000   Number         0  _printf_u.o ABSOLUTE
    ../clib/printf_percent.s                 0x00000000   Number         0  _printf_f.o ABSOLUTE
    ../clib/printf_percent.s                 0x00000000   Number         0  _printf_a.o ABSOLUTE
    ../clib/printf_percent.s                 0x00000000   Number         0  _printf_ls.o ABSOLUTE
    ../clib/printf_percent.s                 0x00000000   Number         0  _printf_e.o ABSOLUTE
    ../clib/printf_percent.s                 0x00000000   Number         0  _printf_lc.o ABSOLUTE
    ../clib/printf_percent.s                 0x00000000   Number         0  _printf_x.o ABSOLUTE
    ../clib/printf_percent.s                 0x00000000   Number         0  _printf_n.o ABSOLUTE
    ../clib/printf_percent.s                 0x00000000   Number         0  _printf_l.o ABSOLUTE
    ../clib/printf_percent.s                 0x00000000   Number         0  _printf_p.o ABSOLUTE
    ../clib/printf_percent.s                 0x00000000   Number         0  _printf_o.o ABSOLUTE
    ../clib/printf_percent.s                 0x00000000   Number         0  _printf_ll.o ABSOLUTE
    ../clib/signal.c                         0x00000000   Number         0  defsig_rtmem_inner.o ABSOLUTE
    ../clib/signal.c                         0x00000000   Number         0  defsig_rtmem_formal.o ABSOLUTE
    ../clib/signal.c                         0x00000000   Number         0  defsig_stak_inner.o ABSOLUTE
    ../clib/signal.c                         0x00000000   Number         0  defsig_rtmem_outer.o ABSOLUTE
    ../clib/signal.c                         0x00000000   Number         0  defsig_pvfn_inner.o ABSOLUTE
    ../clib/signal.c                         0x00000000   Number         0  defsig_cppl_inner.o ABSOLUTE
    ../clib/signal.c                         0x00000000   Number         0  defsig_segv_inner.o ABSOLUTE
    ../clib/signal.c                         0x00000000   Number         0  defsig_exit.o ABSOLUTE
    ../clib/signal.c                         0x00000000   Number         0  defsig_general.o ABSOLUTE
    ../clib/signal.c                         0x00000000   Number         0  defsig_fpe_inner.o ABSOLUTE
    ../clib/signal.c                         0x00000000   Number         0  defsig_fpe_outer.o ABSOLUTE
    ../clib/signal.c                         0x00000000   Number         0  defsig_fpe_formal.o ABSOLUTE
    ../clib/signal.c                         0x00000000   Number         0  defsig_other.o ABSOLUTE
    ../clib/signal.c                         0x00000000   Number         0  defsig_rtred_inner.o ABSOLUTE
    ../clib/signal.c                         0x00000000   Number         0  __raise.o ABSOLUTE
    ../clib/signal.c                         0x00000000   Number         0  defsig_abrt_inner.o ABSOLUTE
    ../clib/signal.s                         0x00000000   Number         0  defsig.o ABSOLUTE
    ../clib/stdlib.c                         0x00000000   Number         0  exit.o ABSOLUTE
    ../clib/string.c                         0x00000000   Number         0  strlen.o ABSOLUTE
    ../clib/string.c                         0x00000000   Number         0  strncmp.o ABSOLUTE
    ../clib/string.c                         0x00000000   Number         0  strcat.o ABSOLUTE
    ../clib/string.c                         0x00000000   Number         0  strcmp.o ABSOLUTE
    ../fplib/cfplib/fpinit.c                 0x00000000   Number         0  fpinit.o ABSOLUTE
    ../fplib/cfplib/ieee_status.c            0x00000000   Number         0  ieee_status.o ABSOLUTE
    ../fplib/printf1.s                       0x00000000   Number         0  printf1.o ABSOLUTE
    ../fplib/printf2.s                       0x00000000   Number         0  printf2.o ABSOLUTE
    ../fplib/printf2a.s                      0x00000000   Number         0  printf2a.o ABSOLUTE
    ../fplib/printf2b.s                      0x00000000   Number         0  printf2b.o ABSOLUTE
    ../fplib/usenofp.s                       0x00000000   Number         0  usenofp.o ABSOLUTE
    ../mathlib/fpclassify.c                  0x00000000   Number         0  fpclassify.o ABSOLUTE
    ..\Drivers\STM32G0xx_HAL_Driver\Src\stm32g0xx_hal.c 0x00000000   Number         0  stm32g0xx_hal.o ABSOLUTE
    ..\Drivers\STM32G0xx_HAL_Driver\Src\stm32g0xx_hal_cortex.c 0x00000000   Number         0  stm32g0xx_hal_cortex.o ABSOLUTE
    ..\Drivers\STM32G0xx_HAL_Driver\Src\stm32g0xx_hal_dma.c 0x00000000   Number         0  stm32g0xx_hal_dma.o ABSOLUTE
    ..\Drivers\STM32G0xx_HAL_Driver\Src\stm32g0xx_hal_dma_ex.c 0x00000000   Number         0  stm32g0xx_hal_dma_ex.o ABSOLUTE
    ..\Drivers\STM32G0xx_HAL_Driver\Src\stm32g0xx_hal_exti.c 0x00000000   Number         0  stm32g0xx_hal_exti.o ABSOLUTE
    ..\Drivers\STM32G0xx_HAL_Driver\Src\stm32g0xx_hal_flash.c 0x00000000   Number         0  stm32g0xx_hal_flash.o ABSOLUTE
    ..\Drivers\STM32G0xx_HAL_Driver\Src\stm32g0xx_hal_flash_ex.c 0x00000000   Number         0  stm32g0xx_hal_flash_ex.o ABSOLUTE
    ..\Drivers\STM32G0xx_HAL_Driver\Src\stm32g0xx_hal_gpio.c 0x00000000   Number         0  stm32g0xx_hal_gpio.o ABSOLUTE
    ..\Drivers\STM32G0xx_HAL_Driver\Src\stm32g0xx_hal_iwdg.c 0x00000000   Number         0  stm32g0xx_hal_iwdg.o ABSOLUTE
    ..\Drivers\STM32G0xx_HAL_Driver\Src\stm32g0xx_hal_pwr.c 0x00000000   Number         0  stm32g0xx_hal_pwr.o ABSOLUTE
    ..\Drivers\STM32G0xx_HAL_Driver\Src\stm32g0xx_hal_pwr_ex.c 0x00000000   Number         0  stm32g0xx_hal_pwr_ex.o ABSOLUTE
    ..\Drivers\STM32G0xx_HAL_Driver\Src\stm32g0xx_hal_rcc.c 0x00000000   Number         0  stm32g0xx_hal_rcc.o ABSOLUTE
    ..\Drivers\STM32G0xx_HAL_Driver\Src\stm32g0xx_hal_rcc_ex.c 0x00000000   Number         0  stm32g0xx_hal_rcc_ex.o ABSOLUTE
    ..\Drivers\STM32G0xx_HAL_Driver\Src\stm32g0xx_hal_rtc.c 0x00000000   Number         0  stm32g0xx_hal_rtc.o ABSOLUTE
    ..\Drivers\STM32G0xx_HAL_Driver\Src\stm32g0xx_hal_rtc_ex.c 0x00000000   Number         0  stm32g0xx_hal_rtc_ex.o ABSOLUTE
    ..\Drivers\STM32G0xx_HAL_Driver\Src\stm32g0xx_hal_tim.c 0x00000000   Number         0  stm32g0xx_hal_tim.o ABSOLUTE
    ..\Drivers\STM32G0xx_HAL_Driver\Src\stm32g0xx_hal_tim_ex.c 0x00000000   Number         0  stm32g0xx_hal_tim_ex.o ABSOLUTE
    ..\Drivers\STM32G0xx_HAL_Driver\Src\stm32g0xx_hal_uart.c 0x00000000   Number         0  stm32g0xx_hal_uart.o ABSOLUTE
    ..\Drivers\STM32G0xx_HAL_Driver\Src\stm32g0xx_hal_uart_ex.c 0x00000000   Number         0  stm32g0xx_hal_uart_ex.o ABSOLUTE
    ..\Src\dma.c                             0x00000000   Number         0  dma.o ABSOLUTE
    ..\Src\gpio.c                            0x00000000   Number         0  gpio.o ABSOLUTE
    ..\Src\iwdg.c                            0x00000000   Number         0  iwdg.o ABSOLUTE
    ..\Src\main.c                            0x00000000   Number         0  main.o ABSOLUTE
    ..\Src\rtc.c                             0x00000000   Number         0  rtc.o ABSOLUTE
    ..\Src\stm32g0xx_hal_msp.c               0x00000000   Number         0  stm32g0xx_hal_msp.o ABSOLUTE
    ..\Src\stm32g0xx_it.c                    0x00000000   Number         0  stm32g0xx_it.o ABSOLUTE
    ..\Src\system_stm32g0xx.c                0x00000000   Number         0  system_stm32g0xx.o ABSOLUTE
    ..\Src\tim.c                             0x00000000   Number         0  tim.o ABSOLUTE
    ..\Src\usart.c                           0x00000000   Number         0  usart.o ABSOLUTE
    ..\\hardware\\IIC.c                      0x00000000   Number         0  iic.o ABSOLUTE
    ..\\module\\Modbus.c                     0x00000000   Number         0  modbus.o ABSOLUTE
    ..\\module\\Uart_Com.c                   0x00000000   Number         0  uart_com.o ABSOLUTE
    ..\\module\\keyinput.c                   0x00000000   Number         0  keyinput.o ABSOLUTE
    ..\\module\\led.c                        0x00000000   Number         0  led.o ABSOLUTE
    ..\\module\\systemstatus.c               0x00000000   Number         0  systemstatus.o ABSOLUTE
    ..\\sys\\Task.c                          0x00000000   Number         0  task.o ABSOLUTE
    ..\hardware\IIC.c                        0x00000000   Number         0  iic.o ABSOLUTE
    ..\module\Modbus.c                       0x00000000   Number         0  modbus.o ABSOLUTE
    ..\module\Uart_Com.c                     0x00000000   Number         0  uart_com.o ABSOLUTE
    ..\module\keyinput.c                     0x00000000   Number         0  keyinput.o ABSOLUTE
    ..\module\led.c                          0x00000000   Number         0  led.o ABSOLUTE
    ..\module\systemstatus.c                 0x00000000   Number         0  systemstatus.o ABSOLUTE
    ..\sys\Task.c                            0x00000000   Number         0  task.o ABSOLUTE
    dc.s                                     0x00000000   Number         0  dc.o ABSOLUTE
    startup_stm32g030xx.s                    0x00000000   Number         0  startup_stm32g030xx.o ABSOLUTE
    RESET                                    0x08000000   Section      192  startup_stm32g030xx.o(RESET)
    !!!main                                  0x080000c0   Section        8  __main.o(!!!main)
    !!!scatter                               0x080000c8   Section       60  __scatter.o(!!!scatter)
    !!handler_copy                           0x08000104   Section       26  __scatter_copy.o(!!handler_copy)
    !!handler_zi                             0x08000120   Section       28  __scatter_zi.o(!!handler_zi)
    .ARM.Collect$$_printf_percent$$00000000  0x0800013c   Section        2  _printf_percent.o(.ARM.Collect$$_printf_percent$$00000000)
    .ARM.Collect$$_printf_percent$$00000001  0x0800013e   Section       10  _printf_n.o(.ARM.Collect$$_printf_percent$$00000001)
    .ARM.Collect$$_printf_percent$$00000002  0x08000148   Section       10  _printf_p.o(.ARM.Collect$$_printf_percent$$00000002)
    .ARM.Collect$$_printf_percent$$00000003  0x08000152   Section       10  _printf_f.o(.ARM.Collect$$_printf_percent$$00000003)
    .ARM.Collect$$_printf_percent$$00000004  0x0800015c   Section       10  _printf_e.o(.ARM.Collect$$_printf_percent$$00000004)
    .ARM.Collect$$_printf_percent$$00000005  0x08000166   Section       10  _printf_g.o(.ARM.Collect$$_printf_percent$$00000005)
    .ARM.Collect$$_printf_percent$$00000006  0x08000170   Section       10  _printf_a.o(.ARM.Collect$$_printf_percent$$00000006)
    .ARM.Collect$$_printf_percent$$00000007  0x0800017a   Section       10  _printf_ll.o(.ARM.Collect$$_printf_percent$$00000007)
    .ARM.Collect$$_printf_percent$$00000008  0x08000184   Section       10  _printf_i.o(.ARM.Collect$$_printf_percent$$00000008)
    .ARM.Collect$$_printf_percent$$00000009  0x0800018e   Section       10  _printf_d.o(.ARM.Collect$$_printf_percent$$00000009)
    .ARM.Collect$$_printf_percent$$0000000A  0x08000198   Section       10  _printf_u.o(.ARM.Collect$$_printf_percent$$0000000A)
    .ARM.Collect$$_printf_percent$$0000000B  0x080001a2   Section       10  _printf_o.o(.ARM.Collect$$_printf_percent$$0000000B)
    .ARM.Collect$$_printf_percent$$0000000C  0x080001ac   Section       10  _printf_x.o(.ARM.Collect$$_printf_percent$$0000000C)
    .ARM.Collect$$_printf_percent$$0000000D  0x080001b6   Section       10  _printf_lli.o(.ARM.Collect$$_printf_percent$$0000000D)
    .ARM.Collect$$_printf_percent$$0000000E  0x080001c0   Section       10  _printf_lld.o(.ARM.Collect$$_printf_percent$$0000000E)
    .ARM.Collect$$_printf_percent$$0000000F  0x080001ca   Section       10  _printf_llu.o(.ARM.Collect$$_printf_percent$$0000000F)
    .ARM.Collect$$_printf_percent$$00000010  0x080001d4   Section       10  _printf_llo.o(.ARM.Collect$$_printf_percent$$00000010)
    .ARM.Collect$$_printf_percent$$00000011  0x080001de   Section       10  _printf_llx.o(.ARM.Collect$$_printf_percent$$00000011)
    .ARM.Collect$$_printf_percent$$00000012  0x080001e8   Section       10  _printf_l.o(.ARM.Collect$$_printf_percent$$00000012)
    .ARM.Collect$$_printf_percent$$00000013  0x080001f2   Section       10  _printf_c.o(.ARM.Collect$$_printf_percent$$00000013)
    .ARM.Collect$$_printf_percent$$00000014  0x080001fc   Section       10  _printf_s.o(.ARM.Collect$$_printf_percent$$00000014)
    .ARM.Collect$$_printf_percent$$00000015  0x08000206   Section       10  _printf_lc.o(.ARM.Collect$$_printf_percent$$00000015)
    .ARM.Collect$$_printf_percent$$00000016  0x08000210   Section       10  _printf_ls.o(.ARM.Collect$$_printf_percent$$00000016)
    .ARM.Collect$$_printf_percent$$00000017  0x0800021a   Section        4  _printf_percent_end.o(.ARM.Collect$$_printf_percent$$00000017)
    .ARM.Collect$$libinit$$00000000          0x0800021e   Section        2  libinit.o(.ARM.Collect$$libinit$$00000000)
    .ARM.Collect$$libinit$$00000002          0x08000220   Section        0  libinit2.o(.ARM.Collect$$libinit$$00000002)
    .ARM.Collect$$libinit$$00000004          0x08000220   Section        0  libinit2.o(.ARM.Collect$$libinit$$00000004)
    .ARM.Collect$$libinit$$0000000A          0x08000220   Section        0  libinit2.o(.ARM.Collect$$libinit$$0000000A)
    .ARM.Collect$$libinit$$0000000C          0x08000220   Section        0  libinit2.o(.ARM.Collect$$libinit$$0000000C)
    .ARM.Collect$$libinit$$0000000E          0x08000220   Section        0  libinit2.o(.ARM.Collect$$libinit$$0000000E)
    .ARM.Collect$$libinit$$0000000F          0x08000220   Section        6  libinit2.o(.ARM.Collect$$libinit$$0000000F)
    .ARM.Collect$$libinit$$00000011          0x08000226   Section        0  libinit2.o(.ARM.Collect$$libinit$$00000011)
    .ARM.Collect$$libinit$$00000012          0x08000226   Section       12  libinit2.o(.ARM.Collect$$libinit$$00000012)
    .ARM.Collect$$libinit$$00000013          0x08000232   Section        0  libinit2.o(.ARM.Collect$$libinit$$00000013)
    .ARM.Collect$$libinit$$00000015          0x08000232   Section        0  libinit2.o(.ARM.Collect$$libinit$$00000015)
    .ARM.Collect$$libinit$$00000016          0x08000232   Section       10  libinit2.o(.ARM.Collect$$libinit$$00000016)
    .ARM.Collect$$libinit$$00000017          0x0800023c   Section        0  libinit2.o(.ARM.Collect$$libinit$$00000017)
    .ARM.Collect$$libinit$$00000019          0x0800023c   Section        0  libinit2.o(.ARM.Collect$$libinit$$00000019)
    .ARM.Collect$$libinit$$0000001B          0x0800023c   Section        0  libinit2.o(.ARM.Collect$$libinit$$0000001B)
    .ARM.Collect$$libinit$$0000001D          0x0800023c   Section        0  libinit2.o(.ARM.Collect$$libinit$$0000001D)
    .ARM.Collect$$libinit$$0000001F          0x0800023c   Section        0  libinit2.o(.ARM.Collect$$libinit$$0000001F)
    .ARM.Collect$$libinit$$00000021          0x0800023c   Section        0  libinit2.o(.ARM.Collect$$libinit$$00000021)
    .ARM.Collect$$libinit$$00000023          0x0800023c   Section        0  libinit2.o(.ARM.Collect$$libinit$$00000023)
    .ARM.Collect$$libinit$$00000025          0x0800023c   Section        0  libinit2.o(.ARM.Collect$$libinit$$00000025)
    .ARM.Collect$$libinit$$0000002C          0x0800023c   Section        0  libinit2.o(.ARM.Collect$$libinit$$0000002C)
    .ARM.Collect$$libinit$$0000002E          0x0800023c   Section        0  libinit2.o(.ARM.Collect$$libinit$$0000002E)
    .ARM.Collect$$libinit$$00000030          0x0800023c   Section        0  libinit2.o(.ARM.Collect$$libinit$$00000030)
    .ARM.Collect$$libinit$$00000032          0x0800023c   Section        0  libinit2.o(.ARM.Collect$$libinit$$00000032)
    .ARM.Collect$$libinit$$00000033          0x0800023c   Section        2  libinit2.o(.ARM.Collect$$libinit$$00000033)
    .ARM.Collect$$libshutdown$$00000000      0x0800023e   Section        2  libshutdown.o(.ARM.Collect$$libshutdown$$00000000)
    .ARM.Collect$$libshutdown$$00000002      0x08000240   Section        0  libshutdown2.o(.ARM.Collect$$libshutdown$$00000002)
    .ARM.Collect$$libshutdown$$00000004      0x08000240   Section        0  libshutdown2.o(.ARM.Collect$$libshutdown$$00000004)
    .ARM.Collect$$libshutdown$$00000006      0x08000240   Section        0  libshutdown2.o(.ARM.Collect$$libshutdown$$00000006)
    .ARM.Collect$$libshutdown$$00000009      0x08000240   Section        0  libshutdown2.o(.ARM.Collect$$libshutdown$$00000009)
    .ARM.Collect$$libshutdown$$0000000C      0x08000240   Section        0  libshutdown2.o(.ARM.Collect$$libshutdown$$0000000C)
    .ARM.Collect$$libshutdown$$0000000E      0x08000240   Section        0  libshutdown2.o(.ARM.Collect$$libshutdown$$0000000E)
    .ARM.Collect$$libshutdown$$00000011      0x08000240   Section        0  libshutdown2.o(.ARM.Collect$$libshutdown$$00000011)
    .ARM.Collect$$libshutdown$$00000012      0x08000240   Section        2  libshutdown2.o(.ARM.Collect$$libshutdown$$00000012)
    .ARM.Collect$$rtentry$$00000000          0x08000242   Section        0  __rtentry.o(.ARM.Collect$$rtentry$$00000000)
    .ARM.Collect$$rtentry$$00000002          0x08000242   Section        0  __rtentry2.o(.ARM.Collect$$rtentry$$00000002)
    .ARM.Collect$$rtentry$$00000004          0x08000242   Section        6  __rtentry4.o(.ARM.Collect$$rtentry$$00000004)
    .ARM.Collect$$rtentry$$00000009          0x08000248   Section        0  __rtentry2.o(.ARM.Collect$$rtentry$$00000009)
    .ARM.Collect$$rtentry$$0000000A          0x08000248   Section        4  __rtentry2.o(.ARM.Collect$$rtentry$$0000000A)
    .ARM.Collect$$rtentry$$0000000C          0x0800024c   Section        0  __rtentry2.o(.ARM.Collect$$rtentry$$0000000C)
    .ARM.Collect$$rtentry$$0000000D          0x0800024c   Section        8  __rtentry2.o(.ARM.Collect$$rtentry$$0000000D)
    .ARM.Collect$$rtexit$$00000000           0x08000254   Section        2  rtexit.o(.ARM.Collect$$rtexit$$00000000)
    .ARM.Collect$$rtexit$$00000002           0x08000256   Section        0  rtexit2.o(.ARM.Collect$$rtexit$$00000002)
    .ARM.Collect$$rtexit$$00000003           0x08000256   Section        4  rtexit2.o(.ARM.Collect$$rtexit$$00000003)
    .ARM.Collect$$rtexit$$00000004           0x0800025a   Section        6  rtexit2.o(.ARM.Collect$$rtexit$$00000004)
    .emb_text                                0x08000260   Section       56  rt_memcpy.o(.emb_text)
    .text                                    0x08000298   Section       56  startup_stm32g030xx.o(.text)
    .text                                    0x080002d0   Section        0  vsprintf.o(.text)
    .text                                    0x080002f4   Section        0  __2sprintf.o(.text)
    .text                                    0x08000320   Section        0  _printf_pad.o(.text)
    .text                                    0x08000370   Section        0  _printf_hex_int_ll_ptr.o(.text)
    _printf_hex_common                       0x08000371   Thumb Code     0  _printf_hex_int_ll_ptr.o(.text)
    .text                                    0x08000408   Section        0  __printf_flags_ss_wp.o(.text)
    .text                                    0x08000590   Section        0  strlen.o(.text)
    .text                                    0x080005d4   Section        0  strncmp.o(.text)
    .text                                    0x08000674   Section        0  strcat.o(.text)
    .text                                    0x0800068c   Section        0  rt_memcpy.o(.text)
    .text                                    0x0800070e   Section        0  rt_memclr.o(.text)
    .text                                    0x08000750   Section        0  strcmp.o(.text)
    .text                                    0x080007d8   Section      346  aeabi_sdiv.o(.text)
    .text                                    0x08000932   Section        0  heapauxi.o(.text)
    .text                                    0x08000938   Section        0  _printf_truncate.o(.text)
    .text                                    0x0800095c   Section        0  _printf_str.o(.text)
    .text                                    0x080009ae   Section        0  _printf_intcommon.o(.text)
    .text                                    0x08000a60   Section        0  _printf_dec.o(.text)
    .text                                    0x08000acc   Section        0  _printf_charcount.o(.text)
    .text                                    0x08000af4   Section        0  _printf_char_common.o(.text)
    _printf_input_char                       0x08000af5   Thumb Code    10  _printf_char_common.o(.text)
    .text                                    0x08000b24   Section        0  _sputc.o(.text)
    .text                                    0x08000b30   Section        0  _printf_wctomb.o(.text)
    .text                                    0x08000bec   Section        0  _printf_longlong_dec.o(.text)
    .text                                    0x08000c5c   Section        0  _printf_oct_int_ll.o(.text)
    _printf_longlong_oct_internal            0x08000c5d   Thumb Code     0  _printf_oct_int_ll.o(.text)
    .text                                    0x08000ccc   Section        0  lludiv10.o(.text)
    .text                                    0x08000d48   Section        0  _printf_fp_dec.o(.text)
    _fp_digits                               0x08000d4b   Thumb Code   412  _printf_fp_dec.o(.text)
    .text                                    0x08001160   Section        0  _printf_fp_hex.o(.text)
    .text                                    0x08001438   Section        0  _printf_char.o(.text)
    .text                                    0x08001466   Section        0  _printf_wchar.o(.text)
    .text                                    0x08001494   Section        0  _wcrtomb.o(.text)
    .text                                    0x080014d4   Section        0  rtudiv10.o(.text)
    .text                                    0x080014fc   Section       62  sys_stackheap_outer.o(.text)
    .text                                    0x0800153c   Section       16  rt_ctype_table.o(.text)
    .text                                    0x0800154c   Section        8  rt_locale_intlibspace.o(.text)
    .text                                    0x08001554   Section        0  _printf_fp_infnan.o(.text)
    .text                                    0x080015dc   Section        0  bigflt0.o(.text)
    .text                                    0x080016b4   Section        0  btod.o(.text)
    btod_internal_mul                        0x080016f5   Thumb Code   492  btod.o(.text)
    btod_internal_div                        0x080018e1   Thumb Code   520  btod.o(.text)
    .text                                    0x08001c34   Section        0  exit.o(.text)
    .text                                    0x08001c44   Section        8  libspace.o(.text)
    .text                                    0x08001c4c   Section        0  sys_exit.o(.text)
    .text                                    0x08001c58   Section        2  use_no_semi.o(.text)
    .text                                    0x08001c5a   Section        0  indicate_semi.o(.text)
    i.BSP_LED8910_Off                        0x08001c5c   Section        0  led.o(i.BSP_LED8910_Off)
    i.BSP_LED8910_On                         0x08001c7c   Section        0  led.o(i.BSP_LED8910_On)
    i.BSP_LED_Off                            0x08001c9c   Section        0  led.o(i.BSP_LED_Off)
    i.BSP_LED_On                             0x08001cbc   Section        0  led.o(i.BSP_LED_On)
    i.BSP_LED_Toggle                         0x08001cdc   Section        0  led.o(i.BSP_LED_Toggle)
    i.CMDSendData                            0x08001cf8   Section        0  usart.o(i.CMDSendData)
    i.CalculateTime                          0x08001d30   Section        0  tim.o(i.CalculateTime)
    i.Calculate_CRC16                        0x08001d40   Section        0  modbus.o(i.Calculate_CRC16)
    i.ClearCmdBuff                           0x08001d7c   Section        0  usart.o(i.ClearCmdBuff)
    i.ClearDebugBuff                         0x08001d9c   Section        0  usart.o(i.ClearDebugBuff)
    i.ComProcess                             0x08001dbc   Section        0  uart_com.o(i.ComProcess)
    i.DMA1_Ch4_5_DMAMUX1_OVR_IRQHandler      0x08001e54   Section        0  stm32g0xx_it.o(i.DMA1_Ch4_5_DMAMUX1_OVR_IRQHandler)
    i.DMA1_Channel1_IRQHandler               0x08001e64   Section        0  stm32g0xx_it.o(i.DMA1_Channel1_IRQHandler)
    i.DMA1_Channel2_3_IRQHandler             0x08001e74   Section        0  stm32g0xx_it.o(i.DMA1_Channel2_3_IRQHandler)
    i.DMA_CalcDMAMUXChannelBaseAndMask       0x08001e8c   Section        0  stm32g0xx_hal_dma.o(i.DMA_CalcDMAMUXChannelBaseAndMask)
    DMA_CalcDMAMUXChannelBaseAndMask         0x08001e8d   Thumb Code    44  stm32g0xx_hal_dma.o(i.DMA_CalcDMAMUXChannelBaseAndMask)
    i.DMA_CalcDMAMUXRequestGenBaseAndMask    0x08001ebc   Section        0  stm32g0xx_hal_dma.o(i.DMA_CalcDMAMUXRequestGenBaseAndMask)
    DMA_CalcDMAMUXRequestGenBaseAndMask      0x08001ebd   Thumb Code    34  stm32g0xx_hal_dma.o(i.DMA_CalcDMAMUXRequestGenBaseAndMask)
    i.DMA_SetConfig                          0x08001ee4   Section        0  stm32g0xx_hal_dma.o(i.DMA_SetConfig)
    DMA_SetConfig                            0x08001ee5   Thumb Code    66  stm32g0xx_hal_dma.o(i.DMA_SetConfig)
    i.DebugShowHex                           0x08001f2c   Section        0  uart_com.o(i.DebugShowHex)
    i.Error_Handler                          0x08001f74   Section        0  main.o(i.Error_Handler)
    i.GetSystem1msCount                      0x08001f78   Section        0  tim.o(i.GetSystem1msCount)
    i.GetTIM1Count                           0x08001f84   Section        0  tim.o(i.GetTIM1Count)
    i.HAL_DMA_Abort                          0x08001f9c   Section        0  stm32g0xx_hal_dma.o(i.HAL_DMA_Abort)
    i.HAL_DMA_Abort_IT                       0x08002010   Section        0  stm32g0xx_hal_dma.o(i.HAL_DMA_Abort_IT)
    i.HAL_DMA_GetError                       0x0800208c   Section        0  stm32g0xx_hal_dma.o(i.HAL_DMA_GetError)
    i.HAL_DMA_GetState                       0x08002090   Section        0  stm32g0xx_hal_dma.o(i.HAL_DMA_GetState)
    i.HAL_DMA_IRQHandler                     0x08002098   Section        0  stm32g0xx_hal_dma.o(i.HAL_DMA_IRQHandler)
    i.HAL_DMA_Init                           0x08002150   Section        0  stm32g0xx_hal_dma.o(i.HAL_DMA_Init)
    i.HAL_DMA_Start_IT                       0x080021f4   Section        0  stm32g0xx_hal_dma.o(i.HAL_DMA_Start_IT)
    i.HAL_Delay                              0x08002280   Section        0  stm32g0xx_hal.o(i.HAL_Delay)
    i.HAL_GPIO_Init                          0x080022a4   Section        0  stm32g0xx_hal_gpio.o(i.HAL_GPIO_Init)
    i.HAL_GPIO_TogglePin                     0x08002400   Section        0  stm32g0xx_hal_gpio.o(i.HAL_GPIO_TogglePin)
    i.HAL_GPIO_WritePin                      0x08002410   Section        0  stm32g0xx_hal_gpio.o(i.HAL_GPIO_WritePin)
    i.HAL_GetTick                            0x0800241c   Section        0  stm32g0xx_hal.o(i.HAL_GetTick)
    i.HAL_IWDG_Init                          0x08002428   Section        0  stm32g0xx_hal_iwdg.o(i.HAL_IWDG_Init)
    i.HAL_IWDG_Refresh                       0x0800248c   Section        0  stm32g0xx_hal_iwdg.o(i.HAL_IWDG_Refresh)
    i.HAL_IncTick                            0x0800249c   Section        0  stm32g0xx_hal.o(i.HAL_IncTick)
    i.HAL_Init                               0x080024ac   Section        0  stm32g0xx_hal.o(i.HAL_Init)
    i.HAL_InitTick                           0x080024d4   Section        0  stm32g0xx_hal.o(i.HAL_InitTick)
    i.HAL_MspInit                            0x0800251c   Section        0  stm32g0xx_hal_msp.o(i.HAL_MspInit)
    i.HAL_NVIC_EnableIRQ                     0x08002554   Section        0  stm32g0xx_hal_cortex.o(i.HAL_NVIC_EnableIRQ)
    i.HAL_NVIC_SetPriority                   0x0800256c   Section        0  stm32g0xx_hal_cortex.o(i.HAL_NVIC_SetPriority)
    i.HAL_PWREx_ControlVoltageScaling        0x08002574   Section        0  stm32g0xx_hal_pwr_ex.o(i.HAL_PWREx_ControlVoltageScaling)
    i.HAL_RCCEx_PeriphCLKConfig              0x080025c0   Section        0  stm32g0xx_hal_rcc_ex.o(i.HAL_RCCEx_PeriphCLKConfig)
    i.HAL_RCC_ClockConfig                    0x0800270c   Section        0  stm32g0xx_hal_rcc.o(i.HAL_RCC_ClockConfig)
    i.HAL_RCC_GetPCLK1Freq                   0x08002864   Section        0  stm32g0xx_hal_rcc.o(i.HAL_RCC_GetPCLK1Freq)
    i.HAL_RCC_GetSysClockFreq                0x0800288c   Section        0  stm32g0xx_hal_rcc.o(i.HAL_RCC_GetSysClockFreq)
    i.HAL_RCC_OscConfig                      0x08002918   Section        0  stm32g0xx_hal_rcc.o(i.HAL_RCC_OscConfig)
    i.HAL_RTCEx_AlarmBEventCallback          0x08002cf8   Section        0  stm32g0xx_hal_rtc_ex.o(i.HAL_RTCEx_AlarmBEventCallback)
    i.HAL_RTC_AlarmAEventCallback            0x08002cfc   Section        0  rtc.o(i.HAL_RTC_AlarmAEventCallback)
    i.HAL_RTC_AlarmIRQHandler                0x08002d24   Section        0  stm32g0xx_hal_rtc.o(i.HAL_RTC_AlarmIRQHandler)
    i.HAL_RTC_Init                           0x08002d68   Section        0  stm32g0xx_hal_rtc.o(i.HAL_RTC_Init)
    i.HAL_RTC_MspInit                        0x08002e0c   Section        0  rtc.o(i.HAL_RTC_MspInit)
    i.HAL_RTC_SetAlarm_IT                    0x08002e50   Section        0  stm32g0xx_hal_rtc.o(i.HAL_RTC_SetAlarm_IT)
    i.HAL_RTC_SetDate                        0x08002fd0   Section        0  stm32g0xx_hal_rtc.o(i.HAL_RTC_SetDate)
    i.HAL_RTC_SetTime                        0x0800306c   Section        0  stm32g0xx_hal_rtc.o(i.HAL_RTC_SetTime)
    i.HAL_RTC_WaitForSynchro                 0x0800312c   Section        0  stm32g0xx_hal_rtc.o(i.HAL_RTC_WaitForSynchro)
    i.HAL_SYSCFG_EnableRemap                 0x08003160   Section        0  stm32g0xx_hal.o(i.HAL_SYSCFG_EnableRemap)
    i.HAL_SYSTICK_Config                     0x08003170   Section        0  stm32g0xx_hal_cortex.o(i.HAL_SYSTICK_Config)
    i.HAL_TIMEx_Break2Callback               0x080031a0   Section        0  stm32g0xx_hal_tim_ex.o(i.HAL_TIMEx_Break2Callback)
    i.HAL_TIMEx_BreakCallback                0x080031a2   Section        0  stm32g0xx_hal_tim_ex.o(i.HAL_TIMEx_BreakCallback)
    i.HAL_TIMEx_CommutCallback               0x080031a4   Section        0  stm32g0xx_hal_tim_ex.o(i.HAL_TIMEx_CommutCallback)
    i.HAL_TIMEx_MasterConfigSynchronization  0x080031a8   Section        0  stm32g0xx_hal_tim_ex.o(i.HAL_TIMEx_MasterConfigSynchronization)
    i.HAL_TIM_Base_Init                      0x0800320c   Section        0  stm32g0xx_hal_tim.o(i.HAL_TIM_Base_Init)
    i.HAL_TIM_Base_MspInit                   0x08003258   Section        0  tim.o(i.HAL_TIM_Base_MspInit)
    i.HAL_TIM_Base_Start                     0x08003348   Section        0  stm32g0xx_hal_tim.o(i.HAL_TIM_Base_Start)
    i.HAL_TIM_Base_Start_IT                  0x08003390   Section        0  stm32g0xx_hal_tim.o(i.HAL_TIM_Base_Start_IT)
    i.HAL_TIM_IC_CaptureCallback             0x080033e0   Section        0  stm32g0xx_hal_tim.o(i.HAL_TIM_IC_CaptureCallback)
    i.HAL_TIM_IC_Start                       0x080033e4   Section        0  stm32g0xx_hal_tim.o(i.HAL_TIM_IC_Start)
    i.HAL_TIM_IRQHandler                     0x080034a4   Section        0  stm32g0xx_hal_tim.o(i.HAL_TIM_IRQHandler)
    i.HAL_TIM_OC_DelayElapsedCallback        0x08003628   Section        0  stm32g0xx_hal_tim.o(i.HAL_TIM_OC_DelayElapsedCallback)
    i.HAL_TIM_PWM_PulseFinishedCallback      0x0800362a   Section        0  stm32g0xx_hal_tim.o(i.HAL_TIM_PWM_PulseFinishedCallback)
    i.HAL_TIM_PeriodElapsedCallback          0x0800362c   Section        0  tim.o(i.HAL_TIM_PeriodElapsedCallback)
    i.HAL_TIM_SlaveConfigSynchro             0x08003648   Section        0  stm32g0xx_hal_tim.o(i.HAL_TIM_SlaveConfigSynchro)
    i.HAL_TIM_TriggerCallback                0x08003694   Section        0  stm32g0xx_hal_tim.o(i.HAL_TIM_TriggerCallback)
    i.HAL_UARTEx_EnableFifoMode              0x08003696   Section        0  stm32g0xx_hal_uart_ex.o(i.HAL_UARTEx_EnableFifoMode)
    i.HAL_UARTEx_RxEventCallback             0x080036d4   Section        0  stm32g0xx_hal_uart.o(i.HAL_UARTEx_RxEventCallback)
    i.HAL_UARTEx_RxFifoFullCallback          0x080036d6   Section        0  stm32g0xx_hal_uart_ex.o(i.HAL_UARTEx_RxFifoFullCallback)
    i.HAL_UARTEx_SetRxFifoThreshold          0x080036d8   Section        0  stm32g0xx_hal_uart_ex.o(i.HAL_UARTEx_SetRxFifoThreshold)
    i.HAL_UARTEx_SetTxFifoThreshold          0x08003720   Section        0  stm32g0xx_hal_uart_ex.o(i.HAL_UARTEx_SetTxFifoThreshold)
    i.HAL_UARTEx_TxFifoEmptyCallback         0x08003766   Section        0  stm32g0xx_hal_uart_ex.o(i.HAL_UARTEx_TxFifoEmptyCallback)
    i.HAL_UARTEx_WakeupCallback              0x08003768   Section        0  stm32g0xx_hal_uart_ex.o(i.HAL_UARTEx_WakeupCallback)
    i.HAL_UART_DMAStop                       0x0800376a   Section        0  stm32g0xx_hal_uart.o(i.HAL_UART_DMAStop)
    i.HAL_UART_ErrorCallback                 0x080037e8   Section        0  stm32g0xx_hal_uart.o(i.HAL_UART_ErrorCallback)
    i.HAL_UART_IRQHandler                    0x080037ec   Section        0  stm32g0xx_hal_uart.o(i.HAL_UART_IRQHandler)
    i.HAL_UART_Init                          0x08003a50   Section        0  stm32g0xx_hal_uart.o(i.HAL_UART_Init)
    i.HAL_UART_MspInit                       0x08003abc   Section        0  usart.o(i.HAL_UART_MspInit)
    i.HAL_UART_Receive_DMA                   0x08003c7c   Section        0  stm32g0xx_hal_uart.o(i.HAL_UART_Receive_DMA)
    i.HAL_UART_RxCpltCallback                0x08003cc0   Section        0  stm32g0xx_hal_uart.o(i.HAL_UART_RxCpltCallback)
    i.HAL_UART_RxHalfCpltCallback            0x08003cc2   Section        0  stm32g0xx_hal_uart.o(i.HAL_UART_RxHalfCpltCallback)
    i.HAL_UART_Transmit_DMA                  0x08003cc4   Section        0  stm32g0xx_hal_uart.o(i.HAL_UART_Transmit_DMA)
    i.HAL_UART_TxCpltCallback                0x08003d70   Section        0  stm32g0xx_hal_uart.o(i.HAL_UART_TxCpltCallback)
    i.HAL_UART_TxHalfCpltCallback            0x08003d72   Section        0  stm32g0xx_hal_uart.o(i.HAL_UART_TxHalfCpltCallback)
    i.HardFault_Handler                      0x08003d74   Section        0  stm32g0xx_it.o(i.HardFault_Handler)
    i.LEDShowCommunicationChannel            0x08003d78   Section        0  systemstatus.o(i.LEDShowCommunicationChannel)
    i.MX_DMA_Init                            0x08003de4   Section        0  dma.o(i.MX_DMA_Init)
    i.MX_GPIO_Init                           0x08003e2c   Section        0  gpio.o(i.MX_GPIO_Init)
    i.MX_IWDG_Init                           0x08003eac   Section        0  iwdg.o(i.MX_IWDG_Init)
    i.MX_RTC_Init                            0x08003ed8   Section        0  rtc.o(i.MX_RTC_Init)
    i.MX_TIM14_Init                          0x08003fa4   Section        0  tim.o(i.MX_TIM14_Init)
    i.MX_TIM16_Init                          0x08003fd8   Section        0  tim.o(i.MX_TIM16_Init)
    i.MX_TIM1_Init                           0x0800400c   Section        0  tim.o(i.MX_TIM1_Init)
    i.MX_TIM3_Init                           0x08004088   Section        0  tim.o(i.MX_TIM3_Init)
    i.MX_USART1_UART_Init                    0x08004100   Section        0  usart.o(i.MX_USART1_UART_Init)
    i.MX_USART2_UART_Init                    0x08004168   Section        0  usart.o(i.MX_USART2_UART_Init)
    i.NMI_Handler                            0x080041a4   Section        0  stm32g0xx_it.o(i.NMI_Handler)
    i.OnRec485Data                           0x080041a8   Section        0  modbus.o(i.OnRec485Data)
    i.PendSV_Handler                         0x0800423c   Section        0  stm32g0xx_it.o(i.PendSV_Handler)
    i.RTC_ByteToBcd2                         0x0800423e   Section        0  stm32g0xx_hal_rtc.o(i.RTC_ByteToBcd2)
    i.RTC_EnterInitMode                      0x08004256   Section        0  stm32g0xx_hal_rtc.o(i.RTC_EnterInitMode)
    i.RTC_ExitInitMode                       0x0800429c   Section        0  stm32g0xx_hal_rtc.o(i.RTC_ExitInitMode)
    i.RTC_TAMP_IRQHandler                    0x080042ec   Section        0  stm32g0xx_it.o(i.RTC_TAMP_IRQHandler)
    i.ResponseSetLEDStatusAck                0x080042fc   Section        0  modbus.o(i.ResponseSetLEDStatusAck)
    i.SVC_Handler                            0x08004328   Section        0  stm32g0xx_it.o(i.SVC_Handler)
    i.SetLEDStatus                           0x0800432c   Section        0  systemstatus.o(i.SetLEDStatus)
    i.SysTick_Handler                        0x0800434c   Section        0  stm32g0xx_it.o(i.SysTick_Handler)
    i.SystemClock_Config                     0x08004354   Section        0  main.o(i.SystemClock_Config)
    i.SystemInit                             0x080043d0   Section        0  system_stm32g0xx.o(i.SystemInit)
    i.TIM14_IRQHandler                       0x080043e0   Section        0  stm32g0xx_it.o(i.TIM14_IRQHandler)
    i.TIM1_BRK_UP_TRG_COM_IRQHandler         0x080043f0   Section        0  tim.o(i.TIM1_BRK_UP_TRG_COM_IRQHandler)
    i.TIM1_Init                              0x08004418   Section        0  tim.o(i.TIM1_Init)
    i.TIM3_IRQHandler                        0x0800444c   Section        0  tim.o(i.TIM3_IRQHandler)
    i.TIM3_Init                              0x08004484   Section        0  tim.o(i.TIM3_Init)
    i.TIM_Base_SetConfig                     0x080044b8   Section        0  stm32g0xx_hal_tim.o(i.TIM_Base_SetConfig)
    i.TIM_CCxChannelCmd                      0x08004530   Section        0  stm32g0xx_hal_tim.o(i.TIM_CCxChannelCmd)
    i.TIM_Count_Clear                        0x0800454c   Section        0  tim.o(i.TIM_Count_Clear)
    i.TIM_ETR_SetConfig                      0x080045b8   Section        0  stm32g0xx_hal_tim.o(i.TIM_ETR_SetConfig)
    i.TIM_SlaveTimer_SetConfig               0x080045d0   Section        0  stm32g0xx_hal_tim.o(i.TIM_SlaveTimer_SetConfig)
    TIM_SlaveTimer_SetConfig                 0x080045d1   Thumb Code   134  stm32g0xx_hal_tim.o(i.TIM_SlaveTimer_SetConfig)
    i.TIM_TI1_ConfigInputStage               0x08004660   Section        0  stm32g0xx_hal_tim.o(i.TIM_TI1_ConfigInputStage)
    TIM_TI1_ConfigInputStage                 0x08004661   Thumb Code    34  stm32g0xx_hal_tim.o(i.TIM_TI1_ConfigInputStage)
    i.TIM_TI2_ConfigInputStage               0x08004682   Section        0  stm32g0xx_hal_tim.o(i.TIM_TI2_ConfigInputStage)
    TIM_TI2_ConfigInputStage                 0x08004683   Thumb Code    38  stm32g0xx_hal_tim.o(i.TIM_TI2_ConfigInputStage)
    i.TaskForObserUsart2Rec                  0x080046a8   Section        0  uart_com.o(i.TaskForObserUsart2Rec)
    i.UARTEx_SetNbDataToProcess              0x080047d4   Section        0  stm32g0xx_hal_uart_ex.o(i.UARTEx_SetNbDataToProcess)
    UARTEx_SetNbDataToProcess                0x080047d5   Thumb Code    80  stm32g0xx_hal_uart_ex.o(i.UARTEx_SetNbDataToProcess)
    i.UART_AdvFeatureConfig                  0x08004834   Section        0  stm32g0xx_hal_uart.o(i.UART_AdvFeatureConfig)
    i.UART_CheckIdleState                    0x08004900   Section        0  stm32g0xx_hal_uart.o(i.UART_CheckIdleState)
    i.UART_DMAAbortOnError                   0x08004964   Section        0  stm32g0xx_hal_uart.o(i.UART_DMAAbortOnError)
    UART_DMAAbortOnError                     0x08004965   Thumb Code    20  stm32g0xx_hal_uart.o(i.UART_DMAAbortOnError)
    i.UART_DMAError                          0x08004978   Section        0  stm32g0xx_hal_uart.o(i.UART_DMAError)
    UART_DMAError                            0x08004979   Thumb Code    78  stm32g0xx_hal_uart.o(i.UART_DMAError)
    i.UART_DMAReceiveCplt                    0x080049c6   Section        0  stm32g0xx_hal_uart.o(i.UART_DMAReceiveCplt)
    UART_DMAReceiveCplt                      0x080049c7   Thumb Code    96  stm32g0xx_hal_uart.o(i.UART_DMAReceiveCplt)
    i.UART_DMARxHalfCplt                     0x08004a26   Section        0  stm32g0xx_hal_uart.o(i.UART_DMARxHalfCplt)
    UART_DMARxHalfCplt                       0x08004a27   Thumb Code    28  stm32g0xx_hal_uart.o(i.UART_DMARxHalfCplt)
    i.UART_DMATransmitCplt                   0x08004a42   Section        0  stm32g0xx_hal_uart.o(i.UART_DMATransmitCplt)
    UART_DMATransmitCplt                     0x08004a43   Thumb Code    48  stm32g0xx_hal_uart.o(i.UART_DMATransmitCplt)
    i.UART_DMATxHalfCplt                     0x08004a72   Section        0  stm32g0xx_hal_uart.o(i.UART_DMATxHalfCplt)
    UART_DMATxHalfCplt                       0x08004a73   Thumb Code    10  stm32g0xx_hal_uart.o(i.UART_DMATxHalfCplt)
    i.UART_EndRxTransfer                     0x08004a7c   Section        0  stm32g0xx_hal_uart.o(i.UART_EndRxTransfer)
    UART_EndRxTransfer                       0x08004a7d   Thumb Code    52  stm32g0xx_hal_uart.o(i.UART_EndRxTransfer)
    i.UART_EndTxTransfer                     0x08004ab4   Section        0  stm32g0xx_hal_uart.o(i.UART_EndTxTransfer)
    UART_EndTxTransfer                       0x08004ab5   Thumb Code    30  stm32g0xx_hal_uart.o(i.UART_EndTxTransfer)
    i.UART_SetConfig                         0x08004ad4   Section        0  stm32g0xx_hal_uart.o(i.UART_SetConfig)
    i.UART_Start_Receive_DMA                 0x08004c40   Section        0  stm32g0xx_hal_uart.o(i.UART_Start_Receive_DMA)
    i.UART_WaitOnFlagUntilTimeout            0x08004cc4   Section        0  stm32g0xx_hal_uart.o(i.UART_WaitOnFlagUntilTimeout)
    i.USART1_IRQHandler                      0x08004d60   Section        0  stm32g0xx_it.o(i.USART1_IRQHandler)
    i.USART2_IRQHandler                      0x08004df0   Section        0  stm32g0xx_it.o(i.USART2_IRQHandler)
    i.__ARM_common_ll_muluu                  0x08004e80   Section        0  btod.o(i.__ARM_common_ll_muluu)
    i.__ARM_common_switch8                   0x08004eb0   Section        0  stm32g0xx_hal_dma.o(i.__ARM_common_switch8)
    i.__ARM_fpclassify                       0x08004ecc   Section        0  fpclassify.o(i.__ARM_fpclassify)
    i.__NVIC_SetPriority                     0x08004ef8   Section        0  stm32g0xx_hal_cortex.o(i.__NVIC_SetPriority)
    __NVIC_SetPriority                       0x08004ef9   Thumb Code    60  stm32g0xx_hal_cortex.o(i.__NVIC_SetPriority)
    i._is_digit                              0x08004f3c   Section        0  __printf_wp.o(i._is_digit)
    i.main                                   0x08004f4c   Section        0  main.o(i.main)
    i.u1_printf                              0x0800504c   Section        0  usart.o(i.u1_printf)
    i.u2_printf                              0x080050b0   Section        0  usart.o(i.u2_printf)
    locale$$code                             0x0800511c   Section       44  lc_numeric_c.o(locale$$code)
    locale$$code                             0x08005148   Section       44  lc_ctype_c.o(locale$$code)
    x$fpl$printf1                            0x08005174   Section       16  printf1.o(x$fpl$printf1)
    x$fpl$printf2                            0x08005184   Section       16  printf2.o(x$fpl$printf2)
    .constdata                               0x08005194   Section       20  led.o(.constdata)
    x$fpl$usenofp                            0x08005194   Section        0  usenofp.o(x$fpl$usenofp)
    .constdata                               0x080051a8   Section       24  stm32g0xx_hal_uart.o(.constdata)
    .constdata                               0x080051c0   Section       64  system_stm32g0xx.o(.constdata)
    .constdata                               0x08005200   Section       32  system_stm32g0xx.o(.constdata)
    .constdata                               0x08005220   Section       40  _printf_hex_int_ll_ptr.o(.constdata)
    uc_hextab                                0x08005220   Data          20  _printf_hex_int_ll_ptr.o(.constdata)
    lc_hextab                                0x08005234   Data          20  _printf_hex_int_ll_ptr.o(.constdata)
    .constdata                               0x08005248   Section       17  __printf_flags_ss_wp.o(.constdata)
    maptable                                 0x08005248   Data          17  __printf_flags_ss_wp.o(.constdata)
    .constdata                               0x0800525c   Section        8  _printf_wctomb.o(.constdata)
    initial_mbstate                          0x0800525c   Data           8  _printf_wctomb.o(.constdata)
    .constdata                               0x08005264   Section       38  _printf_fp_hex.o(.constdata)
    lc_hextab                                0x08005264   Data          19  _printf_fp_hex.o(.constdata)
    uc_hextab                                0x08005277   Data          19  _printf_fp_hex.o(.constdata)
    .constdata                               0x0800528c   Section      148  bigflt0.o(.constdata)
    tenpwrs_x                                0x0800528c   Data          60  bigflt0.o(.constdata)
    tenpwrs_i                                0x080052c8   Data          64  bigflt0.o(.constdata)
    locale$$data                             0x08005340   Section       28  lc_numeric_c.o(locale$$data)
    __lcnum_c_name                           0x08005344   Data           2  lc_numeric_c.o(locale$$data)
    __lcnum_c_start                          0x0800534c   Data           0  lc_numeric_c.o(locale$$data)
    __lcnum_c_point                          0x08005358   Data           0  lc_numeric_c.o(locale$$data)
    __lcnum_c_thousands                      0x0800535a   Data           0  lc_numeric_c.o(locale$$data)
    __lcnum_c_grouping                       0x0800535b   Data           0  lc_numeric_c.o(locale$$data)
    locale$$data                             0x0800535c   Section      272  lc_ctype_c.o(locale$$data)
    __lcnum_c_end                            0x0800535c   Data           0  lc_numeric_c.o(locale$$data)
    __lcctype_c_name                         0x08005360   Data           2  lc_ctype_c.o(locale$$data)
    __lcctype_c_start                        0x08005368   Data           0  lc_ctype_c.o(locale$$data)
    __lcctype_c_end                          0x0800546c   Data           0  lc_ctype_c.o(locale$$data)
    .data                                    0x20000000   Section       40  led.o(.data)
    .data                                    0x20000028   Section        1  uart_com.o(.data)
    index                                    0x20000028   Data           1  uart_com.o(.data)
    .data                                    0x20000029   Section       20  modbus.o(.data)
    data                                     0x20000029   Data           6  modbus.o(.data)
    data                                     0x2000002f   Data           6  modbus.o(.data)
    data                                     0x20000035   Data           8  modbus.o(.data)
    .data                                    0x20000040   Section       12  main.o(.data)
    s_LastTime                               0x20000040   Data           4  main.o(.data)
    s_LEDLastTime                            0x20000044   Data           4  main.o(.data)
    Count                                    0x20000048   Data           4  main.o(.data)
    .data                                    0x2000004c   Section        5  rtc.o(.data)
    .data                                    0x20000054   Section       12  tim.o(.data)
    s_TimerCount                             0x20000054   Data           4  tim.o(.data)
    .data                                    0x20000060   Section        6  usart.o(.data)
    .data                                    0x20000068   Section       12  stm32g0xx_hal.o(.data)
    .data                                    0x20000074   Section        4  system_stm32g0xx.o(.data)
    .bss                                     0x20000078   Section      151  uart_com.o(.bss)
    databuff                                 0x20000078   Data          30  uart_com.o(.bss)
    m_RxFrame                                0x20000096   Data          21  uart_com.o(.bss)
    strShow                                  0x200000ab   Data         100  uart_com.o(.bss)
    .bss                                     0x2000010f   Section       10  systemstatus.o(.bss)
    s_LEDStatus                              0x2000010f   Data          10  systemstatus.o(.bss)
    .bss                                     0x2000011c   Section       16  iwdg.o(.bss)
    .bss                                     0x2000012c   Section       64  rtc.o(.bss)
    .bss                                     0x2000016c   Section      304  tim.o(.bss)
    .bss                                     0x2000029c   Section     2756  usart.o(.bss)
    .bss                                     0x20000d60   Section       96  libspace.o(.bss)
    HEAP                                     0x20000dc0   Section      512  startup_stm32g030xx.o(HEAP)
    Heap_Mem                                 0x20000dc0   Data         512  startup_stm32g030xx.o(HEAP)
    STACK                                    0x20000fc0   Section     1024  startup_stm32g030xx.o(STACK)
    Stack_Mem                                0x20000fc0   Data        1024  startup_stm32g030xx.o(STACK)
    __initial_sp                             0x200013c0   Data           0  startup_stm32g030xx.o(STACK)

    Global Symbols

    Symbol Name                              Value     Ov Type        Size  Object(Section)

    BuildAttributes$$THM_ISAv3M$S$PE$A:L22$X:L11$S22$IEEE1$IW$USESV6$~STKCKD$USESV7$~SHL$OTIME$ROPI$IEEEJ$EBA8$UX$STANDARDLIB$REQ8$PRES8$EABIv2 0x00000000   Number         0  anon$$obj.o ABSOLUTE
    __ARM_use_no_argv                        0x00000000   Number         0  main.o ABSOLUTE
    _printf_flags                            0x00000000   Number         0  printf_stubs.o ABSOLUTE
    _printf_return_value                     0x00000000   Number         0  printf_stubs.o ABSOLUTE
    _printf_sizespec                         0x00000000   Number         0  printf_stubs.o ABSOLUTE
    _printf_widthprec                        0x00000000   Number         0  printf_stubs.o ABSOLUTE
    __ARM_exceptions_init                     - Undefined Weak Reference
    __alloca_initialize                       - Undefined Weak Reference
    __arm_fini_                               - Undefined Weak Reference
    __arm_preinit_                            - Undefined Weak Reference
    __cpp_initialize__aeabi_                  - Undefined Weak Reference
    __cxa_finalize                            - Undefined Weak Reference
    __sigvec_lookup                           - Undefined Weak Reference
    _atexit_init                              - Undefined Weak Reference
    _call_atexit_fns                          - Undefined Weak Reference
    _clock_init                               - Undefined Weak Reference
    _fp_trap_init                             - Undefined Weak Reference
    _fp_trap_shutdown                         - Undefined Weak Reference
    _get_lc_collate                           - Undefined Weak Reference
    _get_lc_monetary                          - Undefined Weak Reference
    _get_lc_time                              - Undefined Weak Reference
    _getenv_init                              - Undefined Weak Reference
    _handle_redirection                       - Undefined Weak Reference
    _init_alloc                               - Undefined Weak Reference
    _init_user_alloc                          - Undefined Weak Reference
    _initio                                   - Undefined Weak Reference
    _printf_mbtowc                            - Undefined Weak Reference
    _printf_wc                                - Undefined Weak Reference
    _rand_init                                - Undefined Weak Reference
    _signal_finish                            - Undefined Weak Reference
    _signal_init                              - Undefined Weak Reference
    _terminate_alloc                          - Undefined Weak Reference
    _terminate_user_alloc                     - Undefined Weak Reference
    _terminateio                              - Undefined Weak Reference
    __Vectors_Size                           0x000000c0   Number         0  startup_stm32g030xx.o ABSOLUTE
    __Vectors                                0x08000000   Data           4  startup_stm32g030xx.o(RESET)
    __Vectors_End                            0x080000c0   Data           0  startup_stm32g030xx.o(RESET)
    __main                                   0x080000c1   Thumb Code     8  __main.o(!!!main)
    __scatterload                            0x080000c9   Thumb Code     0  __scatter.o(!!!scatter)
    __scatterload_rt2                        0x080000c9   Thumb Code    52  __scatter.o(!!!scatter)
    __scatterload_rt2_thumb_only             0x080000c9   Thumb Code     0  __scatter.o(!!!scatter)
    __scatterload_null                       0x080000d9   Thumb Code     0  __scatter.o(!!!scatter)
    __scatterload_copy                       0x08000105   Thumb Code    26  __scatter_copy.o(!!handler_copy)
    __scatterload_zeroinit                   0x08000121   Thumb Code    28  __scatter_zi.o(!!handler_zi)
    _printf_percent                          0x0800013d   Thumb Code     0  _printf_percent.o(.ARM.Collect$$_printf_percent$$00000000)
    _printf_n                                0x0800013f   Thumb Code     0  _printf_n.o(.ARM.Collect$$_printf_percent$$00000001)
    _printf_p                                0x08000149   Thumb Code     0  _printf_p.o(.ARM.Collect$$_printf_percent$$00000002)
    _printf_f                                0x08000153   Thumb Code     0  _printf_f.o(.ARM.Collect$$_printf_percent$$00000003)
    _printf_e                                0x0800015d   Thumb Code     0  _printf_e.o(.ARM.Collect$$_printf_percent$$00000004)
    _printf_g                                0x08000167   Thumb Code     0  _printf_g.o(.ARM.Collect$$_printf_percent$$00000005)
    _printf_a                                0x08000171   Thumb Code     0  _printf_a.o(.ARM.Collect$$_printf_percent$$00000006)
    _printf_ll                               0x0800017b   Thumb Code     0  _printf_ll.o(.ARM.Collect$$_printf_percent$$00000007)
    _printf_i                                0x08000185   Thumb Code     0  _printf_i.o(.ARM.Collect$$_printf_percent$$00000008)
    _printf_d                                0x0800018f   Thumb Code     0  _printf_d.o(.ARM.Collect$$_printf_percent$$00000009)
    _printf_u                                0x08000199   Thumb Code     0  _printf_u.o(.ARM.Collect$$_printf_percent$$0000000A)
    _printf_o                                0x080001a3   Thumb Code     0  _printf_o.o(.ARM.Collect$$_printf_percent$$0000000B)
    _printf_x                                0x080001ad   Thumb Code     0  _printf_x.o(.ARM.Collect$$_printf_percent$$0000000C)
    _printf_lli                              0x080001b7   Thumb Code     0  _printf_lli.o(.ARM.Collect$$_printf_percent$$0000000D)
    _printf_lld                              0x080001c1   Thumb Code     0  _printf_lld.o(.ARM.Collect$$_printf_percent$$0000000E)
    _printf_llu                              0x080001cb   Thumb Code     0  _printf_llu.o(.ARM.Collect$$_printf_percent$$0000000F)
    _printf_llo                              0x080001d5   Thumb Code     0  _printf_llo.o(.ARM.Collect$$_printf_percent$$00000010)
    _printf_llx                              0x080001df   Thumb Code     0  _printf_llx.o(.ARM.Collect$$_printf_percent$$00000011)
    _printf_l                                0x080001e9   Thumb Code     0  _printf_l.o(.ARM.Collect$$_printf_percent$$00000012)
    _printf_c                                0x080001f3   Thumb Code     0  _printf_c.o(.ARM.Collect$$_printf_percent$$00000013)
    _printf_s                                0x080001fd   Thumb Code     0  _printf_s.o(.ARM.Collect$$_printf_percent$$00000014)
    _printf_lc                               0x08000207   Thumb Code     0  _printf_lc.o(.ARM.Collect$$_printf_percent$$00000015)
    _printf_ls                               0x08000211   Thumb Code     0  _printf_ls.o(.ARM.Collect$$_printf_percent$$00000016)
    _printf_percent_end                      0x0800021b   Thumb Code     0  _printf_percent_end.o(.ARM.Collect$$_printf_percent$$00000017)
    __rt_lib_init                            0x0800021f   Thumb Code     0  libinit.o(.ARM.Collect$$libinit$$00000000)
    __rt_lib_init_fp_1                       0x08000221   Thumb Code     0  libinit2.o(.ARM.Collect$$libinit$$00000002)
    __rt_lib_init_heap_1                     0x08000221   Thumb Code     0  libinit2.o(.ARM.Collect$$libinit$$0000000A)
    __rt_lib_init_lc_common                  0x08000221   Thumb Code     0  libinit2.o(.ARM.Collect$$libinit$$0000000F)
    __rt_lib_init_preinit_1                  0x08000221   Thumb Code     0  libinit2.o(.ARM.Collect$$libinit$$00000004)
    __rt_lib_init_rand_1                     0x08000221   Thumb Code     0  libinit2.o(.ARM.Collect$$libinit$$0000000E)
    __rt_lib_init_user_alloc_1               0x08000221   Thumb Code     0  libinit2.o(.ARM.Collect$$libinit$$0000000C)
    __rt_lib_init_lc_collate_1               0x08000227   Thumb Code     0  libinit2.o(.ARM.Collect$$libinit$$00000011)
    __rt_lib_init_lc_ctype_2                 0x08000227   Thumb Code     0  libinit2.o(.ARM.Collect$$libinit$$00000012)
    __rt_lib_init_lc_ctype_1                 0x08000233   Thumb Code     0  libinit2.o(.ARM.Collect$$libinit$$00000013)
    __rt_lib_init_lc_monetary_1              0x08000233   Thumb Code     0  libinit2.o(.ARM.Collect$$libinit$$00000015)
    __rt_lib_init_lc_numeric_2               0x08000233   Thumb Code     0  libinit2.o(.ARM.Collect$$libinit$$00000016)
    __rt_lib_init_alloca_1                   0x0800023d   Thumb Code     0  libinit2.o(.ARM.Collect$$libinit$$0000002E)
    __rt_lib_init_argv_1                     0x0800023d   Thumb Code     0  libinit2.o(.ARM.Collect$$libinit$$0000002C)
    __rt_lib_init_atexit_1                   0x0800023d   Thumb Code     0  libinit2.o(.ARM.Collect$$libinit$$0000001B)
    __rt_lib_init_clock_1                    0x0800023d   Thumb Code     0  libinit2.o(.ARM.Collect$$libinit$$00000021)
    __rt_lib_init_cpp_1                      0x0800023d   Thumb Code     0  libinit2.o(.ARM.Collect$$libinit$$00000032)
    __rt_lib_init_exceptions_1               0x0800023d   Thumb Code     0  libinit2.o(.ARM.Collect$$libinit$$00000030)
    __rt_lib_init_fp_trap_1                  0x0800023d   Thumb Code     0  libinit2.o(.ARM.Collect$$libinit$$0000001F)
    __rt_lib_init_getenv_1                   0x0800023d   Thumb Code     0  libinit2.o(.ARM.Collect$$libinit$$00000023)
    __rt_lib_init_lc_numeric_1               0x0800023d   Thumb Code     0  libinit2.o(.ARM.Collect$$libinit$$00000017)
    __rt_lib_init_lc_time_1                  0x0800023d   Thumb Code     0  libinit2.o(.ARM.Collect$$libinit$$00000019)
    __rt_lib_init_return                     0x0800023d   Thumb Code     0  libinit2.o(.ARM.Collect$$libinit$$00000033)
    __rt_lib_init_signal_1                   0x0800023d   Thumb Code     0  libinit2.o(.ARM.Collect$$libinit$$0000001D)
    __rt_lib_init_stdio_1                    0x0800023d   Thumb Code     0  libinit2.o(.ARM.Collect$$libinit$$00000025)
    __rt_lib_shutdown                        0x0800023f   Thumb Code     0  libshutdown.o(.ARM.Collect$$libshutdown$$00000000)
    __rt_lib_shutdown_cpp_1                  0x08000241   Thumb Code     0  libshutdown2.o(.ARM.Collect$$libshutdown$$00000004)
    __rt_lib_shutdown_fini_1                 0x08000241   Thumb Code     0  libshutdown2.o(.ARM.Collect$$libshutdown$$00000002)
    __rt_lib_shutdown_fp_trap_1              0x08000241   Thumb Code     0  libshutdown2.o(.ARM.Collect$$libshutdown$$00000009)
    __rt_lib_shutdown_heap_1                 0x08000241   Thumb Code     0  libshutdown2.o(.ARM.Collect$$libshutdown$$00000011)
    __rt_lib_shutdown_return                 0x08000241   Thumb Code     0  libshutdown2.o(.ARM.Collect$$libshutdown$$00000012)
    __rt_lib_shutdown_signal_1               0x08000241   Thumb Code     0  libshutdown2.o(.ARM.Collect$$libshutdown$$0000000C)
    __rt_lib_shutdown_stdio_1                0x08000241   Thumb Code     0  libshutdown2.o(.ARM.Collect$$libshutdown$$00000006)
    __rt_lib_shutdown_user_alloc_1           0x08000241   Thumb Code     0  libshutdown2.o(.ARM.Collect$$libshutdown$$0000000E)
    __rt_entry                               0x08000243   Thumb Code     0  __rtentry.o(.ARM.Collect$$rtentry$$00000000)
    __rt_entry_presh_1                       0x08000243   Thumb Code     0  __rtentry2.o(.ARM.Collect$$rtentry$$00000002)
    __rt_entry_sh                            0x08000243   Thumb Code     0  __rtentry4.o(.ARM.Collect$$rtentry$$00000004)
    __rt_entry_li                            0x08000249   Thumb Code     0  __rtentry2.o(.ARM.Collect$$rtentry$$0000000A)
    __rt_entry_postsh_1                      0x08000249   Thumb Code     0  __rtentry2.o(.ARM.Collect$$rtentry$$00000009)
    __rt_entry_main                          0x0800024d   Thumb Code     0  __rtentry2.o(.ARM.Collect$$rtentry$$0000000D)
    __rt_entry_postli_1                      0x0800024d   Thumb Code     0  __rtentry2.o(.ARM.Collect$$rtentry$$0000000C)
    __rt_exit                                0x08000255   Thumb Code     0  rtexit.o(.ARM.Collect$$rtexit$$00000000)
    __rt_exit_ls                             0x08000257   Thumb Code     0  rtexit2.o(.ARM.Collect$$rtexit$$00000003)
    __rt_exit_prels_1                        0x08000257   Thumb Code     0  rtexit2.o(.ARM.Collect$$rtexit$$00000002)
    __rt_exit_exit                           0x0800025b   Thumb Code     0  rtexit2.o(.ARM.Collect$$rtexit$$00000004)
    __aeabi_memcpy4                          0x08000261   Thumb Code    56  rt_memcpy.o(.emb_text)
    __aeabi_memcpy8                          0x08000261   Thumb Code     0  rt_memcpy.o(.emb_text)
    Reset_Handler                            0x08000299   Thumb Code     8  startup_stm32g030xx.o(.text)
    ADC1_IRQHandler                          0x080002ab   Thumb Code     0  startup_stm32g030xx.o(.text)
    EXTI0_1_IRQHandler                       0x080002ab   Thumb Code     0  startup_stm32g030xx.o(.text)
    EXTI2_3_IRQHandler                       0x080002ab   Thumb Code     0  startup_stm32g030xx.o(.text)
    EXTI4_15_IRQHandler                      0x080002ab   Thumb Code     0  startup_stm32g030xx.o(.text)
    FLASH_IRQHandler                         0x080002ab   Thumb Code     0  startup_stm32g030xx.o(.text)
    I2C1_IRQHandler                          0x080002ab   Thumb Code     0  startup_stm32g030xx.o(.text)
    I2C2_IRQHandler                          0x080002ab   Thumb Code     0  startup_stm32g030xx.o(.text)
    RCC_IRQHandler                           0x080002ab   Thumb Code     0  startup_stm32g030xx.o(.text)
    SPI1_IRQHandler                          0x080002ab   Thumb Code     0  startup_stm32g030xx.o(.text)
    SPI2_IRQHandler                          0x080002ab   Thumb Code     0  startup_stm32g030xx.o(.text)
    TIM16_IRQHandler                         0x080002ab   Thumb Code     0  startup_stm32g030xx.o(.text)
    TIM17_IRQHandler                         0x080002ab   Thumb Code     0  startup_stm32g030xx.o(.text)
    TIM1_CC_IRQHandler                       0x080002ab   Thumb Code     0  startup_stm32g030xx.o(.text)
    WWDG_IRQHandler                          0x080002ab   Thumb Code     0  startup_stm32g030xx.o(.text)
    __user_initial_stackheap                 0x080002ad   Thumb Code     0  startup_stm32g030xx.o(.text)
    vsprintf                                 0x080002d1   Thumb Code    32  vsprintf.o(.text)
    __2sprintf                               0x080002f5   Thumb Code    40  __2sprintf.o(.text)
    _printf_pre_padding                      0x08000321   Thumb Code    44  _printf_pad.o(.text)
    _printf_post_padding                     0x0800034d   Thumb Code    34  _printf_pad.o(.text)
    _printf_longlong_hex                     0x08000371   Thumb Code    88  _printf_hex_int_ll_ptr.o(.text)
    _printf_int_hex                          0x080003c9   Thumb Code    28  _printf_hex_int_ll_ptr.o(.text)
    _printf_ll_hex                           0x080003e5   Thumb Code    10  _printf_hex_int_ll_ptr.o(.text)
    _printf_hex_ptr                          0x080003ef   Thumb Code    22  _printf_hex_int_ll_ptr.o(.text)
    __printf                                 0x08000409   Thumb Code   386  __printf_flags_ss_wp.o(.text)
    strlen                                   0x08000591   Thumb Code    62  strlen.o(.text)
    strncmp                                  0x080005d5   Thumb Code   154  strncmp.o(.text)
    strcat                                   0x08000675   Thumb Code    24  strcat.o(.text)
    __aeabi_memcpy                           0x0800068d   Thumb Code   130  rt_memcpy.o(.text)
    __rt_memcpy                              0x0800068d   Thumb Code     0  rt_memcpy.o(.text)
    _memset_w                                0x0800070f   Thumb Code    26  rt_memclr.o(.text)
    _memset                                  0x08000729   Thumb Code    30  rt_memclr.o(.text)
    __aeabi_memclr                           0x08000747   Thumb Code     4  rt_memclr.o(.text)
    __rt_memclr                              0x08000747   Thumb Code     0  rt_memclr.o(.text)
    __aeabi_memclr4                          0x0800074b   Thumb Code     0  rt_memclr.o(.text)
    __aeabi_memclr8                          0x0800074b   Thumb Code     0  rt_memclr.o(.text)
    __rt_memclr_w                            0x0800074b   Thumb Code     4  rt_memclr.o(.text)
    strcmp                                   0x08000751   Thumb Code   132  strcmp.o(.text)
    __aeabi_uidiv                            0x080007d9   Thumb Code     0  aeabi_sdiv.o(.text)
    __aeabi_uidivmod                         0x080007d9   Thumb Code    20  aeabi_sdiv.o(.text)
    __aeabi_idiv                             0x080007ed   Thumb Code     0  aeabi_sdiv.o(.text)
    __aeabi_idivmod                          0x080007ed   Thumb Code   326  aeabi_sdiv.o(.text)
    __use_two_region_memory                  0x08000933   Thumb Code     2  heapauxi.o(.text)
    __rt_heap_escrow$2region                 0x08000935   Thumb Code     2  heapauxi.o(.text)
    __rt_heap_expand$2region                 0x08000937   Thumb Code     2  heapauxi.o(.text)
    _printf_truncate_signed                  0x08000939   Thumb Code    18  _printf_truncate.o(.text)
    _printf_truncate_unsigned                0x0800094b   Thumb Code    18  _printf_truncate.o(.text)
    _printf_str                              0x0800095d   Thumb Code    82  _printf_str.o(.text)
    _printf_int_common                       0x080009af   Thumb Code   176  _printf_intcommon.o(.text)
    _printf_int_dec                          0x08000a61   Thumb Code    90  _printf_dec.o(.text)
    _printf_charcount                        0x08000acd   Thumb Code    38  _printf_charcount.o(.text)
    _printf_char_common                      0x08000aff   Thumb Code    32  _printf_char_common.o(.text)
    _sputc                                   0x08000b25   Thumb Code    10  _sputc.o(.text)
    _printf_wctomb                           0x08000b31   Thumb Code   182  _printf_wctomb.o(.text)
    _printf_longlong_dec                     0x08000bed   Thumb Code    94  _printf_longlong_dec.o(.text)
    _printf_longlong_oct                     0x08000c5d   Thumb Code    68  _printf_oct_int_ll.o(.text)
    _printf_int_oct                          0x08000ca1   Thumb Code    24  _printf_oct_int_ll.o(.text)
    _printf_ll_oct                           0x08000cb9   Thumb Code    10  _printf_oct_int_ll.o(.text)
    _ll_udiv10                               0x08000ccd   Thumb Code   122  lludiv10.o(.text)
    __lib_sel_fp_printf                      0x08000d49   Thumb Code     2  _printf_fp_dec.o(.text)
    _printf_fp_dec_real                      0x08000ee7   Thumb Code   620  _printf_fp_dec.o(.text)
    _printf_fp_hex_real                      0x08001161   Thumb Code   718  _printf_fp_hex.o(.text)
    _printf_cs_common                        0x08001439   Thumb Code    22  _printf_char.o(.text)
    _printf_char                             0x0800144f   Thumb Code    16  _printf_char.o(.text)
    _printf_string                           0x0800145f   Thumb Code     8  _printf_char.o(.text)
    _printf_lcs_common                       0x08001467   Thumb Code    22  _printf_wchar.o(.text)
    _printf_wchar                            0x0800147d   Thumb Code    16  _printf_wchar.o(.text)
    _printf_wstring                          0x0800148d   Thumb Code     8  _printf_wchar.o(.text)
    _wcrtomb                                 0x08001495   Thumb Code    64  _wcrtomb.o(.text)
    __rt_udiv10                              0x080014d5   Thumb Code    40  rtudiv10.o(.text)
    __user_setup_stackheap                   0x080014fd   Thumb Code    62  sys_stackheap_outer.o(.text)
    __rt_ctype_table                         0x0800153d   Thumb Code    16  rt_ctype_table.o(.text)
    __rt_locale                              0x0800154d   Thumb Code     8  rt_locale_intlibspace.o(.text)
    _printf_fp_infnan                        0x08001555   Thumb Code   120  _printf_fp_infnan.o(.text)
    _btod_etento                             0x080015dd   Thumb Code   210  bigflt0.o(.text)
    _btod_d2e                                0x080016b5   Thumb Code    64  btod.o(.text)
    _btod_emul                               0x08001ae9   Thumb Code    28  btod.o(.text)
    _btod_emuld                              0x08001b05   Thumb Code   144  btod.o(.text)
    _btod_ediv                               0x08001b95   Thumb Code    26  btod.o(.text)
    _btod_edivd                              0x08001baf   Thumb Code   124  btod.o(.text)
    exit                                     0x08001c35   Thumb Code    16  exit.o(.text)
    __user_libspace                          0x08001c45   Thumb Code     8  libspace.o(.text)
    __user_perproc_libspace                  0x08001c45   Thumb Code     0  libspace.o(.text)
    __user_perthread_libspace                0x08001c45   Thumb Code     0  libspace.o(.text)
    _sys_exit                                0x08001c4d   Thumb Code     8  sys_exit.o(.text)
    __I$use$semihosting                      0x08001c59   Thumb Code     0  use_no_semi.o(.text)
    __use_no_semihosting_swi                 0x08001c59   Thumb Code     2  use_no_semi.o(.text)
    __semihosting_library_function           0x08001c5b   Thumb Code     0  indicate_semi.o(.text)
    BSP_LED8910_Off                          0x08001c5d   Thumb Code    22  led.o(i.BSP_LED8910_Off)
    BSP_LED8910_On                           0x08001c7d   Thumb Code    22  led.o(i.BSP_LED8910_On)
    BSP_LED_Off                              0x08001c9d   Thumb Code    22  led.o(i.BSP_LED_Off)
    BSP_LED_On                               0x08001cbd   Thumb Code    22  led.o(i.BSP_LED_On)
    BSP_LED_Toggle                           0x08001cdd   Thumb Code    20  led.o(i.BSP_LED_Toggle)
    CMDSendData                              0x08001cf9   Thumb Code    46  usart.o(i.CMDSendData)
    CalculateTime                            0x08001d31   Thumb Code    14  tim.o(i.CalculateTime)
    Calculate_CRC16                          0x08001d41   Thumb Code    50  modbus.o(i.Calculate_CRC16)
    ClearCmdBuff                             0x08001d7d   Thumb Code    22  usart.o(i.ClearCmdBuff)
    ClearDebugBuff                           0x08001d9d   Thumb Code    22  usart.o(i.ClearDebugBuff)
    ComProcess                               0x08001dbd   Thumb Code    96  uart_com.o(i.ComProcess)
    DMA1_Ch4_5_DMAMUX1_OVR_IRQHandler        0x08001e55   Thumb Code    10  stm32g0xx_it.o(i.DMA1_Ch4_5_DMAMUX1_OVR_IRQHandler)
    DMA1_Channel1_IRQHandler                 0x08001e65   Thumb Code    10  stm32g0xx_it.o(i.DMA1_Channel1_IRQHandler)
    DMA1_Channel2_3_IRQHandler               0x08001e75   Thumb Code    16  stm32g0xx_it.o(i.DMA1_Channel2_3_IRQHandler)
    DebugShowHex                             0x08001f2d   Thumb Code    54  uart_com.o(i.DebugShowHex)
    Error_Handler                            0x08001f75   Thumb Code     2  main.o(i.Error_Handler)
    GetSystem1msCount                        0x08001f79   Thumb Code     6  tim.o(i.GetSystem1msCount)
    GetTIM1Count                             0x08001f85   Thumb Code    16  tim.o(i.GetTIM1Count)
    HAL_DMA_Abort                            0x08001f9d   Thumb Code   112  stm32g0xx_hal_dma.o(i.HAL_DMA_Abort)
    HAL_DMA_Abort_IT                         0x08002011   Thumb Code   118  stm32g0xx_hal_dma.o(i.HAL_DMA_Abort_IT)
    HAL_DMA_GetError                         0x0800208d   Thumb Code     4  stm32g0xx_hal_dma.o(i.HAL_DMA_GetError)
    HAL_DMA_GetState                         0x08002091   Thumb Code     6  stm32g0xx_hal_dma.o(i.HAL_DMA_GetState)
    HAL_DMA_IRQHandler                       0x08002099   Thumb Code   180  stm32g0xx_hal_dma.o(i.HAL_DMA_IRQHandler)
    HAL_DMA_Init                             0x08002151   Thumb Code   156  stm32g0xx_hal_dma.o(i.HAL_DMA_Init)
    HAL_DMA_Start_IT                         0x080021f5   Thumb Code   136  stm32g0xx_hal_dma.o(i.HAL_DMA_Start_IT)
    HAL_Delay                                0x08002281   Thumb Code    32  stm32g0xx_hal.o(i.HAL_Delay)
    HAL_GPIO_Init                            0x080022a5   Thumb Code   330  stm32g0xx_hal_gpio.o(i.HAL_GPIO_Init)
    HAL_GPIO_TogglePin                       0x08002401   Thumb Code    16  stm32g0xx_hal_gpio.o(i.HAL_GPIO_TogglePin)
    HAL_GPIO_WritePin                        0x08002411   Thumb Code    12  stm32g0xx_hal_gpio.o(i.HAL_GPIO_WritePin)
    HAL_GetTick                              0x0800241d   Thumb Code     6  stm32g0xx_hal.o(i.HAL_GetTick)
    HAL_IWDG_Init                            0x08002429   Thumb Code    86  stm32g0xx_hal_iwdg.o(i.HAL_IWDG_Init)
    HAL_IWDG_Refresh                         0x0800248d   Thumb Code    10  stm32g0xx_hal_iwdg.o(i.HAL_IWDG_Refresh)
    HAL_IncTick                              0x0800249d   Thumb Code    12  stm32g0xx_hal.o(i.HAL_IncTick)
    HAL_Init                                 0x080024ad   Thumb Code    36  stm32g0xx_hal.o(i.HAL_Init)
    HAL_InitTick                             0x080024d5   Thumb Code    64  stm32g0xx_hal.o(i.HAL_InitTick)
    HAL_MspInit                              0x0800251d   Thumb Code    50  stm32g0xx_hal_msp.o(i.HAL_MspInit)
    HAL_NVIC_EnableIRQ                       0x08002555   Thumb Code    18  stm32g0xx_hal_cortex.o(i.HAL_NVIC_EnableIRQ)
    HAL_NVIC_SetPriority                     0x0800256d   Thumb Code     8  stm32g0xx_hal_cortex.o(i.HAL_NVIC_SetPriority)
    HAL_PWREx_ControlVoltageScaling          0x08002575   Thumb Code    62  stm32g0xx_hal_pwr_ex.o(i.HAL_PWREx_ControlVoltageScaling)
    HAL_RCCEx_PeriphCLKConfig                0x080025c1   Thumb Code   320  stm32g0xx_hal_rcc_ex.o(i.HAL_RCCEx_PeriphCLKConfig)
    HAL_RCC_ClockConfig                      0x0800270d   Thumb Code   318  stm32g0xx_hal_rcc.o(i.HAL_RCC_ClockConfig)
    HAL_RCC_GetPCLK1Freq                     0x08002865   Thumb Code    26  stm32g0xx_hal_rcc.o(i.HAL_RCC_GetPCLK1Freq)
    HAL_RCC_GetSysClockFreq                  0x0800288d   Thumb Code   130  stm32g0xx_hal_rcc.o(i.HAL_RCC_GetSysClockFreq)
    HAL_RCC_OscConfig                        0x08002919   Thumb Code   954  stm32g0xx_hal_rcc.o(i.HAL_RCC_OscConfig)
    HAL_RTCEx_AlarmBEventCallback            0x08002cf9   Thumb Code     2  stm32g0xx_hal_rtc_ex.o(i.HAL_RTCEx_AlarmBEventCallback)
    HAL_RTC_AlarmAEventCallback              0x08002cfd   Thumb Code    36  rtc.o(i.HAL_RTC_AlarmAEventCallback)
    HAL_RTC_AlarmIRQHandler                  0x08002d25   Thumb Code    68  stm32g0xx_hal_rtc.o(i.HAL_RTC_AlarmIRQHandler)
    HAL_RTC_Init                             0x08002d69   Thumb Code   160  stm32g0xx_hal_rtc.o(i.HAL_RTC_Init)
    HAL_RTC_MspInit                          0x08002e0d   Thumb Code    58  rtc.o(i.HAL_RTC_MspInit)
    HAL_RTC_SetAlarm_IT                      0x08002e51   Thumb Code   378  stm32g0xx_hal_rtc.o(i.HAL_RTC_SetAlarm_IT)
    HAL_RTC_SetDate                          0x08002fd1   Thumb Code   152  stm32g0xx_hal_rtc.o(i.HAL_RTC_SetDate)
    HAL_RTC_SetTime                          0x0800306d   Thumb Code   188  stm32g0xx_hal_rtc.o(i.HAL_RTC_SetTime)
    HAL_RTC_WaitForSynchro                   0x0800312d   Thumb Code    52  stm32g0xx_hal_rtc.o(i.HAL_RTC_WaitForSynchro)
    HAL_SYSCFG_EnableRemap                   0x08003161   Thumb Code    10  stm32g0xx_hal.o(i.HAL_SYSCFG_EnableRemap)
    HAL_SYSTICK_Config                       0x08003171   Thumb Code    38  stm32g0xx_hal_cortex.o(i.HAL_SYSTICK_Config)
    HAL_TIMEx_Break2Callback                 0x080031a1   Thumb Code     2  stm32g0xx_hal_tim_ex.o(i.HAL_TIMEx_Break2Callback)
    HAL_TIMEx_BreakCallback                  0x080031a3   Thumb Code     2  stm32g0xx_hal_tim_ex.o(i.HAL_TIMEx_BreakCallback)
    HAL_TIMEx_CommutCallback                 0x080031a5   Thumb Code     2  stm32g0xx_hal_tim_ex.o(i.HAL_TIMEx_CommutCallback)
    HAL_TIMEx_MasterConfigSynchronization    0x080031a9   Thumb Code    90  stm32g0xx_hal_tim_ex.o(i.HAL_TIMEx_MasterConfigSynchronization)
    HAL_TIM_Base_Init                        0x0800320d   Thumb Code    76  stm32g0xx_hal_tim.o(i.HAL_TIM_Base_Init)
    HAL_TIM_Base_MspInit                     0x08003259   Thumb Code   218  tim.o(i.HAL_TIM_Base_MspInit)
    HAL_TIM_Base_Start                       0x08003349   Thumb Code    60  stm32g0xx_hal_tim.o(i.HAL_TIM_Base_Start)
    HAL_TIM_Base_Start_IT                    0x08003391   Thumb Code    68  stm32g0xx_hal_tim.o(i.HAL_TIM_Base_Start_IT)
    HAL_TIM_IC_CaptureCallback               0x080033e1   Thumb Code     2  stm32g0xx_hal_tim.o(i.HAL_TIM_IC_CaptureCallback)
    HAL_TIM_IC_Start                         0x080033e5   Thumb Code   178  stm32g0xx_hal_tim.o(i.HAL_TIM_IC_Start)
    HAL_TIM_IRQHandler                       0x080034a5   Thumb Code   382  stm32g0xx_hal_tim.o(i.HAL_TIM_IRQHandler)
    HAL_TIM_OC_DelayElapsedCallback          0x08003629   Thumb Code     2  stm32g0xx_hal_tim.o(i.HAL_TIM_OC_DelayElapsedCallback)
    HAL_TIM_PWM_PulseFinishedCallback        0x0800362b   Thumb Code     2  stm32g0xx_hal_tim.o(i.HAL_TIM_PWM_PulseFinishedCallback)
    HAL_TIM_PeriodElapsedCallback            0x0800362d   Thumb Code    20  tim.o(i.HAL_TIM_PeriodElapsedCallback)
    HAL_TIM_SlaveConfigSynchro               0x08003649   Thumb Code    76  stm32g0xx_hal_tim.o(i.HAL_TIM_SlaveConfigSynchro)
    HAL_TIM_TriggerCallback                  0x08003695   Thumb Code     2  stm32g0xx_hal_tim.o(i.HAL_TIM_TriggerCallback)
    HAL_UARTEx_EnableFifoMode                0x08003697   Thumb Code    62  stm32g0xx_hal_uart_ex.o(i.HAL_UARTEx_EnableFifoMode)
    HAL_UARTEx_RxEventCallback               0x080036d5   Thumb Code     2  stm32g0xx_hal_uart.o(i.HAL_UARTEx_RxEventCallback)
    HAL_UARTEx_RxFifoFullCallback            0x080036d7   Thumb Code     2  stm32g0xx_hal_uart_ex.o(i.HAL_UARTEx_RxFifoFullCallback)
    HAL_UARTEx_SetRxFifoThreshold            0x080036d9   Thumb Code    72  stm32g0xx_hal_uart_ex.o(i.HAL_UARTEx_SetRxFifoThreshold)
    HAL_UARTEx_SetTxFifoThreshold            0x08003721   Thumb Code    70  stm32g0xx_hal_uart_ex.o(i.HAL_UARTEx_SetTxFifoThreshold)
    HAL_UARTEx_TxFifoEmptyCallback           0x08003767   Thumb Code     2  stm32g0xx_hal_uart_ex.o(i.HAL_UARTEx_TxFifoEmptyCallback)
    HAL_UARTEx_WakeupCallback                0x08003769   Thumb Code     2  stm32g0xx_hal_uart_ex.o(i.HAL_UARTEx_WakeupCallback)
    HAL_UART_DMAStop                         0x0800376b   Thumb Code   126  stm32g0xx_hal_uart.o(i.HAL_UART_DMAStop)
    HAL_UART_ErrorCallback                   0x080037e9   Thumb Code     2  stm32g0xx_hal_uart.o(i.HAL_UART_ErrorCallback)
    HAL_UART_IRQHandler                      0x080037ed   Thumb Code   594  stm32g0xx_hal_uart.o(i.HAL_UART_IRQHandler)
    HAL_UART_Init                            0x08003a51   Thumb Code   108  stm32g0xx_hal_uart.o(i.HAL_UART_Init)
    HAL_UART_MspInit                         0x08003abd   Thumb Code   414  usart.o(i.HAL_UART_MspInit)
    HAL_UART_Receive_DMA                     0x08003c7d   Thumb Code    68  stm32g0xx_hal_uart.o(i.HAL_UART_Receive_DMA)
    HAL_UART_RxCpltCallback                  0x08003cc1   Thumb Code     2  stm32g0xx_hal_uart.o(i.HAL_UART_RxCpltCallback)
    HAL_UART_RxHalfCpltCallback              0x08003cc3   Thumb Code     2  stm32g0xx_hal_uart.o(i.HAL_UART_RxHalfCpltCallback)
    HAL_UART_Transmit_DMA                    0x08003cc5   Thumb Code   158  stm32g0xx_hal_uart.o(i.HAL_UART_Transmit_DMA)
    HAL_UART_TxCpltCallback                  0x08003d71   Thumb Code     2  stm32g0xx_hal_uart.o(i.HAL_UART_TxCpltCallback)
    HAL_UART_TxHalfCpltCallback              0x08003d73   Thumb Code     2  stm32g0xx_hal_uart.o(i.HAL_UART_TxHalfCpltCallback)
    HardFault_Handler                        0x08003d75   Thumb Code     2  stm32g0xx_it.o(i.HardFault_Handler)
    LEDShowCommunicationChannel              0x08003d79   Thumb Code   102  systemstatus.o(i.LEDShowCommunicationChannel)
    MX_DMA_Init                              0x08003de5   Thumb Code    68  dma.o(i.MX_DMA_Init)
    MX_GPIO_Init                             0x08003e2d   Thumb Code   108  gpio.o(i.MX_GPIO_Init)
    MX_IWDG_Init                             0x08003ead   Thumb Code    32  iwdg.o(i.MX_IWDG_Init)
    MX_RTC_Init                              0x08003ed9   Thumb Code   194  rtc.o(i.MX_RTC_Init)
    MX_TIM14_Init                            0x08003fa5   Thumb Code    42  tim.o(i.MX_TIM14_Init)
    MX_TIM16_Init                            0x08003fd9   Thumb Code    40  tim.o(i.MX_TIM16_Init)
    MX_TIM1_Init                             0x0800400d   Thumb Code   112  tim.o(i.MX_TIM1_Init)
    MX_TIM3_Init                             0x08004089   Thumb Code   108  tim.o(i.MX_TIM3_Init)
    MX_USART1_UART_Init                      0x08004101   Thumb Code    96  usart.o(i.MX_USART1_UART_Init)
    MX_USART2_UART_Init                      0x08004169   Thumb Code    50  usart.o(i.MX_USART2_UART_Init)
    NMI_Handler                              0x080041a5   Thumb Code     2  stm32g0xx_it.o(i.NMI_Handler)
    OnRec485Data                             0x080041a9   Thumb Code   110  modbus.o(i.OnRec485Data)
    PendSV_Handler                           0x0800423d   Thumb Code     2  stm32g0xx_it.o(i.PendSV_Handler)
    RTC_ByteToBcd2                           0x0800423f   Thumb Code    24  stm32g0xx_hal_rtc.o(i.RTC_ByteToBcd2)
    RTC_EnterInitMode                        0x08004257   Thumb Code    68  stm32g0xx_hal_rtc.o(i.RTC_EnterInitMode)
    RTC_ExitInitMode                         0x0800429d   Thumb Code    74  stm32g0xx_hal_rtc.o(i.RTC_ExitInitMode)
    RTC_TAMP_IRQHandler                      0x080042ed   Thumb Code    10  stm32g0xx_it.o(i.RTC_TAMP_IRQHandler)
    ResponseSetLEDStatusAck                  0x080042fd   Thumb Code    40  modbus.o(i.ResponseSetLEDStatusAck)
    SVC_Handler                              0x08004329   Thumb Code     2  stm32g0xx_it.o(i.SVC_Handler)
    SetLEDStatus                             0x0800432d   Thumb Code    26  systemstatus.o(i.SetLEDStatus)
    SysTick_Handler                          0x0800434d   Thumb Code     8  stm32g0xx_it.o(i.SysTick_Handler)
    SystemClock_Config                       0x08004355   Thumb Code   120  main.o(i.SystemClock_Config)
    SystemInit                               0x080043d1   Thumb Code    10  system_stm32g0xx.o(i.SystemInit)
    TIM14_IRQHandler                         0x080043e1   Thumb Code    10  stm32g0xx_it.o(i.TIM14_IRQHandler)
    TIM1_BRK_UP_TRG_COM_IRQHandler           0x080043f1   Thumb Code    30  tim.o(i.TIM1_BRK_UP_TRG_COM_IRQHandler)
    TIM1_Init                                0x08004419   Thumb Code    46  tim.o(i.TIM1_Init)
    TIM3_IRQHandler                          0x0800444d   Thumb Code    38  tim.o(i.TIM3_IRQHandler)
    TIM3_Init                                0x08004485   Thumb Code    46  tim.o(i.TIM3_Init)
    TIM_Base_SetConfig                       0x080044b9   Thumb Code   100  stm32g0xx_hal_tim.o(i.TIM_Base_SetConfig)
    TIM_CCxChannelCmd                        0x08004531   Thumb Code    26  stm32g0xx_hal_tim.o(i.TIM_CCxChannelCmd)
    TIM_Count_Clear                          0x0800454d   Thumb Code    90  tim.o(i.TIM_Count_Clear)
    TIM_ETR_SetConfig                        0x080045b9   Thumb Code    22  stm32g0xx_hal_tim.o(i.TIM_ETR_SetConfig)
    TaskForObserUsart2Rec                    0x080046a9   Thumb Code   220  uart_com.o(i.TaskForObserUsart2Rec)
    UART_AdvFeatureConfig                    0x08004835   Thumb Code   202  stm32g0xx_hal_uart.o(i.UART_AdvFeatureConfig)
    UART_CheckIdleState                      0x08004901   Thumb Code    94  stm32g0xx_hal_uart.o(i.UART_CheckIdleState)
    UART_SetConfig                           0x08004ad5   Thumb Code   332  stm32g0xx_hal_uart.o(i.UART_SetConfig)
    UART_Start_Receive_DMA                   0x08004c41   Thumb Code   120  stm32g0xx_hal_uart.o(i.UART_Start_Receive_DMA)
    UART_WaitOnFlagUntilTimeout              0x08004cc5   Thumb Code   156  stm32g0xx_hal_uart.o(i.UART_WaitOnFlagUntilTimeout)
    USART1_IRQHandler                        0x08004d61   Thumb Code   114  stm32g0xx_it.o(i.USART1_IRQHandler)
    USART2_IRQHandler                        0x08004df1   Thumb Code   116  stm32g0xx_it.o(i.USART2_IRQHandler)
    __ARM_common_ll_muluu                    0x08004e81   Thumb Code    48  btod.o(i.__ARM_common_ll_muluu)
    __ARM_common_switch8                     0x08004eb1   Thumb Code    26  stm32g0xx_hal_dma.o(i.__ARM_common_switch8)
    __ARM_fpclassify                         0x08004ecd   Thumb Code    40  fpclassify.o(i.__ARM_fpclassify)
    _is_digit                                0x08004f3d   Thumb Code    14  __printf_wp.o(i._is_digit)
    main                                     0x08004f4d   Thumb Code   202  main.o(i.main)
    u1_printf                                0x0800504d   Thumb Code    84  usart.o(i.u1_printf)
    u2_printf                                0x080050b1   Thumb Code    90  usart.o(i.u2_printf)
    _get_lc_numeric                          0x0800511d   Thumb Code    44  lc_numeric_c.o(locale$$code)
    _get_lc_ctype                            0x08005149   Thumb Code    44  lc_ctype_c.o(locale$$code)
    _printf_fp_dec                           0x08005175   Thumb Code    16  printf1.o(x$fpl$printf1)
    _printf_fp_hex                           0x08005185   Thumb Code    16  printf2.o(x$fpl$printf2)
    LED_PIN                                  0x08005194   Data          20  led.o(.constdata)
    __I$use$fp                               0x08005194   Number         0  usenofp.o(x$fpl$usenofp)
    UARTPrescTable                           0x080051a8   Data          24  stm32g0xx_hal_uart.o(.constdata)
    AHBPrescTable                            0x080051c0   Data          64  system_stm32g0xx.o(.constdata)
    APBPrescTable                            0x08005200   Data          32  system_stm32g0xx.o(.constdata)
    Region$$Table$$Base                      0x08005320   Number         0  anon$$obj.o(Region$$Table)
    Region$$Table$$Limit                     0x08005340   Number         0  anon$$obj.o(Region$$Table)
    __ctype                                  0x08005369   Data           0  lc_ctype_c.o(locale$$data)
    LED_PORT                                 0x20000000   Data          40  led.o(.data)
    StopFlag                                 0x2000004c   Data           1  rtc.o(.data)
    g_RTCDate                                0x2000004d   Data           4  rtc.o(.data)
    g_TIM3_Count                             0x20000058   Data           4  tim.o(.data)
    g_TIM1_Count                             0x2000005c   Data           4  tim.o(.data)
    Usart1RXFlag                             0x20000060   Data           1  usart.o(.data)
    Usart2RXFlag                             0x20000061   Data           1  usart.o(.data)
    Usart1RXCount                            0x20000062   Data           2  usart.o(.data)
    Usart2RXCount                            0x20000064   Data           2  usart.o(.data)
    uwTickFreq                               0x20000068   Data           1  stm32g0xx_hal.o(.data)
    uwTickPrio                               0x2000006c   Data           4  stm32g0xx_hal.o(.data)
    uwTick                                   0x20000070   Data           4  stm32g0xx_hal.o(.data)
    SystemCoreClock                          0x20000074   Data           4  system_stm32g0xx.o(.data)
    hiwdg                                    0x2000011c   Data          16  iwdg.o(.bss)
    g_RTCTime                                0x2000012c   Data          20  rtc.o(.bss)
    hrtc                                     0x20000140   Data          44  rtc.o(.bss)
    htim1                                    0x2000016c   Data          76  tim.o(.bss)
    htim3                                    0x200001b8   Data          76  tim.o(.bss)
    htim14                                   0x20000204   Data          76  tim.o(.bss)
    htim16                                   0x20000250   Data          76  tim.o(.bss)
    USART1_TX_BUF                            0x2000029c   Data         350  usart.o(.bss)
    USART1_RX_BUF                            0x200003fa   Data         350  usart.o(.bss)
    USART2_TX_BUF                            0x20000558   Data         350  usart.o(.bss)
    USART2_RX_BUF                            0x200006b6   Data         350  usart.o(.bss)
    Usart1RxBuffer                           0x20000814   Data         350  usart.o(.bss)
    Usart2RxBuffer                           0x20000972   Data         350  usart.o(.bss)
    huart1                                   0x20000ad0   Data         144  usart.o(.bss)
    hdma_usart1_tx                           0x20000b60   Data          92  usart.o(.bss)
    hdma_usart1_rx                           0x20000bbc   Data          92  usart.o(.bss)
    hdma_usart2_rx                           0x20000c18   Data          92  usart.o(.bss)
    hdma_usart2_tx                           0x20000c74   Data          92  usart.o(.bss)
    huart2                                   0x20000cd0   Data         144  usart.o(.bss)
    __libspace_start                         0x20000d60   Data          96  libspace.o(.bss)
    __temporary_stack_top$libspace           0x20000dc0   Data           0  libspace.o(.bss)



==============================================================================

Memory Map of the image

  Image Entry point : 0x080000c1

  Load Region LR_IROM1 (Base: 0x08000000, Size: 0x000054e4, Max: 0x00008000, ABSOLUTE)

    Execution Region ER_IROM1 (Exec base: 0x08000000, Load base: 0x08000000, Size: 0x0000546c, Max: 0x00008000, ABSOLUTE)

    Exec Addr    Load Addr    Size         Type   Attr      Idx    E Section Name        Object

    0x08000000   0x08000000   0x000000c0   Data   RO            3    RESET               startup_stm32g030xx.o
    0x080000c0   0x080000c0   0x00000008   Code   RO         4238  * !!!main             c_p.l(__main.o)
    0x080000c8   0x080000c8   0x0000003c   Code   RO         4508    !!!scatter          c_p.l(__scatter.o)
    0x08000104   0x08000104   0x0000001a   Code   RO         4510    !!handler_copy      c_p.l(__scatter_copy.o)
    0x0800011e   0x0800011e   0x00000002   PAD
    0x08000120   0x08000120   0x0000001c   Code   RO         4512    !!handler_zi        c_p.l(__scatter_zi.o)
    0x0800013c   0x0800013c   0x00000002   Code   RO         4217    .ARM.Collect$$_printf_percent$$00000000  c_p.l(_printf_percent.o)
    0x0800013e   0x0800013e   0x0000000a   Code   RO         4272    .ARM.Collect$$_printf_percent$$00000001  c_p.l(_printf_n.o)
    0x08000148   0x08000148   0x0000000a   Code   RO         4273    .ARM.Collect$$_printf_percent$$00000002  c_p.l(_printf_p.o)
    0x08000152   0x08000152   0x0000000a   Code   RO         4278    .ARM.Collect$$_printf_percent$$00000003  c_p.l(_printf_f.o)
    0x0800015c   0x0800015c   0x0000000a   Code   RO         4279    .ARM.Collect$$_printf_percent$$00000004  c_p.l(_printf_e.o)
    0x08000166   0x08000166   0x0000000a   Code   RO         4280    .ARM.Collect$$_printf_percent$$00000005  c_p.l(_printf_g.o)
    0x08000170   0x08000170   0x0000000a   Code   RO         4281    .ARM.Collect$$_printf_percent$$00000006  c_p.l(_printf_a.o)
    0x0800017a   0x0800017a   0x0000000a   Code   RO         4286    .ARM.Collect$$_printf_percent$$00000007  c_p.l(_printf_ll.o)
    0x08000184   0x08000184   0x0000000a   Code   RO         4275    .ARM.Collect$$_printf_percent$$00000008  c_p.l(_printf_i.o)
    0x0800018e   0x0800018e   0x0000000a   Code   RO         4276    .ARM.Collect$$_printf_percent$$00000009  c_p.l(_printf_d.o)
    0x08000198   0x08000198   0x0000000a   Code   RO         4277    .ARM.Collect$$_printf_percent$$0000000A  c_p.l(_printf_u.o)
    0x080001a2   0x080001a2   0x0000000a   Code   RO         4274    .ARM.Collect$$_printf_percent$$0000000B  c_p.l(_printf_o.o)
    0x080001ac   0x080001ac   0x0000000a   Code   RO         4216    .ARM.Collect$$_printf_percent$$0000000C  c_p.l(_printf_x.o)
    0x080001b6   0x080001b6   0x0000000a   Code   RO         4283    .ARM.Collect$$_printf_percent$$0000000D  c_p.l(_printf_lli.o)
    0x080001c0   0x080001c0   0x0000000a   Code   RO         4284    .ARM.Collect$$_printf_percent$$0000000E  c_p.l(_printf_lld.o)
    0x080001ca   0x080001ca   0x0000000a   Code   RO         4285    .ARM.Collect$$_printf_percent$$0000000F  c_p.l(_printf_llu.o)
    0x080001d4   0x080001d4   0x0000000a   Code   RO         4290    .ARM.Collect$$_printf_percent$$00000010  c_p.l(_printf_llo.o)
    0x080001de   0x080001de   0x0000000a   Code   RO         4291    .ARM.Collect$$_printf_percent$$00000011  c_p.l(_printf_llx.o)
    0x080001e8   0x080001e8   0x0000000a   Code   RO         4287    .ARM.Collect$$_printf_percent$$00000012  c_p.l(_printf_l.o)
    0x080001f2   0x080001f2   0x0000000a   Code   RO         4270    .ARM.Collect$$_printf_percent$$00000013  c_p.l(_printf_c.o)
    0x080001fc   0x080001fc   0x0000000a   Code   RO         4271    .ARM.Collect$$_printf_percent$$00000014  c_p.l(_printf_s.o)
    0x08000206   0x08000206   0x0000000a   Code   RO         4288    .ARM.Collect$$_printf_percent$$00000015  c_p.l(_printf_lc.o)
    0x08000210   0x08000210   0x0000000a   Code   RO         4289    .ARM.Collect$$_printf_percent$$00000016  c_p.l(_printf_ls.o)
    0x0800021a   0x0800021a   0x00000004   Code   RO         4282    .ARM.Collect$$_printf_percent$$00000017  c_p.l(_printf_percent_end.o)
    0x0800021e   0x0800021e   0x00000002   Code   RO         4367    .ARM.Collect$$libinit$$00000000  c_p.l(libinit.o)
    0x08000220   0x08000220   0x00000000   Code   RO         4389    .ARM.Collect$$libinit$$00000002  c_p.l(libinit2.o)
    0x08000220   0x08000220   0x00000000   Code   RO         4391    .ARM.Collect$$libinit$$00000004  c_p.l(libinit2.o)
    0x08000220   0x08000220   0x00000000   Code   RO         4394    .ARM.Collect$$libinit$$0000000A  c_p.l(libinit2.o)
    0x08000220   0x08000220   0x00000000   Code   RO         4396    .ARM.Collect$$libinit$$0000000C  c_p.l(libinit2.o)
    0x08000220   0x08000220   0x00000000   Code   RO         4398    .ARM.Collect$$libinit$$0000000E  c_p.l(libinit2.o)
    0x08000220   0x08000220   0x00000006   Code   RO         4399    .ARM.Collect$$libinit$$0000000F  c_p.l(libinit2.o)
    0x08000226   0x08000226   0x00000000   Code   RO         4401    .ARM.Collect$$libinit$$00000011  c_p.l(libinit2.o)
    0x08000226   0x08000226   0x0000000c   Code   RO         4402    .ARM.Collect$$libinit$$00000012  c_p.l(libinit2.o)
    0x08000232   0x08000232   0x00000000   Code   RO         4403    .ARM.Collect$$libinit$$00000013  c_p.l(libinit2.o)
    0x08000232   0x08000232   0x00000000   Code   RO         4405    .ARM.Collect$$libinit$$00000015  c_p.l(libinit2.o)
    0x08000232   0x08000232   0x0000000a   Code   RO         4406    .ARM.Collect$$libinit$$00000016  c_p.l(libinit2.o)
    0x0800023c   0x0800023c   0x00000000   Code   RO         4407    .ARM.Collect$$libinit$$00000017  c_p.l(libinit2.o)
    0x0800023c   0x0800023c   0x00000000   Code   RO         4409    .ARM.Collect$$libinit$$00000019  c_p.l(libinit2.o)
    0x0800023c   0x0800023c   0x00000000   Code   RO         4411    .ARM.Collect$$libinit$$0000001B  c_p.l(libinit2.o)
    0x0800023c   0x0800023c   0x00000000   Code   RO         4413    .ARM.Collect$$libinit$$0000001D  c_p.l(libinit2.o)
    0x0800023c   0x0800023c   0x00000000   Code   RO         4415    .ARM.Collect$$libinit$$0000001F  c_p.l(libinit2.o)
    0x0800023c   0x0800023c   0x00000000   Code   RO         4417    .ARM.Collect$$libinit$$00000021  c_p.l(libinit2.o)
    0x0800023c   0x0800023c   0x00000000   Code   RO         4419    .ARM.Collect$$libinit$$00000023  c_p.l(libinit2.o)
    0x0800023c   0x0800023c   0x00000000   Code   RO         4421    .ARM.Collect$$libinit$$00000025  c_p.l(libinit2.o)
    0x0800023c   0x0800023c   0x00000000   Code   RO         4425    .ARM.Collect$$libinit$$0000002C  c_p.l(libinit2.o)
    0x0800023c   0x0800023c   0x00000000   Code   RO         4427    .ARM.Collect$$libinit$$0000002E  c_p.l(libinit2.o)
    0x0800023c   0x0800023c   0x00000000   Code   RO         4429    .ARM.Collect$$libinit$$00000030  c_p.l(libinit2.o)
    0x0800023c   0x0800023c   0x00000000   Code   RO         4431    .ARM.Collect$$libinit$$00000032  c_p.l(libinit2.o)
    0x0800023c   0x0800023c   0x00000002   Code   RO         4432    .ARM.Collect$$libinit$$00000033  c_p.l(libinit2.o)
    0x0800023e   0x0800023e   0x00000002   Code   RO         4463    .ARM.Collect$$libshutdown$$00000000  c_p.l(libshutdown.o)
    0x08000240   0x08000240   0x00000000   Code   RO         4489    .ARM.Collect$$libshutdown$$00000002  c_p.l(libshutdown2.o)
    0x08000240   0x08000240   0x00000000   Code   RO         4491    .ARM.Collect$$libshutdown$$00000004  c_p.l(libshutdown2.o)
    0x08000240   0x08000240   0x00000000   Code   RO         4493    .ARM.Collect$$libshutdown$$00000006  c_p.l(libshutdown2.o)
    0x08000240   0x08000240   0x00000000   Code   RO         4496    .ARM.Collect$$libshutdown$$00000009  c_p.l(libshutdown2.o)
    0x08000240   0x08000240   0x00000000   Code   RO         4499    .ARM.Collect$$libshutdown$$0000000C  c_p.l(libshutdown2.o)
    0x08000240   0x08000240   0x00000000   Code   RO         4501    .ARM.Collect$$libshutdown$$0000000E  c_p.l(libshutdown2.o)
    0x08000240   0x08000240   0x00000000   Code   RO         4504    .ARM.Collect$$libshutdown$$00000011  c_p.l(libshutdown2.o)
    0x08000240   0x08000240   0x00000002   Code   RO         4505    .ARM.Collect$$libshutdown$$00000012  c_p.l(libshutdown2.o)
    0x08000242   0x08000242   0x00000000   Code   RO         4240    .ARM.Collect$$rtentry$$00000000  c_p.l(__rtentry.o)
    0x08000242   0x08000242   0x00000000   Code   RO         4301    .ARM.Collect$$rtentry$$00000002  c_p.l(__rtentry2.o)
    0x08000242   0x08000242   0x00000006   Code   RO         4313    .ARM.Collect$$rtentry$$00000004  c_p.l(__rtentry4.o)
    0x08000248   0x08000248   0x00000000   Code   RO         4303    .ARM.Collect$$rtentry$$00000009  c_p.l(__rtentry2.o)
    0x08000248   0x08000248   0x00000004   Code   RO         4304    .ARM.Collect$$rtentry$$0000000A  c_p.l(__rtentry2.o)
    0x0800024c   0x0800024c   0x00000000   Code   RO         4306    .ARM.Collect$$rtentry$$0000000C  c_p.l(__rtentry2.o)
    0x0800024c   0x0800024c   0x00000008   Code   RO         4307    .ARM.Collect$$rtentry$$0000000D  c_p.l(__rtentry2.o)
    0x08000254   0x08000254   0x00000002   Code   RO         4377    .ARM.Collect$$rtexit$$00000000  c_p.l(rtexit.o)
    0x08000256   0x08000256   0x00000000   Code   RO         4436    .ARM.Collect$$rtexit$$00000002  c_p.l(rtexit2.o)
    0x08000256   0x08000256   0x00000004   Code   RO         4437    .ARM.Collect$$rtexit$$00000003  c_p.l(rtexit2.o)
    0x0800025a   0x0800025a   0x00000006   Code   RO         4438    .ARM.Collect$$rtexit$$00000004  c_p.l(rtexit2.o)
    0x08000260   0x08000260   0x00000038   Code   RO         4224    .emb_text           c_p.l(rt_memcpy.o)
    0x08000298   0x08000298   0x00000038   Code   RO            4    .text               startup_stm32g030xx.o
    0x080002d0   0x080002d0   0x00000024   Code   RO         4165    .text               c_p.l(vsprintf.o)
    0x080002f4   0x080002f4   0x0000002c   Code   RO         4167    .text               c_p.l(__2sprintf.o)
    0x08000320   0x08000320   0x0000004e   Code   RO         4173    .text               c_p.l(_printf_pad.o)
    0x0800036e   0x0800036e   0x00000002   PAD
    0x08000370   0x08000370   0x00000098   Code   RO         4193    .text               c_p.l(_printf_hex_int_ll_ptr.o)
    0x08000408   0x08000408   0x00000188   Code   RO         4213    .text               c_p.l(__printf_flags_ss_wp.o)
    0x08000590   0x08000590   0x00000044   Code   RO         4218    .text               c_p.l(strlen.o)
    0x080005d4   0x080005d4   0x000000a0   Code   RO         4220    .text               c_p.l(strncmp.o)
    0x08000674   0x08000674   0x00000018   Code   RO         4222    .text               c_p.l(strcat.o)
    0x0800068c   0x0800068c   0x00000082   Code   RO         4225    .text               c_p.l(rt_memcpy.o)
    0x0800070e   0x0800070e   0x00000040   Code   RO         4228    .text               c_p.l(rt_memclr.o)
    0x0800074e   0x0800074e   0x00000002   PAD
    0x08000750   0x08000750   0x00000088   Code   RO         4230    .text               c_p.l(strcmp.o)
    0x080007d8   0x080007d8   0x0000015a   Code   RO         4232    .text               c_p.l(aeabi_sdiv.o)
    0x08000932   0x08000932   0x00000006   Code   RO         4236    .text               c_p.l(heapauxi.o)
    0x08000938   0x08000938   0x00000024   Code   RO         4245    .text               c_p.l(_printf_truncate.o)
    0x0800095c   0x0800095c   0x00000052   Code   RO         4247    .text               c_p.l(_printf_str.o)
    0x080009ae   0x080009ae   0x000000b0   Code   RO         4249    .text               c_p.l(_printf_intcommon.o)
    0x08000a5e   0x08000a5e   0x00000002   PAD
    0x08000a60   0x08000a60   0x0000006c   Code   RO         4251    .text               c_p.l(_printf_dec.o)
    0x08000acc   0x08000acc   0x00000026   Code   RO         4253    .text               c_p.l(_printf_charcount.o)
    0x08000af2   0x08000af2   0x00000002   PAD
    0x08000af4   0x08000af4   0x00000030   Code   RO         4255    .text               c_p.l(_printf_char_common.o)
    0x08000b24   0x08000b24   0x0000000a   Code   RO         4257    .text               c_p.l(_sputc.o)
    0x08000b2e   0x08000b2e   0x00000002   PAD
    0x08000b30   0x08000b30   0x000000bc   Code   RO         4259    .text               c_p.l(_printf_wctomb.o)
    0x08000bec   0x08000bec   0x00000070   Code   RO         4262    .text               c_p.l(_printf_longlong_dec.o)
    0x08000c5c   0x08000c5c   0x00000070   Code   RO         4268    .text               c_p.l(_printf_oct_int_ll.o)
    0x08000ccc   0x08000ccc   0x0000007a   Code   RO         4317    .text               c_p.l(lludiv10.o)
    0x08000d46   0x08000d46   0x00000002   PAD
    0x08000d48   0x08000d48   0x00000418   Code   RO         4319    .text               c_p.l(_printf_fp_dec.o)
    0x08001160   0x08001160   0x000002d8   Code   RO         4321    .text               c_p.l(_printf_fp_hex.o)
    0x08001438   0x08001438   0x0000002e   Code   RO         4326    .text               c_p.l(_printf_char.o)
    0x08001466   0x08001466   0x0000002e   Code   RO         4328    .text               c_p.l(_printf_wchar.o)
    0x08001494   0x08001494   0x00000040   Code   RO         4330    .text               c_p.l(_wcrtomb.o)
    0x080014d4   0x080014d4   0x00000028   Code   RO         4332    .text               c_p.l(rtudiv10.o)
    0x080014fc   0x080014fc   0x0000003e   Code   RO         4334    .text               c_p.l(sys_stackheap_outer.o)
    0x0800153a   0x0800153a   0x00000002   PAD
    0x0800153c   0x0800153c   0x00000010   Code   RO         4337    .text               c_p.l(rt_ctype_table.o)
    0x0800154c   0x0800154c   0x00000008   Code   RO         4342    .text               c_p.l(rt_locale_intlibspace.o)
    0x08001554   0x08001554   0x00000088   Code   RO         4344    .text               c_p.l(_printf_fp_infnan.o)
    0x080015dc   0x080015dc   0x000000d8   Code   RO         4346    .text               c_p.l(bigflt0.o)
    0x080016b4   0x080016b4   0x00000580   Code   RO         4349    .text               c_p.l(btod.o)
    0x08001c34   0x08001c34   0x00000010   Code   RO         4356    .text               c_p.l(exit.o)
    0x08001c44   0x08001c44   0x00000008   Code   RO         4373    .text               c_p.l(libspace.o)
    0x08001c4c   0x08001c4c   0x0000000c   Code   RO         4433    .text               c_p.l(sys_exit.o)
    0x08001c58   0x08001c58   0x00000002   Code   RO         4452    .text               c_p.l(use_no_semi.o)
    0x08001c5a   0x08001c5a   0x00000000   Code   RO         4454    .text               c_p.l(indicate_semi.o)
    0x08001c5a   0x08001c5a   0x00000002   PAD
    0x08001c5c   0x08001c5c   0x00000020   Code   RO           12    i.BSP_LED8910_Off   led.o
    0x08001c7c   0x08001c7c   0x00000020   Code   RO           13    i.BSP_LED8910_On    led.o
    0x08001c9c   0x08001c9c   0x00000020   Code   RO           16    i.BSP_LED_Off       led.o
    0x08001cbc   0x08001cbc   0x00000020   Code   RO           17    i.BSP_LED_On        led.o
    0x08001cdc   0x08001cdc   0x0000001c   Code   RO           18    i.BSP_LED_Toggle    led.o
    0x08001cf8   0x08001cf8   0x00000038   Code   RO          821    i.CMDSendData       usart.o
    0x08001d30   0x08001d30   0x0000000e   Code   RO          698    i.CalculateTime     tim.o
    0x08001d3e   0x08001d3e   0x00000002   PAD
    0x08001d40   0x08001d40   0x0000003c   Code   RO          491    i.Calculate_CRC16   modbus.o
    0x08001d7c   0x08001d7c   0x00000020   Code   RO          822    i.ClearCmdBuff      usart.o
    0x08001d9c   0x08001d9c   0x00000020   Code   RO          823    i.ClearDebugBuff    usart.o
    0x08001dbc   0x08001dbc   0x00000098   Code   RO          390    i.ComProcess        uart_com.o
    0x08001e54   0x08001e54   0x00000010   Code   RO          921    i.DMA1_Ch4_5_DMAMUX1_OVR_IRQHandler  stm32g0xx_it.o
    0x08001e64   0x08001e64   0x00000010   Code   RO          922    i.DMA1_Channel1_IRQHandler  stm32g0xx_it.o
    0x08001e74   0x08001e74   0x00000018   Code   RO          923    i.DMA1_Channel2_3_IRQHandler  stm32g0xx_it.o
    0x08001e8c   0x08001e8c   0x00000030   Code   RO         1466    i.DMA_CalcDMAMUXChannelBaseAndMask  stm32g0xx_hal_dma.o
    0x08001ebc   0x08001ebc   0x00000028   Code   RO         1467    i.DMA_CalcDMAMUXRequestGenBaseAndMask  stm32g0xx_hal_dma.o
    0x08001ee4   0x08001ee4   0x00000048   Code   RO         1468    i.DMA_SetConfig     stm32g0xx_hal_dma.o
    0x08001f2c   0x08001f2c   0x00000048   Code   RO          391    i.DebugShowHex      uart_com.o
    0x08001f74   0x08001f74   0x00000002   Code   RO          542    i.Error_Handler     main.o
    0x08001f76   0x08001f76   0x00000002   PAD
    0x08001f78   0x08001f78   0x0000000c   Code   RO          699    i.GetSystem1msCount  tim.o
    0x08001f84   0x08001f84   0x00000018   Code   RO          700    i.GetTIM1Count      tim.o
    0x08001f9c   0x08001f9c   0x00000074   Code   RO         1469    i.HAL_DMA_Abort     stm32g0xx_hal_dma.o
    0x08002010   0x08002010   0x0000007c   Code   RO         1470    i.HAL_DMA_Abort_IT  stm32g0xx_hal_dma.o
    0x0800208c   0x0800208c   0x00000004   Code   RO         1472    i.HAL_DMA_GetError  stm32g0xx_hal_dma.o
    0x08002090   0x08002090   0x00000006   Code   RO         1473    i.HAL_DMA_GetState  stm32g0xx_hal_dma.o
    0x08002096   0x08002096   0x00000002   PAD
    0x08002098   0x08002098   0x000000b8   Code   RO         1474    i.HAL_DMA_IRQHandler  stm32g0xx_hal_dma.o
    0x08002150   0x08002150   0x000000a4   Code   RO         1475    i.HAL_DMA_Init      stm32g0xx_hal_dma.o
    0x080021f4   0x080021f4   0x0000008c   Code   RO         1479    i.HAL_DMA_Start_IT  stm32g0xx_hal_dma.o
    0x08002280   0x08002280   0x00000024   Code   RO         1929    i.HAL_Delay         stm32g0xx_hal.o
    0x080022a4   0x080022a4   0x0000015c   Code   RO         1402    i.HAL_GPIO_Init     stm32g0xx_hal_gpio.o
    0x08002400   0x08002400   0x00000010   Code   RO         1405    i.HAL_GPIO_TogglePin  stm32g0xx_hal_gpio.o
    0x08002410   0x08002410   0x0000000c   Code   RO         1406    i.HAL_GPIO_WritePin  stm32g0xx_hal_gpio.o
    0x0800241c   0x0800241c   0x0000000c   Code   RO         1933    i.HAL_GetTick       stm32g0xx_hal.o
    0x08002428   0x08002428   0x00000064   Code   RO         1031    i.HAL_IWDG_Init     stm32g0xx_hal_iwdg.o
    0x0800248c   0x0800248c   0x00000010   Code   RO         1032    i.HAL_IWDG_Refresh  stm32g0xx_hal_iwdg.o
    0x0800249c   0x0800249c   0x00000010   Code   RO         1939    i.HAL_IncTick       stm32g0xx_hal.o
    0x080024ac   0x080024ac   0x00000028   Code   RO         1940    i.HAL_Init          stm32g0xx_hal.o
    0x080024d4   0x080024d4   0x00000048   Code   RO         1941    i.HAL_InitTick      stm32g0xx_hal.o
    0x0800251c   0x0800251c   0x00000038   Code   RO         1011    i.HAL_MspInit       stm32g0xx_hal_msp.o
    0x08002554   0x08002554   0x00000018   Code   RO         1817    i.HAL_NVIC_EnableIRQ  stm32g0xx_hal_cortex.o
    0x0800256c   0x0800256c   0x00000008   Code   RO         1821    i.HAL_NVIC_SetPriority  stm32g0xx_hal_cortex.o
    0x08002574   0x08002574   0x0000004c   Code   RO         1702    i.HAL_PWREx_ControlVoltageScaling  stm32g0xx_hal_pwr_ex.o
    0x080025c0   0x080025c0   0x0000014c   Code   RO         1168    i.HAL_RCCEx_PeriphCLKConfig  stm32g0xx_hal_rcc_ex.o
    0x0800270c   0x0800270c   0x00000158   Code   RO         1058    i.HAL_RCC_ClockConfig  stm32g0xx_hal_rcc.o
    0x08002864   0x08002864   0x00000028   Code   RO         1066    i.HAL_RCC_GetPCLK1Freq  stm32g0xx_hal_rcc.o
    0x0800288c   0x0800288c   0x0000008c   Code   RO         1067    i.HAL_RCC_GetSysClockFreq  stm32g0xx_hal_rcc.o
    0x08002918   0x08002918   0x000003e0   Code   RO         1071    i.HAL_RCC_OscConfig  stm32g0xx_hal_rcc.o
    0x08002cf8   0x08002cf8   0x00000002   Code   RO         2325    i.HAL_RTCEx_AlarmBEventCallback  stm32g0xx_hal_rtc_ex.o
    0x08002cfa   0x08002cfa   0x00000002   PAD
    0x08002cfc   0x08002cfc   0x00000028   Code   RO          647    i.HAL_RTC_AlarmAEventCallback  rtc.o
    0x08002d24   0x08002d24   0x00000044   Code   RO         2187    i.HAL_RTC_AlarmIRQHandler  stm32g0xx_hal_rtc.o
    0x08002d68   0x08002d68   0x000000a4   Code   RO         2194    i.HAL_RTC_Init      stm32g0xx_hal_rtc.o
    0x08002e0c   0x08002e0c   0x00000044   Code   RO          649    i.HAL_RTC_MspInit   rtc.o
    0x08002e50   0x08002e50   0x00000180   Code   RO         2199    i.HAL_RTC_SetAlarm_IT  stm32g0xx_hal_rtc.o
    0x08002fd0   0x08002fd0   0x0000009c   Code   RO         2200    i.HAL_RTC_SetDate   stm32g0xx_hal_rtc.o
    0x0800306c   0x0800306c   0x000000c0   Code   RO         2201    i.HAL_RTC_SetTime   stm32g0xx_hal_rtc.o
    0x0800312c   0x0800312c   0x00000034   Code   RO         2202    i.HAL_RTC_WaitForSynchro  stm32g0xx_hal_rtc.o
    0x08003160   0x08003160   0x00000010   Code   RO         1950    i.HAL_SYSCFG_EnableRemap  stm32g0xx_hal.o
    0x08003170   0x08003170   0x00000030   Code   RO         1825    i.HAL_SYSTICK_Config  stm32g0xx_hal_cortex.o
    0x080031a0   0x080031a0   0x00000002   Code   RO         3309    i.HAL_TIMEx_Break2Callback  stm32g0xx_hal_tim_ex.o
    0x080031a2   0x080031a2   0x00000002   Code   RO         3310    i.HAL_TIMEx_BreakCallback  stm32g0xx_hal_tim_ex.o
    0x080031a4   0x080031a4   0x00000002   Code   RO         3311    i.HAL_TIMEx_CommutCallback  stm32g0xx_hal_tim_ex.o
    0x080031a6   0x080031a6   0x00000002   PAD
    0x080031a8   0x080031a8   0x00000064   Code   RO         3332    i.HAL_TIMEx_MasterConfigSynchronization  stm32g0xx_hal_tim_ex.o
    0x0800320c   0x0800320c   0x0000004c   Code   RO         2599    i.HAL_TIM_Base_Init  stm32g0xx_hal_tim.o
    0x08003258   0x08003258   0x000000f0   Code   RO          703    i.HAL_TIM_Base_MspInit  tim.o
    0x08003348   0x08003348   0x00000048   Code   RO         2602    i.HAL_TIM_Base_Start  stm32g0xx_hal_tim.o
    0x08003390   0x08003390   0x00000050   Code   RO         2604    i.HAL_TIM_Base_Start_IT  stm32g0xx_hal_tim.o
    0x080033e0   0x080033e0   0x00000002   Code   RO         2633    i.HAL_TIM_IC_CaptureCallback  stm32g0xx_hal_tim.o
    0x080033e2   0x080033e2   0x00000002   PAD
    0x080033e4   0x080033e4   0x000000c0   Code   RO         2641    i.HAL_TIM_IC_Start  stm32g0xx_hal_tim.o
    0x080034a4   0x080034a4   0x00000184   Code   RO         2647    i.HAL_TIM_IRQHandler  stm32g0xx_hal_tim.o
    0x08003628   0x08003628   0x00000002   Code   RO         2650    i.HAL_TIM_OC_DelayElapsedCallback  stm32g0xx_hal_tim.o
    0x0800362a   0x0800362a   0x00000002   Code   RO         2677    i.HAL_TIM_PWM_PulseFinishedCallback  stm32g0xx_hal_tim.o
    0x0800362c   0x0800362c   0x0000001c   Code   RO          704    i.HAL_TIM_PeriodElapsedCallback  tim.o
    0x08003648   0x08003648   0x0000004c   Code   RO         2688    i.HAL_TIM_SlaveConfigSynchro  stm32g0xx_hal_tim.o
    0x08003694   0x08003694   0x00000002   Code   RO         2690    i.HAL_TIM_TriggerCallback  stm32g0xx_hal_tim.o
    0x08003696   0x08003696   0x0000003e   Code   RO         4026    i.HAL_UARTEx_EnableFifoMode  stm32g0xx_hal_uart_ex.o
    0x080036d4   0x080036d4   0x00000002   Code   RO         3617    i.HAL_UARTEx_RxEventCallback  stm32g0xx_hal_uart.o
    0x080036d6   0x080036d6   0x00000002   Code   RO         4031    i.HAL_UARTEx_RxFifoFullCallback  stm32g0xx_hal_uart_ex.o
    0x080036d8   0x080036d8   0x00000048   Code   RO         4032    i.HAL_UARTEx_SetRxFifoThreshold  stm32g0xx_hal_uart_ex.o
    0x08003720   0x08003720   0x00000046   Code   RO         4033    i.HAL_UARTEx_SetTxFifoThreshold  stm32g0xx_hal_uart_ex.o
    0x08003766   0x08003766   0x00000002   Code   RO         4035    i.HAL_UARTEx_TxFifoEmptyCallback  stm32g0xx_hal_uart_ex.o
    0x08003768   0x08003768   0x00000002   Code   RO         4036    i.HAL_UARTEx_WakeupCallback  stm32g0xx_hal_uart_ex.o
    0x0800376a   0x0800376a   0x0000007e   Code   RO         3629    i.HAL_UART_DMAStop  stm32g0xx_hal_uart.o
    0x080037e8   0x080037e8   0x00000002   Code   RO         3633    i.HAL_UART_ErrorCallback  stm32g0xx_hal_uart.o
    0x080037ea   0x080037ea   0x00000002   PAD
    0x080037ec   0x080037ec   0x00000264   Code   RO         3636    i.HAL_UART_IRQHandler  stm32g0xx_hal_uart.o
    0x08003a50   0x08003a50   0x0000006c   Code   RO         3637    i.HAL_UART_Init     stm32g0xx_hal_uart.o
    0x08003abc   0x08003abc   0x000001c0   Code   RO          826    i.HAL_UART_MspInit  usart.o
    0x08003c7c   0x08003c7c   0x00000044   Code   RO         3641    i.HAL_UART_Receive_DMA  stm32g0xx_hal_uart.o
    0x08003cc0   0x08003cc0   0x00000002   Code   RO         3644    i.HAL_UART_RxCpltCallback  stm32g0xx_hal_uart.o
    0x08003cc2   0x08003cc2   0x00000002   Code   RO         3645    i.HAL_UART_RxHalfCpltCallback  stm32g0xx_hal_uart.o
    0x08003cc4   0x08003cc4   0x000000ac   Code   RO         3647    i.HAL_UART_Transmit_DMA  stm32g0xx_hal_uart.o
    0x08003d70   0x08003d70   0x00000002   Code   RO         3649    i.HAL_UART_TxCpltCallback  stm32g0xx_hal_uart.o
    0x08003d72   0x08003d72   0x00000002   Code   RO         3650    i.HAL_UART_TxHalfCpltCallback  stm32g0xx_hal_uart.o
    0x08003d74   0x08003d74   0x00000002   Code   RO          924    i.HardFault_Handler  stm32g0xx_it.o
    0x08003d76   0x08003d76   0x00000002   PAD
    0x08003d78   0x08003d78   0x0000006c   Code   RO          463    i.LEDShowCommunicationChannel  systemstatus.o
    0x08003de4   0x08003de4   0x00000048   Code   RO          601    i.MX_DMA_Init       dma.o
    0x08003e2c   0x08003e2c   0x00000080   Code   RO          581    i.MX_GPIO_Init      gpio.o
    0x08003eac   0x08003eac   0x0000002c   Code   RO          621    i.MX_IWDG_Init      iwdg.o
    0x08003ed8   0x08003ed8   0x000000cc   Code   RO          650    i.MX_RTC_Init       rtc.o
    0x08003fa4   0x08003fa4   0x00000034   Code   RO          705    i.MX_TIM14_Init     tim.o
    0x08003fd8   0x08003fd8   0x00000034   Code   RO          706    i.MX_TIM16_Init     tim.o
    0x0800400c   0x0800400c   0x0000007c   Code   RO          707    i.MX_TIM1_Init      tim.o
    0x08004088   0x08004088   0x00000078   Code   RO          708    i.MX_TIM3_Init      tim.o
    0x08004100   0x08004100   0x00000068   Code   RO          827    i.MX_USART1_UART_Init  usart.o
    0x08004168   0x08004168   0x0000003c   Code   RO          828    i.MX_USART2_UART_Init  usart.o
    0x080041a4   0x080041a4   0x00000002   Code   RO          925    i.NMI_Handler       stm32g0xx_it.o
    0x080041a6   0x080041a6   0x00000002   PAD
    0x080041a8   0x080041a8   0x00000094   Code   RO          493    i.OnRec485Data      modbus.o
    0x0800423c   0x0800423c   0x00000002   Code   RO          926    i.PendSV_Handler    stm32g0xx_it.o
    0x0800423e   0x0800423e   0x00000018   Code   RO         2204    i.RTC_ByteToBcd2    stm32g0xx_hal_rtc.o
    0x08004256   0x08004256   0x00000044   Code   RO         2205    i.RTC_EnterInitMode  stm32g0xx_hal_rtc.o
    0x0800429a   0x0800429a   0x00000002   PAD
    0x0800429c   0x0800429c   0x00000050   Code   RO         2206    i.RTC_ExitInitMode  stm32g0xx_hal_rtc.o
    0x080042ec   0x080042ec   0x00000010   Code   RO          927    i.RTC_TAMP_IRQHandler  stm32g0xx_it.o
    0x080042fc   0x080042fc   0x0000002c   Code   RO          495    i.ResponseSetLEDStatusAck  modbus.o
    0x08004328   0x08004328   0x00000002   Code   RO          928    i.SVC_Handler       stm32g0xx_it.o
    0x0800432a   0x0800432a   0x00000002   PAD
    0x0800432c   0x0800432c   0x00000020   Code   RO          464    i.SetLEDStatus      systemstatus.o
    0x0800434c   0x0800434c   0x00000008   Code   RO          929    i.SysTick_Handler   stm32g0xx_it.o
    0x08004354   0x08004354   0x0000007c   Code   RO          544    i.SystemClock_Config  main.o
    0x080043d0   0x080043d0   0x00000010   Code   RO         4132    i.SystemInit        system_stm32g0xx.o
    0x080043e0   0x080043e0   0x00000010   Code   RO          930    i.TIM14_IRQHandler  stm32g0xx_it.o
    0x080043f0   0x080043f0   0x00000028   Code   RO          709    i.TIM1_BRK_UP_TRG_COM_IRQHandler  tim.o
    0x08004418   0x08004418   0x00000034   Code   RO          710    i.TIM1_Init         tim.o
    0x0800444c   0x0800444c   0x00000038   Code   RO          711    i.TIM3_IRQHandler   tim.o
    0x08004484   0x08004484   0x00000034   Code   RO          712    i.TIM3_Init         tim.o
    0x080044b8   0x080044b8   0x00000078   Code   RO         2692    i.TIM_Base_SetConfig  stm32g0xx_hal_tim.o
    0x08004530   0x08004530   0x0000001a   Code   RO         2693    i.TIM_CCxChannelCmd  stm32g0xx_hal_tim.o
    0x0800454a   0x0800454a   0x00000002   PAD
    0x0800454c   0x0800454c   0x0000006c   Code   RO          713    i.TIM_Count_Clear   tim.o
    0x080045b8   0x080045b8   0x00000016   Code   RO         2703    i.TIM_ETR_SetConfig  stm32g0xx_hal_tim.o
    0x080045ce   0x080045ce   0x00000002   PAD
    0x080045d0   0x080045d0   0x00000090   Code   RO         2711    i.TIM_SlaveTimer_SetConfig  stm32g0xx_hal_tim.o
    0x08004660   0x08004660   0x00000022   Code   RO         2712    i.TIM_TI1_ConfigInputStage  stm32g0xx_hal_tim.o
    0x08004682   0x08004682   0x00000026   Code   RO         2714    i.TIM_TI2_ConfigInputStage  stm32g0xx_hal_tim.o
    0x080046a8   0x080046a8   0x0000012c   Code   RO          392    i.TaskForObserUsart2Rec  uart_com.o
    0x080047d4   0x080047d4   0x00000060   Code   RO         4037    i.UARTEx_SetNbDataToProcess  stm32g0xx_hal_uart_ex.o
    0x08004834   0x08004834   0x000000ca   Code   RO         3651    i.UART_AdvFeatureConfig  stm32g0xx_hal_uart.o
    0x080048fe   0x080048fe   0x00000002   PAD
    0x08004900   0x08004900   0x00000064   Code   RO         3652    i.UART_CheckIdleState  stm32g0xx_hal_uart.o
    0x08004964   0x08004964   0x00000014   Code   RO         3653    i.UART_DMAAbortOnError  stm32g0xx_hal_uart.o
    0x08004978   0x08004978   0x0000004e   Code   RO         3654    i.UART_DMAError     stm32g0xx_hal_uart.o
    0x080049c6   0x080049c6   0x00000060   Code   RO         3655    i.UART_DMAReceiveCplt  stm32g0xx_hal_uart.o
    0x08004a26   0x08004a26   0x0000001c   Code   RO         3657    i.UART_DMARxHalfCplt  stm32g0xx_hal_uart.o
    0x08004a42   0x08004a42   0x00000030   Code   RO         3659    i.UART_DMATransmitCplt  stm32g0xx_hal_uart.o
    0x08004a72   0x08004a72   0x0000000a   Code   RO         3661    i.UART_DMATxHalfCplt  stm32g0xx_hal_uart.o
    0x08004a7c   0x08004a7c   0x00000038   Code   RO         3663    i.UART_EndRxTransfer  stm32g0xx_hal_uart.o
    0x08004ab4   0x08004ab4   0x0000001e   Code   RO         3664    i.UART_EndTxTransfer  stm32g0xx_hal_uart.o
    0x08004ad2   0x08004ad2   0x00000002   PAD
    0x08004ad4   0x08004ad4   0x0000016c   Code   RO         3669    i.UART_SetConfig    stm32g0xx_hal_uart.o
    0x08004c40   0x08004c40   0x00000084   Code   RO         3670    i.UART_Start_Receive_DMA  stm32g0xx_hal_uart.o
    0x08004cc4   0x08004cc4   0x0000009c   Code   RO         3676    i.UART_WaitOnFlagUntilTimeout  stm32g0xx_hal_uart.o
    0x08004d60   0x08004d60   0x00000090   Code   RO          931    i.USART1_IRQHandler  stm32g0xx_it.o
    0x08004df0   0x08004df0   0x00000090   Code   RO          932    i.USART2_IRQHandler  stm32g0xx_it.o
    0x08004e80   0x08004e80   0x00000030   Code   RO         4351    i.__ARM_common_ll_muluu  c_p.l(btod.o)
    0x08004eb0   0x08004eb0   0x0000001a   Code   RO         1562    i.__ARM_common_switch8  stm32g0xx_hal_dma.o
    0x08004eca   0x08004eca   0x00000002   PAD
    0x08004ecc   0x08004ecc   0x0000002c   Code   RO         4371    i.__ARM_fpclassify  m_ps.l(fpclassify.o)
    0x08004ef8   0x08004ef8   0x00000044   Code   RO         1827    i.__NVIC_SetPriority  stm32g0xx_hal_cortex.o
    0x08004f3c   0x08004f3c   0x0000000e   Code   RO         4206    i._is_digit         c_p.l(__printf_wp.o)
    0x08004f4a   0x08004f4a   0x00000002   PAD
    0x08004f4c   0x08004f4c   0x00000100   Code   RO          545    i.main              main.o
    0x0800504c   0x0800504c   0x00000064   Code   RO          831    i.u1_printf         usart.o
    0x080050b0   0x080050b0   0x0000006c   Code   RO          832    i.u2_printf         usart.o
    0x0800511c   0x0800511c   0x0000002c   Code   RO         4354    locale$$code        c_p.l(lc_numeric_c.o)
    0x08005148   0x08005148   0x0000002c   Code   RO         4382    locale$$code        c_p.l(lc_ctype_c.o)
    0x08005174   0x08005174   0x00000010   Code   RO         4292    x$fpl$printf1       fz_ps.l(printf1.o)
    0x08005184   0x08005184   0x00000010   Code   RO         4294    x$fpl$printf2       fz_ps.l(printf2.o)
    0x08005194   0x08005194   0x00000000   Code   RO         4370    x$fpl$usenofp       fz_ps.l(usenofp.o)
    0x08005194   0x08005194   0x00000014   Data   RO           19    .constdata          led.o
    0x080051a8   0x080051a8   0x00000018   Data   RO         3677    .constdata          stm32g0xx_hal_uart.o
    0x080051c0   0x080051c0   0x00000040   Data   RO         4133    .constdata          system_stm32g0xx.o
    0x08005200   0x08005200   0x00000020   Data   RO         4134    .constdata          system_stm32g0xx.o
    0x08005220   0x08005220   0x00000028   Data   RO         4194    .constdata          c_p.l(_printf_hex_int_ll_ptr.o)
    0x08005248   0x08005248   0x00000011   Data   RO         4214    .constdata          c_p.l(__printf_flags_ss_wp.o)
    0x08005259   0x08005259   0x00000003   PAD
    0x0800525c   0x0800525c   0x00000008   Data   RO         4260    .constdata          c_p.l(_printf_wctomb.o)
    0x08005264   0x08005264   0x00000026   Data   RO         4322    .constdata          c_p.l(_printf_fp_hex.o)
    0x0800528a   0x0800528a   0x00000002   PAD
    0x0800528c   0x0800528c   0x00000094   Data   RO         4347    .constdata          c_p.l(bigflt0.o)
    0x08005320   0x08005320   0x00000020   Data   RO         4506    Region$$Table       anon$$obj.o
    0x08005340   0x08005340   0x0000001c   Data   RO         4353    locale$$data        c_p.l(lc_numeric_c.o)
    0x0800535c   0x0800535c   0x00000110   Data   RO         4381    locale$$data        c_p.l(lc_ctype_c.o)


    Execution Region RW_IRAM1 (Exec base: 0x20000000, Load base: 0x0800546c, Size: 0x000013c0, Max: 0x00002000, ABSOLUTE)

    Exec Addr    Load Addr    Size         Type   Attr      Idx    E Section Name        Object

    0x20000000   0x0800546c   0x00000028   Data   RW           20    .data               led.o
    0x20000028   0x08005494   0x00000001   Data   RW          394    .data               uart_com.o
    0x20000029   0x08005495   0x00000014   Data   RW          497    .data               modbus.o
    0x2000003d   0x080054a9   0x00000003   PAD
    0x20000040   0x080054ac   0x0000000c   Data   RW          546    .data               main.o
    0x2000004c   0x080054b8   0x00000005   Data   RW          653    .data               rtc.o
    0x20000051   0x080054bd   0x00000003   PAD
    0x20000054   0x080054c0   0x0000000c   Data   RW          716    .data               tim.o
    0x20000060   0x080054cc   0x00000006   Data   RW          834    .data               usart.o
    0x20000066   0x080054d2   0x00000002   PAD
    0x20000068   0x080054d4   0x0000000c   Data   RW         1953    .data               stm32g0xx_hal.o
    0x20000074   0x080054e0   0x00000004   Data   RW         4135    .data               system_stm32g0xx.o
    0x20000078        -       0x00000097   Zero   RW          393    .bss                uart_com.o
    0x2000010f        -       0x0000000a   Zero   RW          465    .bss                systemstatus.o
    0x20000119   0x080054e4   0x00000003   PAD
    0x2000011c        -       0x00000010   Zero   RW          622    .bss                iwdg.o
    0x2000012c        -       0x00000040   Zero   RW          652    .bss                rtc.o
    0x2000016c        -       0x00000130   Zero   RW          715    .bss                tim.o
    0x2000029c        -       0x00000ac4   Zero   RW          833    .bss                usart.o
    0x20000d60        -       0x00000060   Zero   RW         4374    .bss                c_p.l(libspace.o)
    0x20000dc0        -       0x00000200   Zero   RW            2    HEAP                startup_stm32g030xx.o
    0x20000fc0        -       0x00000400   Zero   RW            1    STACK               startup_stm32g030xx.o


==============================================================================

Image component sizes


      Code (inc. data)   RO Data    RW Data    ZI Data      Debug   Object Name

        72          4          0          0          0        726   dma.o
       128         20          0          0          0        879   gpio.o
         0          0          0          0          0       1248   iic.o
        44         12          0          0         16        651   iwdg.o
       156         48         20         40          0     417223   led.o
       382         58          0         12          0       2108   main.o
       252         52          0         20          0       3416   modbus.o
       312         24          0          5         64       2246   rtc.o
        56         26        192          0       1536        632   startup_stm32g030xx.o
       192         32          0         12          0      16558   stm32g0xx_hal.o
       148         24          0          0          0      12085   stm32g0xx_hal_cortex.o
       924         42          0          0          0       7404   stm32g0xx_hal_dma.o
       376         18          0          0          0       2857   stm32g0xx_hal_gpio.o
       116         20          0          0          0       1739   stm32g0xx_hal_iwdg.o
        56          6          0          0          0        806   stm32g0xx_hal_msp.o
        76         14          0          0          0        738   stm32g0xx_hal_pwr_ex.o
      1516         88          0          0          0      20185   stm32g0xx_hal_rcc.o
       332         12          0          0          0       1624   stm32g0xx_hal_rcc_ex.o
      1188         24          0          0          0       7747   stm32g0xx_hal_rtc.o
         2          0          0          0          0        944   stm32g0xx_hal_rtc_ex.o
      1276         84          0          0          0      11938   stm32g0xx_hal_tim.o
       106         10          0          0          0       2936   stm32g0xx_hal_tim_ex.o
      2418         86         24          0          0      36469   stm32g0xx_hal_uart.o
       306         16          0          0          0       5213   stm32g0xx_hal_uart_ex.o
       392         90          0          0          0       5556   stm32g0xx_it.o
        16          6         96          4          0       1283   system_stm32g0xx.o
       140         12          0          0         10       1709   systemstatus.o
       974        148          0         12        304       7795   tim.o
       524        154          0          1        151       2356   uart_com.o
       940        116          0          6       2756       6589   usart.o

    ----------------------------------------------------------------------
     13452       1246        364        120       4840     583660   Object Totals
         0          0         32          0          0          0   (incl. Generated)
        32          0          0          8          3          0   (incl. Padding)

    ----------------------------------------------------------------------

      Code (inc. data)   RO Data    RW Data    ZI Data      Debug   Library Member Name

        44          4          0          0          0         84   __2sprintf.o
         8          0          0          0          0         68   __main.o
       392          6         17          0          0         76   __printf_flags_ss_wp.o
        14          0          0          0          0         60   __printf_wp.o
         0          0          0          0          0          0   __rtentry.o
        12          0          0          0          0          0   __rtentry2.o
         6          0          0          0          0          0   __rtentry4.o
        60          8          0          0          0          0   __scatter.o
        26          0          0          0          0          0   __scatter_copy.o
        28          0          0          0          0          0   __scatter_zi.o
        10          0          0          0          0          0   _printf_a.o
        10          0          0          0          0          0   _printf_c.o
        46          0          0          0          0        100   _printf_char.o
        48          6          0          0          0         88   _printf_char_common.o
        38          0          0          0          0         60   _printf_charcount.o
        10          0          0          0          0          0   _printf_d.o
       108         18          0          0          0         76   _printf_dec.o
        10          0          0          0          0          0   _printf_e.o
        10          0          0          0          0          0   _printf_f.o
      1048         14          0          0          0        176   _printf_fp_dec.o
       728         10         38          0          0         84   _printf_fp_hex.o
       136         16          0          0          0         76   _printf_fp_infnan.o
        10          0          0          0          0          0   _printf_g.o
       152          4         40          0          0        148   _printf_hex_int_ll_ptr.o
        10          0          0          0          0          0   _printf_i.o
       176          0          0          0          0         84   _printf_intcommon.o
        10          0          0          0          0          0   _printf_l.o
        10          0          0          0          0          0   _printf_lc.o
        10          0          0          0          0          0   _printf_ll.o
        10          0          0          0          0          0   _printf_lld.o
        10          0          0          0          0          0   _printf_lli.o
        10          0          0          0          0          0   _printf_llo.o
        10          0          0          0          0          0   _printf_llu.o
        10          0          0          0          0          0   _printf_llx.o
       112         18          0          0          0         76   _printf_longlong_dec.o
        10          0          0          0          0          0   _printf_ls.o
        10          0          0          0          0          0   _printf_n.o
        10          0          0          0          0          0   _printf_o.o
       112         10          0          0          0        112   _printf_oct_int_ll.o
        10          0          0          0          0          0   _printf_p.o
        78          0          0          0          0        100   _printf_pad.o
         2          0          0          0          0          0   _printf_percent.o
         4          0          0          0          0          0   _printf_percent_end.o
        10          0          0          0          0          0   _printf_s.o
        82          0          0          0          0         72   _printf_str.o
        36          0          0          0          0         76   _printf_truncate.o
        10          0          0          0          0          0   _printf_u.o
        46          0          0          0          0        100   _printf_wchar.o
       188          6          8          0          0         80   _printf_wctomb.o
        10          0          0          0          0          0   _printf_x.o
        10          0          0          0          0         60   _sputc.o
        64          0          0          0          0         72   _wcrtomb.o
       346          0          0          0          0         92   aeabi_sdiv.o
       216          6        148          0          0         80   bigflt0.o
      1456         30          0          0          0        336   btod.o
        16          0          0          0          0         68   exit.o
         6          0          0          0          0        136   heapauxi.o
         0          0          0          0          0          0   indicate_semi.o
        44         10        272          0          0         76   lc_ctype_c.o
        44         10         28          0          0         76   lc_numeric_c.o
         2          0          0          0          0          0   libinit.o
        30          0          0          0          0          0   libinit2.o
         2          0          0          0          0          0   libshutdown.o
         2          0          0          0          0          0   libshutdown2.o
         8          4          0          0         96         68   libspace.o
       122          0          0          0          0         72   lludiv10.o
        16          4          0          0          0         76   rt_ctype_table.o
         8          4          0          0          0         68   rt_locale_intlibspace.o
        64          0          0          0          0        108   rt_memclr.o
       186          0          0          0          0        144   rt_memcpy.o
         2          0          0          0          0          0   rtexit.o
        10          0          0          0          0          0   rtexit2.o
        40          0          0          0          0         60   rtudiv10.o
        24          0          0          0          0         60   strcat.o
       136          4          0          0          0         72   strcmp.o
        68          6          0          0          0         72   strlen.o
       160          6          0          0          0         76   strncmp.o
        12          4          0          0          0         60   sys_exit.o
        62          0          0          0          0         80   sys_stackheap_outer.o
         2          0          0          0          0         68   use_no_semi.o
        36          4          0          0          0         68   vsprintf.o
        16          4          0          0          0         76   printf1.o
        16          4          0          0          0         76   printf2.o
         0          0          0          0          0          0   usenofp.o
        44          4          0          0          0         60   fpclassify.o

    ----------------------------------------------------------------------
      7240        224        556          0         96       4156   Library Totals
        20          0          5          0          0          0   (incl. Padding)

    ----------------------------------------------------------------------

      Code (inc. data)   RO Data    RW Data    ZI Data      Debug   Library Name

      7144        212        551          0         96       3944   c_p.l
        32          8          0          0          0        152   fz_ps.l
        44          4          0          0          0         60   m_ps.l

    ----------------------------------------------------------------------
      7240        224        556          0         96       4156   Library Totals

    ----------------------------------------------------------------------

==============================================================================


      Code (inc. data)   RO Data    RW Data    ZI Data      Debug   

     20692       1470        920        120       4936     579300   Grand Totals
     20692       1470        920        120       4936     579300   ELF Image Totals
     20692       1470        920        120          0          0   ROM Totals

==============================================================================

    Total RO  Size (Code + RO Data)                21612 (  21.11kB)
    Total RW  Size (RW Data + ZI Data)              5056 (   4.94kB)
    Total ROM Size (Code + RO Data + RW Data)      21732 (  21.22kB)

==============================================================================

