:020000040800F2
:100000004013002099020008FD410008E93B000868
:1000100000000000000000000000000000000000E0
:100020000000000000000000000000008143000804
:10003000000000000000000095420008A5430008F1
:10004000AB0200080000000045430008AB020008B6
:10005000AB020008AB020008AB020008AB020008CC
:1000600000000000AD1E0008BD1E00089D1E000817
:10007000AB020008AB020008AB0200080000000061
:10008000AB02000800000000000000003944000836
:1000900000000000AB020008AB020008AB02000841
:1000A000AB020008AB020008AB020008694C000874
:1000B000F94C0008000000000000000000000000F3
:1000C00000F002F800F0BDF80CA030C80838241881
:1000D0002D18A246671EAB4654465D46AC4201D180
:1000E00000F0AFF87E460F3E0FCCB64601263342F5
:1000F00000D0FB1AA246AB463343184720510000FC
:1001000040510000103A02D378C878C1FAD852079B
:1001100001D330C830C101D504680C6070470000BD
:100120000023002400250026103A01D378C1FBD813
:10013000520700D330C100D50B60704710B56E294F
:1001400002D100F0C3FC10BD702902D100F04FF9BC
:1001500010BD662902D104F097FF10BD652902D1B8
:1001600004F092FF10BD672902D104F08DFF10BD8D
:10017000612902D104F090FF10BD03681B0A01D36E
:1001800080231943692902D100F06AFC10BD64295B
:1001900002D100F065FC10BD752902D100F060FCB1
:1001A00010BD6F2902D100F07BFD10BD782902D16E
:1001B00000F00AF910BDE92902D100F017FD10BDC9
:1001C000E42902D100F012FD10BDF52902D100F0A2
:1001D0000DFD10BDEF2902D100F06EFD10BDF82914
:1001E00002D100F0FFF810BD0368DB0901D38023C2
:1001F0001943632902D101F02AF910BD732902D1F4
:1002000001F02DF910BDE32902D101F037F910BD3D
:10021000F32902D101F03AF910BD002010BD1FB53D
:1002200001F094F904000020002104F017FF401CA5
:1002300060600020002104F0FBFEE0601FBD10B5EF
:1002400010BD01F05BF91146FFF7E9FF04F0F4FD82
:1002500001F0F0FC03B4FFF7F2FF03BC01F0F6FC81
:1002600070B505460C46164602E00FCC0FC5103E91
:10027000102EFAD2082E02D303CC03C5083E042E5A
:1002800007D301CC01C5361F03E021782970641C17
:100290006D1C761EF9D270BD07488047074800479D
:1002A000FEE7FEE7FEE7FEE7FEE7FEE70448054956
:1002B000054A064B7047000029440008C1000008A9
:1002C000400D002040130020400F0020400F002070
:1002D0001CB50C46064B7B4469460090204600F056
:1002E0000EFC04460020694600F01CFC20461CBDA4
:1002F0004B0800000FB41CB5084B06AA7B446946A6
:100300000090059800F0FBFB04460020694600F0D1
:1003100009FC20461CBC08BC04B018472508000096
:1003200070B5044685690068C10601D5302600E035
:100330002026C00707D070BD62683046A16890478C
:10034000206A401C20626D1EF6D570BD70B5044653
:1003500085690078C00707D170BD6268A168202058
:100360009047206A401C20626D1EF6D570BD0000CB
:10037000F8B50F460188090502D5224C7C4402E0FD
:10038000204C7C440E3405460021243508E0160735
:100390001209360FA65D6E541E0732431B09491C15
:1003A00016461E43F3D1224604780023240705D5C0
:1003B000702F06D0002901D00223113200F0F7FA85
:1003C000F8BD01231032F9E770B504460D46214609
:1003D000106800F0BAFA0023024629462046FFF7CB
:1003E000C7FF70BDD21DD308DB000CCBC0E730B413
:1003F000036820241268234303600823C36130BCD0
:100400000023B5E79C4D0000F3B50446002081B001
:1004100020622046E1688847002872D0252802D053
:100420006268A168ABE0594F00267F442046E1682E
:1004300088472028054608DB312D06D27819203858
:100440000078002801D00643F0E7B00701D504206A
:1004500086430020E0610746A0612A2D0AD0284685
:1004600004F0E2FC002827D0B8000019303D0090CD
:10047000856119E00298BA00121902C891610290D0
:100480002046E1688847012F054617D1E06900281A
:100490001FDA202086431CE000980A218069484327
:1004A00000994019303888612046E1688847054640
:1004B00004F0BAFC0028EFD1012F0AD02E2D08D16C
:1004C0002046E16888470546202006437F1C022F0E
:1004D000C3DBA069002803DA4042A0610120064383
:1004E000F00701D0102086436C2D0BD0682D09D069
:1004F0004C2D3CD06A2D38D0742D38D07A2D36D082
:1005000016E040E0E1682F4620468847B84205469D
:1005100009D16C2F29D001208002E16806432046D2
:100520008847054604E06C2F1DD0FF2001300643AC
:10053000002D28D028464138192803D80120C002B0
:1005400006432035204626602946029A1646FFF7C4
:10055000F5FD002810D001280BD0F61DF008C000D2
:100560000830029055E74020E1E78020D5E70020E1
:10057000D3E7361D02964CE762682846A16890478B
:10058000206A401C44E7206AFEBD0000164D0000B2
:1005900030B5441C03E00178401C00290DD08107D0
:1005A000F9D10B4BDD0104C8D11A91432940FAD08F
:1005B000001B0A0603D0C01E30BD001B30BD0A045C
:1005C00001D0801E30BD0902FCD0401E30BD0000AD
:1005D000010101010346F0B50B439B072DD1244DCA
:1005E000EF01042A29D308C810C95E1B9E43121FBD
:1005F0003E4017D0D8B2E1B2401A3106014310D1C3
:1006000098B2A1B2401A310401430AD11802210262
:10061000000A090A401A3102014302D1180E210EC4
:10062000401AF0BDA342DCD018BA21BA884201D9E1
:100630000120F0BD0020C043F0BD002A01D1002000
:10064000F0BD03780C78401C491C002B0DD0A34250
:100650000BD1521E09D003780C78401C491C002B8A
:1006600003D0A34201D1521EEBD1181BF0BD0000F4
:1006700001010101421E5378521C002BFBD10B7863
:10068000491C1370521C002BF9D17047F8B5042A8D
:100690002CD3830712D00B78491C0370401C521EC8
:1006A00083070BD00B78491C0370401C521E830734
:1006B00004D00B78491C0370401C521E8B079B0F03
:1006C00005D0C91ADF002023DE1B08C90AE0FFF7A6
:1006D000C7FDF8BD1D4608C9FD401C46B4402C436B
:1006E00010C0121F042AF5D2F308C91A521EF0D402
:1006F0000B78491C0370401C521EEAD40B78491C2D
:100700000370401C012AE4D409780170F8BD01E0AF
:1007100004C0091F0429FBD28B0701D50280801C6D
:10072000C90700D00270704700290BD0C30702D060
:100730000270401C491E022904D3830702D502809F
:10074000801C891EE3E70022EEE70022DFE70000BD
:10075000024670B50A4392072AD11E4DEE0104C825
:1007600008C9541B9443344017D0D0B2D9B2401AB0
:100770002106014310D190B299B2401A21040143DD
:100780000AD110021902000A090A401A2102014383
:1007900002D1100E190E401A70BD9A42DFD010BA65
:1007A00019BA884201D9012070BD0020C04370BD34
:1007B00002780B78401C491C002A09D09A4207D1C4
:1007C00002780B78401C491C002A01D09A42EFD0D5
:1007D000D01A70BD01010101002203098B422CD304
:1007E000030A8B4211D300239C464EE003460B4381
:1007F0003CD4002243088B4231D303098B421CD3E3
:10080000030A8B4201D394463FE0C3098B4201D3D4
:10081000CB01C01A524183098B4201D38B01C01A0C
:10082000524143098B4201D34B01C01A5241030983
:100830008B4201D30B01C01A5241C3088B4201D332
:10084000CB00C01A524183088B4201D38B00C01ADF
:10085000524143088B4201D34B00C01A5241411A06
:1008600000D201465241104670475DE0CA0F00D0E9
:100870004942031000D34042534000229C460309E2
:100880008B422DD3030A8B4212D3FC22890112BA68
:10089000030A8B420CD3890192118B4208D3890140
:1008A00092118B4204D389013AD0921100E0890958
:1008B000C3098B4201D3CB01C01A524183098B4239
:1008C00001D38B01C01A524143098B4201D34B0122
:1008D000C01A524103098B4201D30B01C01A524185
:1008E000C3088B4201D3CB00C01A524183088B420C
:1008F00001D38B00C01A5241D9D243088B4201D395
:100900004B00C01A5241411A00D20146634652417F
:100910005B10104601D34042002B00D5494270477E
:1009200063465B1000D3404201B50020C046C0467C
:1009300002BD70477047704709684A0501D540B24B
:100940007047C905FCD500B2704709684A0501D552
:10095000C0B27047C905FCD580B2704770B50C466F
:100960000546012A05D02878800600D5EA690023CB
:1009700002E0012305E05B1C934202D2E05C002808
:10098000F9D1A869E618C01AA861286AC0182862B7
:100990002846FFF7C5FC04E06A682078A968641C53
:1009A0009047B442F8D32846FFF7D0FC70BDFFB59E
:1009B00004460D4681B0243000902168880604D595
:1009C0001022E0699143216000E00120A84201DD8E
:1009D000471B00E000270498A1697A191018081A2B
:1009E000A0612078C00602D42046FFF799FC0026BB
:1009F00008E003986268A168805D9047206A401C07
:100A0000761C206204988642F3DB2078C0060AD563
:100A10002046FFF785FC06E06268A1683020904719
:100A2000206A401C206238467F1E0028F4DC07E064
:100A300000986268A168405D9047206A401C20626F
:100A400028466D1E0028F3DC2046FFF77FFC207847
:100A5000000602D5022005B0F0BD0120FBE7000032
:100A6000F7B5002575291068009914A611D0FFF775
:100A700063FF002802DA404211A608E000990968E5
:100A80008A0701D50FA602E0490704D50EA6012565
:100A900001E0FFF75AFF009F0024243704E000F034
:100AA00019FD30313955641C0028F8D12B463246E7
:100AB00021460098FFF77BFFFEBD0000000000000C
:100AC0002D0000002B0000002000000011680268CB
:100AD000006A530501D5087009E0D30501D50880E7
:100AE00005E0130602D5C21705C100E00860012029
:100AF0007047000001694A1C02610878704700B520
:100B00008FB0029100210591054901937944039129
:100B1000114604906846FFF777FC0FB000BD000057
:100B2000E5FFFFFF0A681070521C0A607047000062
:100B3000F7B50446154686B02B487844002703C80D
:100B40003E460090019111E007986A467100415AB3
:100B500002A800F09FFC411C07D02178890603D52C
:100B6000E269391891420ED83F18761C2078800629
:100B700002D5E069B84206DDAE42E5DB07987100B8
:100B8000405A0028E0D1A069C01BA0612046FFF7B1
:100B9000C7FB154878445A3803C8009000200191DB
:100BA00016E041006A460798415A02A800F072FC1C
:100BB0000590401C0AD0002505E0626802A8A168E3
:100BC000405D90476D1C05988542F6D30498401C03
:100BD000B0420490E5DB206AC01920622046FFF78E
:100BE000B5FB09B0F0BD00001A460000F7B5D21DF4
:100BF0000025D20815A6D200F52905CA11D0002A71
:100C000005DA00214042914111A60A4608E0009908
:100C100009688B0701D50FA602E0490701D50EA68A
:100C200001251146009F0024243704E000F04EF80F
:100C300030323A55641C02460A43F7D12B463246FD
:100C400021460098FFF7B3FEFEBD00000000000043
:100C50002D0000002B0000002000000070B50446AD
:100C60000021243408E05507D2086D0F3035655453
:100C70005D072A43DB08491C15461D43F3D1046870
:100C8000002310A2250708D5A40601D4002904D00A
:100C9000C46901230CA2641EC461FFF788FE70BD05
:100CA00010B5044621461068FFF74FFE00230246A8
:100CB0002046FFF7D3FF10BDD21DD108C9000CC9D3
:100CC000CCE7000000000000300000000B4670B5CB
:100CD000024689078008084319469D08141AA9414D
:100CE00025090807054308092C194841250A01066A
:100CF0000D43010A2C194141200C0D0428430D0C11
:100D000000194D41002140194D41C00869070843B1
:100D1000E908840F8D002543840024184D412419CF
:100D20006D41121BAB4107E00925ED432C1152190F
:100D300063410024401C61411C460A250026551BC6
:100D4000B441F1D270BD00007047FFB50C461E469D
:100D50008FB003CA089009914F007D0D00D16D1E20
:100D6000002108460020C0460321099A8905084051
:100D7000002A03DA8200801840080840800D01280C
:100D80000A9002DD0020C0430A90089807430DD066
:100D9000F048F149281848430714189800281DD036
:100DA0007542291E1DDD0A9842421BE01898012851
:100DB00002D00020302104E00020F24305E021545D
:100DC000401CB042FBDB30460022189B002121541E
:100DD0000F998B600A60486013B0F0BDBD1B6D1C9D
:100DE000DFE70A9A002900DA69420BA800F0F6FB57
:100DF0000BAB07CB03AB07C30899099800F05AFC6B
:100E00006B4607C30146D5480918002D00910BDD3C
:100E1000D24903980A9A49424018002303A9039033
:100E2000684600F0B7FE08E003990A9A0023081804
:100E300003A90390684600F057FE6B4607C3000401
:100E4000000C03D00020C043410800E01046189A6F
:100E5000002A03D00022009215461EE0751E05D41C
:100E6000FFF734FF303262556D1EF9D50122084379
:100E7000079602D000227F1C04E02078302801D1A0
:100E800000227F1E002A069787D01EE0112D07DA68
:100E9000FFF71CFF303262556D1C02460A43F5D144
:100EA000084303D00098002819D00EE00021681EE6
:100EB00005E0235C625C63542254401E491C81425D
:100EC000F7DBA81B401E07950690079A189900208B
:100ED000A0540F98079B069A81600CC07CE71126EE
:100EE0000020189059E7D21DF0B50D460446D108F0
:100EF00093B0C90003C90C900D9103F05DFF024649
:100F00000D98C00F01D02D2007E02068810701D582
:100F10002B2002E04007C00F4001032A0F9001D0B0
:100F2000072A05DB03462946204600F013FB0EE1A5
:100F30002078800601D5E76900E006272846652D60
:100F400004D0662814D0672D69D12DE00020112F20
:100F5000009001DB112300E07B1C0CAA03A910A860
:100F6000FFF7F3FE1199002610987D1C0E9142E0C8
:100F700001203B460CAAC0070B900120009003A95A
:100F800010A8FFF7E2FE119D129810990026002884
:100F90000E9501D1781C0D18781B02D446427D1C99
:100FA000761EE81B00903AE0012F00DA01270020AE
:100FB000112F009001DD112300E03B460CAA03A98C
:100FC00010A8FFF7C2FE11993D46109800260E9119
:100FD000217809070BD40E99A94200DA0D4603A91E
:100FE000012D04DD4A19203AD27F302A06D0B842BA
:100FF00001DA011D04DA012100910FE06D1EEFE717
:10100000002802DC86192D1A03E0411CA94200DDEC
:101010000D46801B401C00900120C0070B902078DB
:10102000000705D40098A84202DB0020C0430090CE
:1010300069460020C8720B98012102AF0337C90727
:10104000884225D0022010902B2011900B98002868
:101050000BDA40420B902D20119006E00B9800F027
:1010600039FA30317F1E0B9039701099481E0029D3
:101070001090F3DC0B980028F0D111987F1E387087
:101080002088000501D5452000E065207F1E3870CE
:1010900001A8C01BC01D0B900F98002800D0012094
:1010A00041190098C01709180B980818A169081A67
:1010B000401EA0612078C00602D42046FFF730F918
:1010C0000F98002805D06268A1689047206A401CEC
:1010D00020622078C00625D52046FFF721F921E0BF
:1010E000002E07DB0E98B04204DD03A86268805D25
:1010F000A16802E06268A16830209047206A761CEF
:10110000401C20620098401E002800900AD100F088
:101110001DFAC06862680168405CA1689047206A57
:10112000401C206228466D1E0028D9DC07E062685A
:101130003878A1687F1C9047206A401C20620B9978
:10114000481E00290B90F2DC2046FFF7FFF8032031
:1011500042E6000001FCFFFF104D0000E1DFFFFF51
:10116000D21DF0B504460D46D0088DB0C0004668CB
:1011700007683146384603F01FFE0246F00F01D0E3
:101180002D2307E02068810701D52B2302E04007CB
:10119000C00F43016846002B037001D0012000E01E
:1011A0000020032A0A9001D0072A04DB29462046A2
:1011B00000F0D0F92DE12078800601D40D2500E063
:1011C000E5697000400D0D2D01904BDA300D0021C6
:1011D0000B9008460020C046032189050840002ED8
:1011E00005DA82008018C20F1018401008408015E0
:1011F000012801DD0020C043A9000023182906D3DF
:101200009C460A460123183A1B07D34003E00122FB
:101210001205CA4094460C31202902D33A4620399F
:1012200000E032468A40002802DD002A06D119E09B
:10123000002817D10121C9078A4213D319466346F2
:101240007F185E41002806D10120C007824202D1EA
:10125000084687439E430B98310D814202D0019886
:10126000401C01902088000502D57149794402E0B4
:101270006F49794419396B460A9830221A540A98F2
:101280000A7C401C1A54401C0A900198002801DC7A
:10129000302000E031201872019A0120002A02D08B
:1012A000644BD21804E072003A4302D0614A521CE7
:1012B0000192002D02DC2278120703D56A462E2007
:1012C000507202200022864694460CE0320336011A
:1012D000120F6D1E8B5C02AA13546246521C401CF6
:1012E0009446052A01DA002DF0DC002202AE08E067
:1012F0003B0F3F01CB5C521C6D1E3354401C082A2F
:1013000001DA002DF4DC23689A0601D511E0401EB5
:10131000704504DD3218203AD27F302AF7D00028F9
:1013200007DD3218203AD27F2E2A02D11A0700D4C4
:10133000401E002D03DD3E223254401C6D1E497CB0
:1013400031540199401C002906DA2D21471C3154E3
:1013500001984042019003E02B21471C3154019831
:101360007D21C900884206DBFFF740FA3030F05596
:101370007F1C019101E0642808DB01986421FFF7DC
:1013800035FA3030F0557F1C019101E00A2806DB68
:1013900001980A21FFF72AFA3030F0557F1C019896
:1013A0000A21FFF723FA3031F1550A98A1697F1C11
:1013B0007A191018081AA0612078C00602D42046B5
:1013C000FEF7AEFF216A6E460A980818206204E014
:1013D00062683078A168761C90470A98401E0A908F
:1013E000401CF5D12078C00602D52046FEF798FFB4
:1013F00002AE09E03078761C3E280DD06268A16804
:101400009047206A401C20627F1EF3D22046FEF7E0
:101410009DFF0DB00320F0BD206A4019206203E05B
:101420006268A168302090476D1EEDD3F8E7000098
:10143000033F000001FCFFFF10B54369002B02D001
:10144000C046C04601E0FFF789FA012010BD1278BE
:10145000014624310A7000224A700122ECE711682B
:101460000022D243E8E710B54369002B02D0C04602
:10147000C04601E0FFF75CFB012010BD1288014669
:10148000243182840022C2840122ECE71168002208
:10149000D243E8E770B516460C46054600F04EF814
:1014A0000368FF200230C05C012807D0FF2C0ED853
:1014B000185D00280BD001202C7070BDFF33324620
:1014C000214608331868C3182846984770BD002085
:1014D000C04370BD01468008081A02091018020AAC
:1014E0001018020C1018C008820012185200891A35
:1014F00001E0401C0A390A29FBD27047754600F00A
:10150000A1FBAE46050069465346C008C0008546AB
:1015100018B020B5FEF7CAFE60BC00274908B646E1
:101520000026C0C5C0C5C0C5C0C5C0C5C0C5C0C5F2
:10153000C0C5403D49008D467047000010B500F021
:1015400005F8001D10BD00BF153B000000487047A6
:10155000000D0020F8B51F46044601230068DB0299
:10156000032601461840072A05DB002801D017A5ED
:1015700006E017A504E0002801D016A500E016A596
:10158000102081432160A069C01E002FA06101D0FE
:10159000401EA0612046FEF7C3FE002F09D038464A
:1015A0006268A1689047206A401C2062C01C2062CB
:1015B00006E0206AFAE762682878A1686D1C904707
:1015C000761EF8D22046FEF7C1FEF8BD4E414E0011
:1015D0006E616E00494E4600696E6600F7B51646AC
:1015E0008AB0334878446C4603467C33C06F5A68EF
:1015F0009B680DC42E487844763003AC0DC80DC4EA
:101600003720C001081837211B30FFF7EFF80546D7
:101610000C46803D1B3C02D56442012000E00020C6
:101620000027099010E0E0070CD00C2020497843F7
:10163000794432464C3941186846012300F054FA87
:101640006B4607C364107F1C002CECD1184F7F44FD
:101650002E3F16E0E80712D02001C0190EC80691EF
:10166000089307920068F04201D198190890324619
:10167000012306A903A800F037FA03AB07C36D10D6
:10168000641C002DE6D10998002806D03246694630
:10169000012303A800F07EFA05E0012332466946E3
:1016A00003A800F021FA0A9B07C30DB0F0BD0000AB
:1016B000A03B0000034640000A4610B5400D0BD089
:1016C0000121C9070F24A40200191C036408214347
:1016D000540D2143D20207E000210120F2E7D40F8C
:1016E000490021435200401E0029F8DADB0FDB07D6
:1016F000184310BDFFB50D46144685B048685168C3
:1017000003F042FB00910190A868A16803F03CFB44
:1017100002910390A868616803F036FB029A1218E0
:101720008242029201D2012000E00020019A0B18AF
:10173000D2180028019202D08A4202D903E08A42DC
:1017400001D2012000E0002000990818009068688C
:10175000A16803F019FB029A12188242029201D288
:10176000012000E00020019A0B18D21800280192F5
:1017700002D08A4202D903E08A4201D2012000E06D
:10178000002000990818009028682168400049004E
:10179000400849084018FA49471814E001994000E8
:1017A000C90F08430090019802994000C90F0843EF
:1017B0000190029803994000C90F084302900398D2
:1017C00040007F1E039000980028E7DA0898002860
:1017D00001D0EC4E00E00026B74201DA012000E023
:1017E0000020002804902AD0F71BF806C00E15D060
:1017F000029B2021091A039A8B401A430392029AF2
:10180000019BC2408B401A430292019A009BC24046
:101810008B4000991A430192C14000917B110DD079
:101820006F460320C11A03D500218200B95003E09E
:101830008A008100BA587A50401EF3D53746039883
:101840000299002800D00120014308980291002845
:1018500008460CD0002800D001200199019A4905C2
:1018600008430121D20AC902D202019200E00121FB
:101870000E9B0122D207012B02D0002B03D013E0D4
:10188000002807D120E0904204D890420CD1019B5F
:101890000B4209D0019B5918019105D10099491CAF
:1018A000009101D17F1C009200280DD01021084624
:1018B0000020C0460498002806D00F98002803D0C6
:1018C000082108460020C04628682168019B009A2C
:1018D0004840C10F0598C90739430EC009B0F0BD93
:1018E000FFB587B0099A08980899536892684068CC
:1018F000896896460022039317469446089A126810
:101900005300099A5B081268520052089A1A9E4BBB
:10191000D4180A9A002A01D0352200E0402206920B
:101920000022012315460492DB07059324E0002DD5
:1019300005D175460346039E4D1BB34109D3754639
:101940006646039B491B049D9841059B7519AC464F
:101950005F4163463B4308D0059B049EDD07760844
:101960002E435B080496059301E0521E641EC50FCA
:10197000ED0749184041521C069B9A42D7DB002DC7
:1019800004D17546039A6B1A824101D203200CE000
:10199000039A0B466B404240134303D0014303D0EC
:1019A000012002E0022000E00020614601910021B8
:1019B000009702910A99002905D06146400201432F
:1019C000704B019102E08007002302909C4201DAF3
:1019D000012000E0002007003AD01A1BD006C00EFC
:1019E00015D0029D2021019C091AC5408C40254339
:1019F000029C8C4000D001242543019C0295009D4F
:101A0000C4408D4000992C430194C1400091541171
:101A10001DD06D460221002202290CD10320001B9B
:101A200007E0002804DB8600AE59002E00D001221A
:101A3000401C0328F5DB081B02D588002A5004E06F
:101A40008000285810438A00A850491EE3D51C4640
:101A50000A98002802980CD0002800D00120019993
:101A6000019A490508430121D20AC902D202019212
:101A700000E00121109B0122D207012B02D0002B94
:101A800003D013E0002807D11FE0904204D8904211
:101A90000CD1019B0B4209D0019B5918019105D132
:101AA0000099491C009101D1641C009200280CD0BF
:101AB000102108460020C046002F06D011980028AB
:101AC00003D0082108460020C04608980999019AC9
:101AD000009B006809684840C10F0798C907214367
:101AE00082600AC00BB0F0BD00B585B001930092D2
:101AF0000A460146002302A8FFF7FCFD02A807C81A
:101B000005B000BDFFB50A461F4685B00799019391
:101B100001230091014602A8FFF7ECFD029903980A
:101B2000049ECA0F4900D20700920F224908920270
:101B30008C1A0021002800DB0C46450013486D0874
:101B4000844214D3079A002A04DA441E0026104D5A
:101B5000F64302E004460D460E46102108460020DA
:101B6000C046002F03D0042108460020C0462005AF
:101B7000E90A0843009908436905F20A1143ADE6F2
:101B800002C0FFFF013C0000FF3F0000FF07000014
:101B9000FFFFFF7F00B585B0019300920A46014622
:101BA000002302A8FFF79CFE02A807C8A8E7FFB51C
:101BB0000A461F4685B0079901930123009101460B
:101BC00002A8FFF78DFE02990398049ECA0F4900F0
:101BD000D20700920F22490892028C1A0021002895
:101BE00000DB0C46450011486D08844214D3079A67
:101BF000002A04DA441E00260D4DF64302E0044696
:101C00000D460E46102108460020C046002F03D086
:101C1000042108460020C0462005E90A084300992F
:101C200008436905F20A114358E60000FF07000067
:101C3000FFFFFF7F10B50446C046C0462046FEF7B2
:101C400009FB10BD00487047E00C00200149182036
:101C5000ABBEFEE7260002007047000010B5054A43
:101C60004100515A044A80001058002200F0D8FB6D
:101C700010BD0000A85000080000002010B5054A63
:101C80004100515A044A80001058012200F0C8FB5C
:101C900010BD0000A85000080000002000B501227F
:101CA00087B0002806D10C494B6B13434B63496B3B
:101CB000114005914100094B8000595A00910021C3
:101CC000029103210391064901920858694600F0E8
:101CD00001FB07B000BD000000100240A850000842
:101CE0000000002010B5054A4100515A044A800006
:101CF0001058012200F094FB10BD0000A85000080D
:101D00000000002010B5054A4100515A044A8000E5
:101D10001058002200F084FB10BD0000A8500008FD
:101D20000000002010B5044A4100515A034A8000C7
:101D3000105800F06EFB10BDA850000800000020F5
:101D400070B50C46054602E0012000F0B1FA0848E3
:101D500000F0B6F90228F7D00648C1694906FCD55B
:101D60000348224629465C3001F0E2FE70BD0000C7
:101D7000F80B002000440040421A884201D310466C
:101D80007047501E7047000070B504460B48002392
:101D90000B4D0FE0227850400022641CC60702D091
:101DA0004008684000E04008521CD2B2082AF5D32F
:101DB0005B1CDBB28B42EDD370BD0000FFFF000067
:101DC00001A0000010B5FF215F310448FEF7BBFC05
:101DD000034800218180417010BD00003E060020B4
:101DE0005800002010B5FF215F310448FEF7ABFC1E
:101DF000034800214180017010BD000082030020D3
:101E00005800002010B51748007801281AD116A1F3
:101E10001648FEF79DFC002815D015A11348FEF7C3
:101E200097FC002811D0022213A11048FEF7D2FB24
:101E300000280ED011480D4A018811A003F090F837
:101E4000FFF7D0FF10BD08A000E010A003F088F855
:101E5000F6E7064910A003F083F804490EA003F04A
:101E6000B1F8EDE75800002062756700820300209A
:101E70007265626F6F740000753200005A000020B6
:101E800052656331282564293A2573002072656202
:101E90006F6F7420436D64002573000010B5024815
:101EA00000F012F910BD00009C0B002010B5024894
:101EB00000F00AF910BD0000F80B002010B503482F
:101EC00000F002F9024800F0FFF810BD400B0020BE
:101ED000E40A002010B50446007814210838FEF703
:101EE0007BFC216C064A89088900891861640449D1
:101EF0008031A1641C21084001218140E16410BDB2
:101F0000000802400179074B8A00D2180265054A91
:101F10004432491E42658A07920F01219140816532
:101F200070470000FC080240F0B5846CC56C656029
:101F3000046D002C02D0446D856D65600B4C6568A6
:101F4000066C1C273E400127B7403D43656004688E
:101F500063608368102B036803D099600068C260D7
:101F6000F0BD9A600068C160F0BD00000000024052
:101F700070B50D460646002464210B48FEF7E3FBCE
:101F80001E2D09D91E256000074920184018325D12
:101F900006A1FEF7AFF9641CAC42F4D3024905A0D8
:101FA00002F0DEFF70BD0000A30000202530325893
:101FB0002000000025730000704700000148006801
:101FC0007047000054000020F0B5002808D00146FA
:101FD00020314A79022A05D00422C2630020087108
:101FE0000120F0BD026813680E24A3431360426C05
:101FF0001468FF2301339C4314600268146864086A
:10200000640014600C4A5568066C1C2426400124A8
:102010002746B7403D435560826CC56C5560026DE4
:10202000002A05D015689D431560826D406D4260A1
:102030004C7100200871F0BD00000240F8B5014667
:102040000024203101220A714B79022B03D0042194
:10205000C16301242DE003681D680E26B5431D6091
:1020600003681D686D086D001D60436C1D68FF26C8
:102070000136B5431D60104B5D68066C1C273E4061
:102080001746B7403D435D60836CC56C5D60036D72
:10209000002B07D01E68FF250135AE431E60436D3F
:1020A000856D5D604A7100220A71816B002900D044
:1020B00088472046F8BD000000000240C06B704712
:1020C0002030407970470000F0B42C490C68026859
:1020D0001368056C1C273D400426AE40264211D0F3
:1020E0005E070FD513689B0603D4146804239C4332
:1020F00014604B68046C04223C40A24013434B60C4
:10210000016B1CE00227AF40064627402036002F17
:1021100019D09F0717D513689B0605D413680A24A6
:10212000A3431360012272714B68046C1C2214409B
:102130000222A24013434B6000213171C16A002981
:102140001AD0F0BC08470827AF40274214D01B071D
:1021500012D513680E24A34313604B68046C1C2231
:10216000144001221546A5402B434B60C263727197
:1021700000213171416BE2E7F0BC70470000024082
:1021800070B504003DD02448256814212818FEF7B6
:1021900023FB8000206402202646203670712868C8
:1021A0001E4908402860E168A06862690843216907
:1021B00011430843A1690843E1690843216A0843C0
:1021C00021680A68104308602046FFF783FE01215A
:1021D000A06889030025884200D16560616C207980
:1021E0000860A06CE16C41606068401E03280AD85A
:1021F0002046FFF787FE206D0560606DA16D416090
:1022000004E0012070BD25656565A565E5630120D5
:1022100070713571002070BDF8FFFDBF0F80FFFFAA
:10222000F8B5054604462035287900278C46012854
:102230000AD00120287168790026012806D02E7165
:1022400002272E713846F8BD0220F8BD02206871C1
:10225000E66320680168490849000160614620463C
:10226000FFF762FE206B00282068016801D00E2273
:1022700005E0042291430160206801680A221143AD
:102280000160606C0168CA03084902D502680A430C
:102290000260206D002802D002680A4302602068B4
:1022A0000168012211430160CBE70000000100003A
:1022B00070B5044600F0BAF80546601C02D0044828
:1022C0004068241800F0B2F8401BA042FAD370BD59
:1022D00060000020F0B5002388E001229A40944677
:1022E000144022007ED04C68022C01D0122C0CD15C
:1022F000DC08A40027183C6A5D07ED0E0F26AE40EF
:10230000B4430E69AE4026433E6205685E00032476
:10231000B4400F79A543BF07BF0FB7402F430760F5
:102320004D68012D05D0022D03D0112D01D0122DA5
:102330000ED18568CF68A543B7402F4387604768B3
:102340006546AF430D79ED06ED0F9D403D43456079
:10235000C568A5438C68B4402C43C4604C68E40055
:1023600043D59D08244CAD002F193C6E9D07EE0E01
:102370000F25B540AC4305252D07A84201D1002506
:102380000FE01E4DA84201D101250AE01C4DA842D4
:1023900001D1022505E01B4DA84201D1032500E033
:1023A0000525B5402543144C3D66134D80352E68F8
:1023B0004F689643FF0300D516432E606E684F6842
:1023C0009643BF0300D516436E6025684E6895435B
:1023D000F60200D51543256065684E689543B60240
:1023E00002D500E001E0154365605B1C0A681446F5
:1023F000DA4000D071E7F0BD001802400004005040
:1024000000080050000C00500069084000D0012076
:10241000704742690A4201D081627047816170470A
:10242000002A01D08161704781627047014880684D
:10243000704700006000002070B504000FD02168D4
:102440001348086021681348086003CC4160206885
:10245000083C21688860FFF7E9FF054608E0012095
:1024600070BDFFF7E3FF401B302801D9032070BD8A
:102470002068C0680028F4D120680269E1688A42B7
:1024800001D0016101E004490160002070BD00003D
:10249000CCCC000055550000AAAA000000680249F3
:1024A0000160002070470000AAAA0000024881686D
:1024B00042688918816070476000002010B50848A4
:1024C00000240168821511430160204600F00AF8DB
:1024D000002801D0012401E000F028F8204610BDBA
:1024E0000020024070B50F4E002471680546002997
:1024F00015D07D20C000FEF76FF901460A4800683C
:10250000FEF76AF900F03CFE002808D1042D06D23F
:1025100000222946401E00F031F8356000E0012419
:10252000204670BD600000206C00002008B50C48FB
:1025300001680122114301600068104000900848C2
:102540004038C26B01040A43C263C06B084000906C
:10255000082000F00DFE102000F00AFE08BD00006B
:1025600040100240002805DBC106C90E012088404A
:10257000014908607047000000E100E010B502F07A
:1025800031FC10BD10B50F4C21680322520291435B
:1025900001432160C11FFF39FA390ED10A480621D3
:1025A000006848430949FEF717F9401C02E000287B
:1025B00005D0401E61694905F9D4002010BD0320F3
:1025C00010BD0000007000406C00002040420F0071
:1025D000F8B50446006800264D4D800358D54C4898
:1025E00000274038C06BC00009D449484038C26B4E
:1025F00001040A43C263C06B0840012700904548AC
:102600000168821511430160FFF710FF009005E09B
:10261000FFF70CFF0099401A022825D83D480068B2
:10262000C005F5D5E8690321090208400FD06169AA
:1026300081420CD0E86903210902EA69884301213B
:1026400009040A43EA61EA698A43EA61E861C0076A
:102650000FD0FFF7EBFE009008E0FFF7E7FE0099D0
:10266000411A2D48814201D9032609E0E869800713
:10267000F3D5E86903210902884361690843E861E9
:10268000002F05D022484038C26B01048A43C26340
:102690002078C00705D06869616880088000084319
:1026A00068612078400606D56869032109038843DC
:1026B000A168084368612088400411D568692169D0
:1026C00080008008084368610121206989078842E9
:1026D00006D10F484038C168012212041143C1607D
:1026E0002088000512D56869032189038843E168C1
:1026F000084368610121E0688903884206D10448E3
:102700004038C168012212041143C1603046F8BD4F
:10271000401002400070004088130000F8B50F46DA
:10272000060043D04D4D28684007400FB84213D2F1
:102730002868C008C00038432860FFF777FE0446C9
:1027400005E0FFF773FE011B4548814261D8286808
:102750004007400FB842F4D13068424C81070DD594
:10276000400704D5A068072109030843A060A068BA
:102770000F2109028843B1680843A0603078C00780
:1027800032D0706801280AD002280BD000280FD060
:102790003449403103280ED0C969890704E0216813
:1027A000890301E021688901002906DB0120F8BDC9
:1027B00021684905F8E7096AEFE7A168C908C90077
:1027C0000143A160FFF732FE009006E0FFF72EFE06
:1027D0000099411A224881421BD8A068382108403C
:1027E0007168C9008842F1D128684007400FB8429B
:1027F00017D91A480168C908C90039430160FFF7B1
:1028000015FE054607E0FFF711FE411B1448814203
:1028100001D90320F8BD114800684007400FB842B5
:10282000F1D13078400706D5A06807210903884315
:10283000F1680843A06000F031F8A1683C228909E2
:102840001140094A515CC906C90EC84007490860D1
:1028500007480068FFF746FEF8BD00000020024070
:102860008813000000100240BC5000086C000020DB
:10287000600000200648074900688968064A490444
:10288000490F8900515CC906C90EC8407047000055
:102890006C00002000100240FC50000810B5204CD5
:1028A000A068204A8006400F16D0A0688006410F1D
:1028B000501001290FD0A1688906490F022912D0B2
:1028C000A0688006400F042823D0A0688006400F2F
:1028D000032821D0002010BD206801218004400F72
:1028E0008140104612E0E1688B07E1689B0F4906C2
:1028F000490F491C032B00D01046FDF76DFFE1681E
:102900004904490E4843E168490F491CFDF764FF3B
:1029100010BD0120C00310BD7D20000210BD0000CD
:10292000001002400024F400F8B504007ED02078A6
:102930003827C007EB4D002846D0A868E968384022
:102940008907890F102802D008280BD001E003293D
:1029500008D001206268000482420AD1296801433C
:10296000296015E0286880032ED560680028DDD036
:102970002AE0052301211B0489049A422A6802D116
:102980000A432A60EAE782432A602868884328606D
:10299000606800280CD0FFF749FD064604E0FFF709
:1029A00045FD801B642873D828688003F7D50BE0A9
:1029B000FFF73CFD064604E0FFF738FD801B642866
:1029C000F1D828688003F7D42078800769D5A868F3
:1029D000E96838408A070721920FC902102802D0FF
:1029E000002813D001E0022A10D0E068002846D069
:1029F000286888432169084328602868FF2101313D
:102A000008432860FFF712FD06462CE02A685205AD
:102A100002D5E268002A89D06A687F231B029A43A4
:102A200063691B021A436A60002800E08DE00ED142
:102A300028688843216908432860286801218004A8
:102A4000400F8140A848FDF7C7FEA8490860A84884
:102A50000068FFF747FD002877D122E0FFF7E6FC8A
:102A6000801B02289FD828684005F7D568687F2119
:102A700009028843616909020843686011E0296816
:102A8000FF20013081432960FFF7D0FC064605E0B6
:102A900098E0FFF7CBFC801B022884D8286840050B
:102AA000F7D42078934E00072ED5A8688006400FF3
:102AB00003280AD0A0690028306A16D001210843F3
:102AC0003062FFF7B3FC07460BE0306A80071BD586
:102AD000A06900289FD017E0FFF7A8FCC01B0228C0
:102AE00070D8306A8007F7D50EE0400840003062A9
:102AF000FFF79CFC074604E0FFF798FCC01B022888
:102B000060D8306A8007F7D4207840076CD5A86871
:102B100000278006400F042818D0E86BC00008D4B6
:102B2000E96B012000070143E963E96B01400127DC
:102B3000009171480168C90519D4016882151143D3
:102B40000160FFF773FC00900DE083E0F0698007FF
:102B50004AD5A06800287DD046E0FFF767FC0099C1
:102B6000401A02282ED864480068C005F5D5A1682F
:102B7000012910D004200529F16911D04908490024
:102B8000F161F1698143F161A068002816D0FFF777
:102B90004DFC00900EE0F06901210843F061F3E77D
:102BA0000143F161F7E7FFF741FC0099411A5348EF
:102BB00081426DD8F0698007F5D50EE0FFF736FC4D
:102BC000009007E064E0FFF731FC0099411A4B48A0
:102BD00081425DD8F0698007F5D4002F04D0E96BFD
:102BE000012000078143E963E069002877D0A968E4
:102BF0008906490F022951D0012636060228286885
:102C00000DD0B0432860E86880088000E860E8687C
:102C10003B490840E860FFF709FC04463AE0B0434E
:102C20002860FFF703FC074604E0FFF7FFFBC01B2B
:102C300002282DD828688001F7D4616A206AA26A28
:102C40000843E16A120211430843216B0843E96813
:102C50002C4A00E041E011400843E8602868304316
:102C60002860E868012109070843E860FFF7DEFBF8
:102C7000044604E0FFF7DAFB001B022808D82868A6
:102C80008001F7D52BE0FFF7D1FB001B022801D90B
:102C90000320F8BD28688001F5D420E00128F8D091
:102CA000E868226A8107890F914216D17021626A11
:102CB0000140914211D17F21A26A09020140120212
:102CC00091420AD11F214904E26A0140914204D194
:102CD000400F216B4007884201D00120F8BD002041
:102CE000F8BD0000001002400024F4006C00002039
:102CF0006000002040100240007000408813000077
:102D0000FFFFFEEF8C80C11F7047000010B5084820
:102D1000017801290BD10021017001F047FB01F07E
:102D20009FF801F079F801F091F901F0FBF910BD7D
:102D30004C00002070B50446006881690125C90473
:102D4000002908DA016DC90705D0C16D2943C165A5
:102D50002046FFF7DBFF20688169890409D5016DF2
:102D6000890706D5C16D02221143C1652046FFF7D0
:102D7000CBFF2034657270BD70B504460120002C75
:102D800049D025462035687A002806D128721120BE
:102D9000C0026060204600F041F80220687221689D
:102DA000CA204862216853204862204601F07FFA19
:102DB000002829D120688169174A11408161216862
:102DC0008869A268E369104362691A431043886105
:102DD00021682069086120680169A28912041143F1
:102DE0000161204601F086FA00280DD121688A6928
:102DF000D200D2088A6122689169636AA669194380
:102E0000236A3343194391612268FF2151620028EC
:102E100001D10121697270BDBFFF8FFB08B5006849
:102E20000D49884216D10D48C1690122D2031143D0
:102E3000C1610A484038C26B01150A43C263C06BC6
:102E400000220840009011460220FFF797FB022065
:102E5000FFF788FB08BD000000280040401002403A
:102E6000FEB5064604462036307A0B4601284BD084
:102E700001203072022070721846203000902068C5
:102E800000278069002A41D0400600D4DF701978FD
:102E90009D7809040D435978DA78090292051143A7
:102EA0000D430099D869097809060D43054358690F
:102EB000996905435868084300902168CA20486210
:102EC000216853204862586AC11F2068F9390DD023
:102ED000816901225202914381612068C16D022201
:102EE0001143C165FFF7A2FA019054E08269FF2106
:102EF00001318A4382612068C16D01221143C1659D
:102F0000FFF794FA019024E00220FEBD400600D4B1
:102F1000DF70187801F0BFF90504587801F0BBF9AB
:102F200000020543987801F0B6F90543D87880058A
:102F300005430098007801F0AEF900060543D86912
:102F4000B4E7FFF773FA0199411A7D20C00081426E
:102F50001AD82068C068C007F3D0206805642168CB
:102F60000098486420688169FF2201321143816121
:102F700020688169120120E0FFF758FA0199411A8F
:102F80007D20C000814206D92168FF2048620320CD
:102F900070723772FEBD2068C0688007ECD520686B
:102FA000856421680098C864206881690122520202
:102FB00011438161206881691201114381610748D1
:102FC00001680122D204114301602168FF20486298
:102FD0000120707237720020FEBD00008018024090
:102FE000F8B5064605462036307A0B4601280FD044
:102FF0000127377202207072002A0BD0D8789C7893
:10300000000404435878097800024903084317E094
:103010000220F8BD5878C10603D5EF2108400A30D8
:103020005870D87801F037F90404587801F033F972
:1030300000020443987801F02EF904431878400305
:1030400004432968CA2048622968532048622846F8
:1030500001F02DF9002806D1074804402868446093
:10306000284601F047F92A68FF215162002800D163
:10307000777200213172F8BD3FFFFF00F7B50646B9
:1030800005462036307A0C46012810D001203072D7
:10309000022070722968CA20486229685320486259
:1030A000284601F004F90027002802D027E002207A
:1030B000FEBD029800282868806926D0400600D40A
:1030C000E7702078A378000403436078E178000279
:1030D00089050843034318480340286803602868AB
:1030E000816901229204914381612169E06808436A
:1030F00029688A6910438861284601F0FBF82A682C
:10310000FF215162002813D014E0400600D4E7707C
:10311000207801F0C0F80304607801F0BCF80002E8
:103120000343A07801F0B7F80343E0788005D1E7C6
:10313000012171723772FEBD7F7F7F0070B504463A
:103140000068C168A0229143C160FFF76FF97D2636
:103150000546F60006E0FFF769F9401BB04201D9C9
:10316000032070BD2068C0688006F4D5002070BDC3
:1031700002490A6802430A607047000000000140EB
:10318000094910B5401E884201D9012010BD074CE5
:1031900060610321081F01F025FE0020A0610720C7
:1031A0002061002010BD0000FFFFFF0000E000E0F4
:1031B0007047704770470000F0B5034620331A7F10
:1031C000012A1ED001271F7702225A7704686268FD
:1031D000A5680D4EB44205D116460F22120596433E
:1031E0004A6832437026B2430E68896816438022CB
:1031F000954329436660006881605F7700201877F7
:10320000F0BD0220F0BD0000002C014070B50400AC
:1032100005D025462035687F002802D006E0012031
:1032200070BD00202877204600F00AF80220687759
:10323000211D206801F008F901206877002070BD89
:1032400008B501681548814206D11548C26B0221B4
:103250000A43C263C06B1DE01148124A40309142DC
:103260000FD10268C9130A430260006800220840B7
:10327000009011461320FFF781F91320FFF772F930
:1032800008BD094A9142FBD10268012149040A4361
:10329000026000680840009008BD00000004004083
:1032A0000010024000200040004401400168CB684B
:1032B00001221343CB6000688168064B1940062940
:1032C00005D01304994202D0016811430160002027
:1032D000704700000700010070B505460446203520
:1032E000287F012817D001262E77022068772268D0
:1032F00090682E4B1840FF231B02984390600A6889
:10330000502A32D00EDC202A4CD006DC002A49D0CC
:10331000102A3BD146E0022070BD302A42D0402A1C
:1033200034D137E0602A28D0702A12D0012000035F
:10333000121A2BD0824229D1CB684A68896820684A
:1033400001F0BEF820688168012292031143816078
:103350001CE0CB684A688968206801F0B1F82168F0
:10336000886877221043886010E0CA68496820683E
:1033700001F0BCF85021206806E0CA68496820685E
:1033800001F0C5F86021206801F0A6F86E770020F2
:10339000287770BDCA684968206801F0A7F8402105
:1033A0002068F1E711462068EEE7000088FFCEFFB5
:1033B0007047000070B50446006801690025C943E4
:1033C0008907002915DBC168C943890711D4E91EA3
:1033D000016101202077206880698007204602D0A3
:1033E000FFF7E6FF04E000F0A7F8204600F0A5F89C
:1033F000257720680169C943490717D4C168C943C3
:10340000490713D40421C9430161022020772068B1
:1034100080698005800F204602D0FFF7C9FF04E0D5
:1034200000F08AF8204600F088F8257720680169C6
:10343000C943090716D4C168C943090712D4082132
:10344000C9430161042020772068C06980072046B5
:1034500002D0FFF7ADFF04E000F06EF8204600F068
:103460006CF8257720680169C943C90617D4C1687B
:10347000C943C90613D41021C9430161082020772C
:103480002068C0698005800F204602D0FFF790FFBA
:1034900004E000F051F8204600F04FF8257720684E
:1034A0000169C943C90708D1C168C943C90704D123
:1034B000891E0161204600F041F820680169C94376
:1034C000090609D4C168C943090605D48021C94346
:1034D00001612046FFF76DFE20680169C943C905F7
:1034E00008D4C168C943090604D4124901612046C1
:1034F000FFF75EFE20680169C943490609D4C16827
:10350000C943490605D44021C9430161204600F062
:1035100023F820680169C943890609D4C168C943F1
:10352000890605D42021C94301612046FFF742FEE8
:1035300070BD0000FFFEFFFF704770470449006840
:103540000968884203D103480168491C016070473B
:10355000A401002054000020704770B50446603478
:10356000217F012918D001212177242105468035AA
:1035700029600268116813685B085B001360012210
:103580005207114342660268116001F069F8202079
:1035900028600020207770BD022070BD7047F8B50C
:1035A000054604466035287F01281DD00120287774
:1035B00024222046803007460260206806680268A0
:1035C0005208520002602068826807235B069A4313
:1035D0000A438260204601F043F8206806602020FC
:1035E000386000202877F8BD0220F8BDF8B5054600
:1035F00004466035287F01281CD00120287724222A
:10360000204680300746026020680668026852083B
:103610005200026020688268D200D2080A438260A9
:10362000204601F01DF82068066020203860002048
:103630002877F8BD0220F8BD70477047F8B50546F9
:103640008035296804466E68006882681027120673
:10365000002A14DA212912D18168802291438160E5
:10366000606F002808D0FEF7AFFC002804D0606F20
:10367000FEF724FD20281DD0204601F041F92068E6
:103680008168490614D5222E12D1816840229143C7
:103690008160A06F002808D0FEF796FC002804D0B7
:1036A000A06FFEF70BFD202804D0204601F014F98E
:1036B0000020F8BDAF600320F8BD7047F8B503687F
:1036C0000446DA691868996816072546360F80356A
:1036D000002E60D0584EFF2721370E400740374359
:1036E00072D0D70706D0C70504D501271F62AB6883
:1036F0003B43AB60930708D5CB0706D0276802236E
:103700003B62AB6804273B43AB60530708D5CB074C
:1037100006D0276804233B62AB6802273B43AB60BB
:10372000130709D520230340334305D02668082317
:103730003362AE681E43AE60AB68002B38D0920691
:103740000AD520221040D2051140084304D0E16E72
:10375000002901D020468847A86821688968490661
:1037600001D4000729D5204601F0B6F82068816809
:1037700049061ED5826840218A438260A06F0028D6
:1037800017D02E498163A06FFEF758FC00280FD098
:10379000A06F816B0BE0960616D5012720263F0708
:1037A00006400F403E430FD0E16E22E0204688479E
:1037B000F8BD2046FFF781FFF8BD2046FFF77DFFEB
:1037C0000020A860F8BDFFE7D60208D54E0206D556
:1037D0000120000518622046FFF72FFFF2E71606CA
:1037E0000AD501278026FF05064039400E4303D045
:1037F000216F0029DAD1E5E751060DD541060BD539
:103800001A68204640218A431A602021296000213D
:10381000216700F0E7F9D5E7110205D5410003D58E
:103820002046FFF709FFCDE7D101CBD50028C9DA43
:103830002046FFF7B3FEC5E701000010F14700087E
:1038400070B5040006D02046803005460068002888
:1038500002D007E0012070BD00217C2001552046E8
:1038600000F026F8242028602068016849084900F3
:103870000160204601F054F80128ECD0A06A00282D
:1038800002D0204600F01CFF206841680922D202C5
:1038900091434160206881682A22914381602068B9
:1038A0000168012211430160204600F06FFF70BDE6
:1038B000F0B587B0044614216846FCF746FF644E15
:1038C00022686448012102230025B2425CD1614A8A
:1038D000403217688E0337431760126832400592F2
:1038E000426B0A434263406B6A46084005900320DE
:1038F000400229C204910520039569460007FEF79E
:10390000E9FC564E544830601027B7603320F5600C
:1039100070607561B561F561802035623061304657
:10392000FEF72EFC002801D0FEF746FB6667B46266
:1039300049484A4E14385C363060B5603220F56034
:1039400070607561B561F561802035623061304627
:10395000FEF716FC002801D0FEF72EFBA66700221A
:1039600011461B20B462FEF709FE1B20FEF7FAFD8C
:103970003A488C380068016839430160FF223748B3
:103980005F3237498C385EE0364EB2425DD1C66B4D
:10399000012252041643C663C66B16400596426B5D
:1039A0000A434263406B6A46C007C00F05900C2073
:1039B00029C204910520039569460007FEF78AFC99
:1039C0002548294E283830601027B7603520F5602B
:1039D00070607561B561F561802035623061304697
:1039E000FEF7CEFB002801D0FEF7E6FA6667B46268
:1039F00019481D4E14305C3E3060B5603420F560CF
:103A000070607561B561F561802035623061304666
:103A1000FEF7B6FB002801D0FEF7CEFAA66700221B
:103A200011461C20B462FEF7A9FD1C20FEF79AFD8A
:103A30000D485C3000680168394301600A48FF2284
:103A40005F320A495C3000F013F807B0F0BD0000A7
:103A5000003801400010024030000240E40A00201B
:103A60009C07002000440040F80B0020FA080020CA
:103A7000F8B5054604468035686820284ED10029EF
:103A80000BD0002A09D00123A0681B03984206D15D
:103A90002069002803D1C80701D00120F8BD2646BF
:103AA0006036307F012839D0012030775C20A16555
:103AB00002530027AF6022206860A06F00281AD050
:103AC0001749C162A16F17480863A16F1648486380
:103AD000A06F13468763A06D216884466246243137
:103AE000A06FFEF79DFB002805D01020A860377757
:103AF00020202860D1E7377720680168FF22013253
:103B000011430160206881680122114381602068AF
:103B100081684022114381600020F8BD0220F8BD79
:103B2000534800089348000805480008704770474C
:103B3000F8B50546044680352868202849D1002973
:103B40000BD0002A09D00123A0681B03984206D19C
:103B50002069002803D1C80701D00120F8BD2646FE
:103B60006036307F012834D0012030772046403045
:103B700021658282C2820027AF6021202860606FA9
:103B800000281BD01449C162616F14480863616F3B
:103B900013484863606F8763636F20689C461346D1
:103BA000024628326046216DFEF73AFB002805D018
:103BB0001020A860377720202860CEE721684020B9
:103BC0000862377720688168802211438160002075
:103BD000F8BD0220F8BD00009D480008CD4800084F
:103BE0000548000870477047FEE70000F8B500245C
:103BF00001272B4D2B4E002801D02F7002E0287892
:103C0000002814D0FF2101313046FEF7FDFB0028CB
:103C100015D0012149023046FEF7F6FB00280ED0F0
:103C20000121C9032048FEF7EFFB002807D0FF2140
:103C300001313046FEF7E8FB012821D02EE00A20B2
:103C4000FEF736FB00202870FF2101313046FEF7D9
:103C5000DBFB00280ED0012149023046FEF7D4FBE1
:103C6000002809D00121C9030F48FEF7CDFB002829
:103C700004D013E0012411E002240FE003240DE03E
:103C8000012149023046FEF7BFFB012806D1C103DE
:103C90000548FEF7B9FB012800D12F702046F8BD7A
:103CA00029000020000400500008005010B500203A
:103CB000FFF79CFF012807D0022807D0032802D174
:103CC000022000F081FA10BD0020FAE70120F8E799
:103CD00070B586B014216846FCF737FDFF2001302F
:103CE000002401256A4631C20B4E69463046FEF774
:103CF000F1FA68026A4631C269463046FEF7EAFACE
:103D0000E8036A4631C269460448FEF7E3FA04A0B4
:103D100001F026F906B070BD000400500008005004
:103D2000B9A6B7C5C4ACC8CFD1A1D4F1574D383965
:103D30003034B6FAB7C5CAE4B3F60D0A0000000085
:103D400010B50020FDF7AAFF0120FDF7A7FF022014
:103D5000FDF7A4FF0320FDF7A1FF0420FDF79EFF60
:103D60000520FDF79BFF0620FDF798FF0720FDF7D4
:103D700095FF0820FDF792FF0920FDF78FFF002037
:103D8000FDF7C0FF0120FDF7BDFF3220FEF790FADE
:103D90000220FDF7B7FF0320FDF7B4FF3220FEF746
:103DA00087FA0420FDF7AEFF0520FDF7ABFF3220B8
:103DB000FEF77EFA0620FDF7A5FF0720FDF75EFF60
:103DC0003220FEF775FA0820FDF758FF3220FEF783
:103DD0006FFA0920FDF752FF10BD000070B50D4DC0
:103DE0000024285D002804D0012806D002280BD129
:103DF00007E02046FDF776FF06E02046FDF782FF4C
:103E000002E02046FDF78EFF641CE4B20A2CE8D3E2
:103E100070BD00000701002008B51048816B012229
:103E200011438163806B10400022009011460920ED
:103E3000FEF7A4FB0920FEF795FB002211460A209D
:103E4000FEF79CFB0A20FEF78DFB002211460B209B
:103E5000FEF794FB0B20FEF785FB08BD0010024027
:103E6000F0B587B014216846FCF76FFC3548426B0B
:103E700002210A434263426B0A400592426B0421CD
:103E80000A434263426B0A400592416B0125294374
:103E90004163406B00222840059005202A49000715
:103EA000FEF7BEFA294F002209213846FEF7B8FA7C
:103EB000F6200326002400906946019602943846B5
:103EC000FEF708FA30026A4631C269463846FEF704
:103ED00001FAA80300906946019602941C48FEF777
:103EE000F9F9E8036A4631C269461948FEF7F2F962
:103EF0001120019005200294694600960394000762
:103F0000FEF7E8F910480294C01E009005206946AB
:103F1000019503940007FEF7DDF909200090029453
:103F20006946019503943846FEF7D4F981200002D2
:103F3000009005206946019602940007FEF7CAF931
:103F400007B0F0BD00100240F36000000004005014
:103F50000008005010B5084806490160052141607D
:103F60000649C1608160FEF767FA002801D0FEF7BC
:103F700023F810BD0030004014010020FF0F0000A6
:103F800030B591B014216846FCF7DFFB00242821EE
:103F900006A80594FCF7D9FB2B482A4984600160E8
:103FA0007F21C16044618461FF21C46101610121FD
:103FB000890744620162FEF7DFFE002801D0FDF7A9
:103FC000FBFF142568460570102141702421817083
:103FD00001940394002269461B480494FFF74EF8AD
:103FE000002801D0FDF7E8FF072069460875062084
:103FF00048758875CC75002205A91348FEF7F0FFB7
:10400000002801D0FDF7D8FF6846057611214176DA
:1040100005218176C80707940B9009940A940C94A3
:1040200001210D9408A8017608020F90002206A92C
:104030000548FEF715FF002801D0FDF7BDFF11B0C0
:1040400030BD0000002800403801002010B50B48AA
:104050000949016000223F21826041607D21C90041
:104060000261C16080218161FFF7D0F8002801D092
:10407000FDF7A2FF10BD000000200040A4010020B9
:1040800010B50A48084901603F2141600021816064
:104090000161074A4161C2608161FFF7B7F80028FA
:1040A00001D0FDF789FF10BD00440140E40100206C
:1040B000FFFF000010B588B0002400940194184858
:1040C00002940394049405941449069401603F21DA
:1040D000846041607D21C9000461C16080218161EB
:1040E000FFF794F8002801D0FDF766FF01200003D8
:1040F000009069460A48FFF7EFF8002801D0FDF765
:104100005BFF049404A906480694FFF755F80028BD
:1041100001D0FDF751FF08B010BD000000040040C1
:104120006401002010B5184816490160E1214902D8
:10413000416000218160C16001618161C1610162F2
:104140000C22416242618162FFF77AFB002801D0B4
:10415000FDF732FF00210C48FFF748FA002801D094
:10416000FDF72AFF00210848FFF719FA002801D0BF
:10417000FDF722FF0448FFF7F0F9002801D0FDF712
:104180001BFF10BD00380140580A002010B50D4833
:104190000B490160E1214902416000218160C16059
:1041A00001618161C16101620C22416242618162EF
:1041B000FFF746FB002801D0FDF7FEFE10BD000012
:1041C00000440040540C002010B50B4C012121701C
:1041D000062161700021A1700322E27020716171DB
:1041E00006212046FDF7D0FDA071000AE0710821EC
:1041F0002046FDF7A5FD10BD3600002070470000E9
:104200007FB50178012901D019A01EE0417803296A
:1042100003D006290DD019A017E0C17882780902D1
:104220001143012913D14179027908021043C0B228
:104230001AE0C17882780D021543417902790902AA
:104240001143CCB20A2C03D00EA000F089FE7FBD32
:10425000811D22466846FCF719FA6946284600F097
:1042600091F8FFF7BBFD204600F074F87FBD000019
:10427000416464722065727200000000436D642026
:10428000657272004C454420436F756E7420457210
:10429000720D0A0070470022014602E00A39C9B2D5
:1042A000521C0A29FAD21007000E08437047F8B5CD
:1042B000044600680025C168490618D4C1688022F8
:1042C0001143C160FEF7B2F827460646203708E0E2
:1042D000FEF7ACF8811B7D20C000814201D9032587
:1042E0007D722068C068400601D4032DF0D12846B5
:1042F000F8BD0000F8B5124C0026E1688022914319
:10430000E160A169054689062035002907DBFEF733
:1043100015FF002811D00320687206460DE0A16940
:104320002027B943A161FEF709FF002802D003202E
:1043300068720646A0693843A0613046F8BD0000A7
:104340000028004010B50248FEF7F4FC10BD000044
:104350003801002010B5094C01212170062262703D
:10436000A170E07004212046FDF70EFD2071000AC7
:10437000607106212046FDF7E3FC10BD2A000020F5
:104380007047000010B5064B0022C40701D08C5CBA
:104390009C54521C400892B20A2AF6D310BD000069
:1043A0000701002010B5FEF781F810BD70B598B078
:1043B00034216846FCF7C9F900240D940E940F943B
:1043C000182111A81094FCF7C0F901267602304696
:1043D000FEF7D8F80A200090701003904020059056
:1043E0000120069008200A90022580030B90079573
:1043F000000304940C90089509946846FEF794FA1B
:1044000007200D900F9402210E9510940DA8FEF731
:1044100085F9044816961190129411A8FEF7D8F861
:1044200018B070BD0100020001200249C00688607A
:104430007047000000ED00E010B50248FEF7BAFF3B
:1044400010BD0000A401002070B50268174B184E83
:10445000984201D0B04203D17024A2434C68224359
:10446000144C154D984208D0B04206D0134EB042BD
:1044700003D0A04201D0A84204D103263602B243A1
:10448000CE6832438026B2434E69324302608A6866
:10449000C2620A688262984203D0A04201D0A84258
:1044A00001D1096901630121416170BD002C014006
:1044B000000400400044014000480140002000404A
:1044C00030B58468FF252D021B021343AC430B4318
:1044D0002343836030BD00008268034B1A400A43C7
:1044E00007210A43826070478FFFCFFF30B5036A10
:1044F000046A6408640004628469F025AC43120114
:1045000022430A24A3430B438261036230BD30B5CA
:10451000036A1024A34303628469036A0F252D03F1
:104520001203AC432243A024A3430901194382612F
:10453000016230BDF8B53648007801281CD13548F5
:10454000354E0178012907D14078032801D006288B
:1045500002D13188122910D030A12E48FCF7F8F88A
:1045600000284FD031882FA000F0FAFC318829486C
:10457000FDF7FEFCFDF726FCF8BD2DA000F0F0FCD9
:1045800031882448FDF7F4FC328822492C48FCF796
:104590007DF82B4D2B4F2C4628781E3420706878E0
:1045A0006070E878A9780002084340BAA070000A59
:1045B000E070687929790002084342BA2271100A32
:1045C0006071901D3870A91DA01DFCF75FF8387848
:1045D000295CE1742818407820753088801E81B2EB
:1045E0002846FDF7D1FB217DE27C09028A18824230
:1045F00003D12046FFF704FEBCE7014612A000F0FD
:10460000AFFCB7E7012210211448FDF709FFB1E71D
:10461000590000203E0600205C00002068696768A1
:104620000000000052656332282564290000000064
:10463000BDD3CAD5B5BD434D44282564290000002B
:104640007000002028000020435243204572722051
:10465000253034583A253034580000000008005006
:10466000F0B513A106C985B00192009112A206CA45
:10467000039202910446416E4034002915D000682F
:104680008168806809014D0F400F02AE315C6F46B2
:10469000385CC000FCF7A0F86085785D715DC000F3
:1046A000FCF79AF8208505B0F0BD01206085F9E798
:1046B00001010103070100000804020408010101CF
:1046C00010B5018DC90707D001684A6801235B0452
:1046D0009A43C36A1A434A60018D890707D5016866
:1046E0004A6801231B049A43036B1A434A60018DF5
:1046F000490707D501684A6801239B049A43436B25
:104700001A434A60018D090707D501684A680123E9
:10471000DB039A43836B1A434A60018DC90607D5B0
:104720000268916801231B039943C36B194391608D
:10473000018D890607D501688A6801235B039A43C6
:10474000036C1A438A60018D490612D503685A68C2
:1047500001210905446C8A4322435A60426C8A4213
:1047600007D10268516803235B059943836C1943A1
:104770005160018D090607D501684A680123DB04F1
:10478000C06C9A4302434A6010BD0000FEB5054666
:10479000002680350446AE60FDF748FE0190206893
:1047A0000068124F000709D5012100970022490532
:1047B0002046019B00F024FA00280DD120680068F3
:1047C00040070BD501210097002289052046019B57
:1047D00000F016FA002801D00320FEBD202028603A
:1047E0006860603426770020FEBD0000FFFFFF01F7
:1047F00010B5806A002201464031CA83CA82FEF7A2
:104800005CFF10BDF8B5846A20468030016805461B
:1048100046682068806800270006002806DA2129FB
:1048200004D156200753204600F06AF820688068BB
:10483000400606D5222E04D15E200753204600F004
:104840004BF8A86810210843A8602046FEF735FF02
:10485000F8BD10B501460968806A0968890615D453
:1048600000225E210A5201680A68FF2301339A433D
:104870000A6001688A68520852008A6001688A6882
:1048800040239A438A60202284210A50FFF74EF980
:1048900010BD10B5806AFFF74AF910BD10B501468A
:1048A0000968806A096889060DD4002256210A52D7
:1048B00001688A6880239A438A6000680168402200
:1048C0001143016010BDFFF78DF910BD10B5806A6E
:1048D000FFF789F910BD000001680A68FF23213342
:1048E0009A430A6001688A68044B1A408A60202251
:1048F00084210A500021C16670470000FEFFFFEFCF
:1049000001680A68C0239A430A6001688A68012323
:10491000DB059A438A6020218030016070470000E7
:10492000F8B5044680682169E26908436169002698
:1049300011430843616E226801431068A94B184077
:104940000843106021684868032212039043E2681C
:1049500010434860A169206A226808439168A24B0D
:104960001940014391602068C16A626A090909011E
:104970001143C1629D49206888420FD19C4840691B
:104980008007800F10D0012804D002280CD0032803
:1049900009D101E0042007E0082005E0954988429C
:1049A00001D1002000E010200122D203E169D511DD
:1049B000914B924F91426FD1002806D0022835D0FA
:1049C00004287AD0082869D17AE0FDF753FF76E011
:1049D000012815D0022815D0032815D0042815D099
:1049E000052815D0062815D0072815D0082815D079
:1049F000092815D00A2815D00B2814D0012512E05B
:104A0000022510E004250EE006250CE008250AE04A
:104A10000A2508E00C2506E0102504E0202502E028
:104A2000402500E08025294610461BE0606A0028EA
:104A300015D001282AD002282AD003282AD00428F9
:104A40002DD005282DD006282DD007282DD00828B8
:104A50002DD009282DD00A282DD00B2800D00125D3
:104A600029461846FBF7B8FE616840004A088018DE
:104A7000FBF7B2FE80B201461039B9420ED85F4949
:104A8000491C01400007400F08437FE00225E7E78B
:104A90000425E5E70625E3E716E00EE08AE00825B1
:104AA000DEE70A25DCE70C25DAE71025D8E7202524
:104AB000D6E74025D4E78025D2E7FDF7EFFE024692
:104AC000606A00289AD083E7002806D0022835D0F3
:104AD000042874D0082879D174E0FDF7CBFE70E08B
:104AE000012815D0022815D0032815D0042815D088
:104AF000052815D0062815D0072815D0082815D068
:104B0000092815D00A2815D00B2814D0012512E049
:104B1000022510E004250EE006250CE008250AE039
:104B20000A2508E00C2506E0102504E0202502E017
:104B3000402500E08025294610461BE0606A0028D9
:104B400015D0012825D0022825D0032825D00428F7
:104B500025D0052825D0062825D0072825D00828C7
:104B600025D0092827D00A2827D00B2800D00125D6
:104B700029461846FBF730FE61684A088018FBF7A3
:104B80002BFE80B201461039B9421FD82168C86097
:104B90001DE00225ECE70425EAE70625E8E70825FD
:104BA000E6E70A25E4E70C25E2E71025E0E7202503
:104BB000DEE704E00AE04025DAE78025D8E7FDF7E4
:104BC0006DFE0246606A0028A0D089E701262046D3
:104BD00001214030418501850020E0662067304694
:104BE000F8BD0000F369FFCFFFF4FF11003801406A
:104BF00040100240004400400024F400EFFF000099
:104C0000FFB581B017460E4604460A9D09E0681CB0
:104C100007D0FDF70BFC0499401AA8420CD8002DD0
:104C20000AD02068C169304688431AD00020B842B3
:104C3000EDD0002005B0F0BD20680168FF22A13250
:104C40009143016020688168490849008160202102
:104C500020468030016041600020603420770320CE
:104C6000E8E70120E3E7000070B51C48FEF726FDE9
:104C70001A48FEF723FD194C1949206888422BD1A8
:104C8000C169C906C90F1ED0102101622046FEF776
:104C9000D5FC144800684068FF255F35281A81B2AA
:104CA0001148A942018001D3691E01800F4A0121E8
:104CB000117002880E490F48FBF7E8FC2A460C49A0
:104CC0000648FEF7D5FE2068C1690907C90F03D061
:104CD00008210162FDF786F870BD0000580A002027
:104CE00000380140400B00205A00002058000020EE
:104CF0009C0700208203002070B51C48FEF7DEFCF4
:104D00001A4C1B49206888422FD1C169C906C90FB6
:104D100022D0102101622046FEF790FC1548006861
:104D20004068FF255F35281A81B21348A9420180E7
:104D300001D3691E0180114A0121117002881049B6
:104D40001048FBF7A3FC2A460D490848FEF790FEE1
:104D500029460B48FBF7F7FC2068C1690907C90F12
:104D600003D008210162FDF72DF870BD540C00201E
:104D7000004400409C0B00205C00002059000020F3
:104D8000FA0800203E060020F8B5040C8BB2264637
:104D900082B25E43104658430D0C370C3604002196
:104DA0008019164679416E43370C36048019264621
:104DB00079416E438919F8BD4900CA0202431000C7
:104DC00000D004204A0D01D001221043044A490DAD
:104DD000914201D102210843012800D105207047EA
:104DE000FF0700008307FF22DB0E9A408907090EA8
:104DF0009940002808DB830809489B001B181868A5
:104E000090430843186070470007000F0838830874
:104E100004489B001B18D86990430843D861704729
:104E200000E400E000ED00E030380A2801D2012063
:104E30007047002070470000FDF740FBFFF7B6FA0F
:104E4000FFF70EF8FEF7E8FFFFF734F9FFF7FEF87B
:104E5000FFF768F9FFF77EF8FFF792F8FFF710F910
:104E6000FFF794F96420FDF723FAFCF7BBFFFCF78A
:104E7000A9FFFEF765FFFEF72BFF2C48FEF716FA99
:104E80006420FDF715FAFCF7ADFFFCF79BFF28A0A7
:104E900000F066F80020FCF725FF0120FCF722FF58
:104EA0000220FCF71FFF0320FCF71CFF0420FCF787
:104EB00019FF0520FCF716FF0620FCF713FF07205B
:104EC000FCF7CCFE0820FCF7C9FE0920FCF7C6FE63
:104ED000FF26204DF536204CFDF770F82168FCF7D1
:104EE0004BFFA84202D3FDF769F82060FDF766F892
:104EF0006168FCF741FF642807D3FDF75FF8606045
:104F00001648FDF7CBFAFEF7D1FEFDF757F8A1687A
:104F1000FCF732FFB04204D3FDF750F8A060FEF773
:104F20005DFFFFF707FBFCF76DFFD5E7A40100204D
:104F300053544D333247303330463620C0A9D5B9AB
:104F4000B0E556332C2047595320323032323039B5
:104F500031390000DC050000400000201401002071
:104F60000FB410B502E00120FDF7A2F91148FDF7DA
:104F7000A7F80228F7D0FF215F310F48FBF7E5FBC8
:104F800003AA0D480299FBF7A3F90CA10A48FBF705
:104F900071FB0948FBF7FCFA82B20948C16949066E
:104FA000FCD5044804498C38FEF7C2FD10BC08BC8F
:104FB00004B01847E40A0020240200200D0A000073
:104FC000003801400FB410B5154C02E00120FDF788
:104FD0006FF91448FDF774F80228F7D0E06940062D
:104FE000FCD5FF215F311048FBF7AFFB03AA0E4849
:104FF0000299FBF76DF90DA10B48FBF73BFB0A4843
:10500000FBF7C6FA82B2E0694006FCD505480649BE
:105010005C30FEF78DFD10BC08BC04B018470000E2
:1050200000440040F80B0020E00400200D0A0000BE
:1050300010B500290AD00878002807D00548784420
:10504000FBF786FB002801D0002010BD0248784401
:1050500010BD0000FE010000F601000010B500299F
:105060000AD00878002807D005487844FBF770FB81
:10507000002801D0002010BD0248784410BD000077
:10508000EE010000E601000003B4024878448446C3
:1050900003BC604757BEFFFF03B402487844844610
:1050A00003BC6047C1C0FFFF080000200100800072
:1050B000400020001000010002000040000000003D
:1050C00000000000000000000000000000000000E0
:1050D00000000000000000000000000001000000CF
:1050E00002000000030000000400000006000000B1
:1050F0000700000008000000090000000000000098
:10510000000000000000000000000000010000009E
:1051100002000000030000000400000030313233C0
:1051200034353637383941424344454640305800DB
:10513000303132333435363738396162636465660D
:105140004030780004000008000000000000000269
:10515000000100001000000000000000000000003E
:1051600030313233343536373839616263646566DD
:105170007870003031323334353637383941424374
:10518000444546585000000002400000000000A0C6
:105190000000000005400000000000C80000000002
:1051A0000C4000000000409C00000000194000007E
:1051B0000020BCBE0000000034400000BFC91B8EB0
:1051C00000000004B5400000504BCFD06607E2CF8E
:1051D000010000006C4100003E8251AADFEEA734BE
:1051E00001000000D9420000DCB5A0E23A301F9770
:1051F000FFFFFFFFB4450000FD25A0C8E9A3C14F94
:10520000FFFFFFFFFF3F00000000008000000000E4
:10521000FF3F00000000008000000000685300080D
:10522000000000207000000004010008D8530008AE
:1052300070000020D0120000200100081C000000B7
:1052400043000000F8FFFFFF0C0000000E0000000C
:105250000F0000002E0000001001000043000000BD
:10526000F8FFFFFF00404040404040404040414187
:10527000414141404040404040404040404040402B
:1052800040404040400502020202020202020202C5
:1052900002020202022020202020202020202002C2
:1052A0000202020202029090909090901010101052
:1052B00010101010101010101010101010101010EE
:1052C0000202020202028888888888880808080882
:1052D000080808080808080808080808080808084E
:1052E0000202020240000000000000000000000076
:1052F00000000000000000000000000000000000AE
:10530000000000000000000000000000000000009D
:10531000000000000000000000000000000000008D
:10532000000000000000000000000000000000007D
:10533000000000000000000000000000000000006D
:10534000000000000000000000000000000000005D
:10535000000000000000000000000000000000004D
:105360000000000000000000000400500000005099
:1053700000040050000000500000005000000050E9
:1053800000000050000000500000005000000050DD
:1053900000010103020000000106010000000103FA
:1053A00000000000000000000000000000000000FD
:1053B00000000000000000000000000000000000ED
:1053C00000000000000000000400000001000000D8
:0853D000000000000024F400BD
:04000005080000C12E
:00000001FF
