:020000040800F2
:1000000000200020F53B00086D1200086F12000868
:1000100000000000000000000000000000000000E0
:100020000000000000000000000000007112000845
:1000300000000000000000007312000875120008A4
:10004000453C0008000000007D120008453C000807
:10005000453C0008453C0008453C0008453C00087C
:10006000000000008D1200089D120008B512000863
:10007000453C0008350E0008453C00080000000023
:10008000010E00080000000000000000C51200087A
:1000900000000000453C0008453C0008453C0008C5
:1000A000453C0008453C0008453C0008D5120008C6
:0800B0006D13000800000000C0
:1000B80002780B78002A03D0013001319A42F7D038
:1000C800D01A70470023C25C0133002AFBD1581EA6
:1000D8007047000003B47146490840004900095EB2
:1000E80049008E4403BC7047002934D00123002204
:1000F80010B488422CD301242407A14204D281429F
:1001080002D209011B01F8E7E400A14204D28142AE
:1001180002D249005B00F8E7884201D3401A1A432B
:100128004C08A04202D3001B5C0822438C08A04262
:1001380002D3001B9C082243CC08A04202D3001B18
:10014800DC082243002803D01B0901D00909E3E792
:10015800100010BC704701B5002000F05FF802BD28
:100168000029F8D003B5FFF7C1FF0EBC4243891A36
:100178001847C046002941D010B404004C40A4469A
:1001880001230022002900D54942002800D5404219
:1001980088422CD301242407A14204D2814202D2EE
:1001A80009011B01F8E7E400A14204D2814202D20E
:1001B80049005B00F8E7884201D3401A1A434C080B
:1001C800A04202D3001B5C0822438C08A04202D341
:1001D800001B9C082243CC08A04202D3001BDC0869
:1001E8002243002803D01B0901D00909E3E71000C6
:1001F8006446002C00D5404210BC704701B5002071
:1002080000F00CF802BDC0460029F7D003B5FFF78F
:10021800B3FF0EBC4243891A1847C0467047C04610
:1002280010B5064C2378002B07D1054B002B02D0C4
:10023800044800E000BF0123237010BD8C0000209B
:100248000000000014460008044B10B5002B03D032
:100258000349044800E000BF10BDC046000000008C
:10026800900000201446000870B506000D000D48E7
:100278006422002103F026FD1E2D00D91E2500242E
:1002880008E060000019325D0749064BC01803F00A
:10029800D7FC0134A542F4D80249044800F0DAFD3D
:1002A80070BDC046E4000020344600083C46000803
:1002B80070B51A4B1B78012B00D070BD184919482E
:1002C800FFF7F6FE002817D017491648FFF7F0FE8B
:1002D800002817D015491348022203F0FBFC002818
:1002E80014D1104D124C2900200000F0B3FD290054
:1002F800200000F0EBFD02E0094800F0ABFD00F043
:1003080089FFDAE70B4800F0A5FDF8E7054A0A4B34
:1003180019880A4800F09EFDF1E7C046EE0A002061
:1003280040460008F40A00204446000858460008E1
:100338003C4600084C460008F00A00205C460008CD
:10034800F8B5364B1B78012B00D0F8BD344B1B7821
:10035800012B0DD033493248FFF7AAFE002852D1AD
:1003680001221021304801F0B7FD00F067FFECE7EB
:100378002B4B5B78032B01D0062BEBD12B4B198829
:100388001229E7D12A4800F065FD284C2188244D20
:100398002800FFF769FF2788264C3A00290020002B
:1003A80003F0D0FC2378244D2B7063786B70A2780F
:1003B800E378120213436B80237962791B021A4394
:1003C80016B2AA800636F6B21C4B1E70A81DA11DD7
:1003D80003F0B8FCA35DEB740136A35D2B75023FF7
:1003E800B9B2200000F030F801002A7D1202EB7C3F
:1003F800D218904203D0124800F02CFDB5E70E4801
:1004080000F058F8B1E7094C21880E4800F022FDA9
:1004180021880348FFF728FFA7E7C0462A080020DD
:10042800300800208C460008000800502C080020E6
:1004380068460008C4000020AC000020A800002086
:10044800784600089446000830B5030000240C489C
:100458000EE040080133DBB2072B06D8C207F8D5F7
:100468004008084A504080B2F4E70134E4B22B0057
:100478008C4204D25D1C1B7858400023ECE730BD49
:10048800FFFF000001A0FFFF10B5094C01232370F6
:1004980006226270A370E07004212000FFF7D4FFE9
:1004A8002071000A60710621200000F04FFD10BD88
:1004B8000000002030B585B00378012B0CD14378BB
:1004C800032B0ED0062B22D1458804790A2C0FD095
:1004D800114800F0BFFC02E0104800F0BBFC05B07A
:1004E80030BD4388012BFAD10079FFF7CDFFF6E73D
:1004F800811D2200684603F025FC6946280000F0AB
:1005080011F800F021F82000FFF7BEFFE7E70448E4
:1005180000F0A0FCE3E7C046AC460008A04600088F
:10052800BC46000810B5002302E0400801339BB226
:10053800092B05D8C207F8D5CC5C024AD454F4E795
:1005480010BDC0464801002010B5002404E020007A
:1005580000F030F80134E4B2062C0FD8144B1B5DC0
:10056800012BF4D0022B05D0002BF3D1200000F092
:1005780031F8EFE7200000F05DF8EBE7072404E02E
:10058800200000F037F80134E4B2092C0FD8084BEA
:100598001B5D012BF4D0022B05D0002BF3D12000DA
:1005A80000F038F8EFE7200000F044F8EBE710BD62
:1005B8004801002010B5054B4200D15A044B800079
:1005C800C058002201F088FC10BDC0460C47000846
:1005D8000800002010B5054B4200D15A044B80009A
:1005E800C058012201F078FC10BDC0460C47000835
:1005F8000800002010B5054B4200D15A044B80007A
:10060800C058012201F068FC10BDC0460C47000824
:100618000800002010B5054B4200D15A044B800059
:10062800C058002201F058FC10BDC0460C47000815
:100638000800002010B5044B4200D15A034B80003B
:10064800C05801F04FFC10BD0C47000808000020FE
:1006580070B598B0342200210BA803F033FB1022A8
:10066800002107A803F02EFB1822002101A803F09F
:1006780029FB8026B600300001F022FE0A230B93E6
:10068800F6330E9300240F94C03B10933F3B119315
:1006980002251295139514940733159380239B0212
:1006A800169380239B0517930BA800F001FF0723DF
:1006B8000793089509940A94022107A801F0AAF95A
:1006C800044B01930294069601A801F083FA18B02E
:1006D80070BDC0460100020030B587B01422002169
:1006E80001A803F0EFFA01F0A1FEFFF7B1FF00F057
:1006F8006FF800F0B5F800F0E1F900F023FA00F027
:1007080041FC00F0D5F800F0EBF800F035FA00F005
:1007180071FC00F08DF9642001F0AEFE00F07AFD66
:1007280000F08CFD224800F095FB224802F08EF97B
:1007380000F0F0FA00F008FB00F020FB642001F064
:100748009BFE00F067FD00F079FD1EE000F0C8FA9E
:10075800194B186000F0D2FA0100184D2860184CA7
:10076800200000F077FB2968200000F0AFFB00F0C4
:1007780005FB14E000F0B4FA124B1860124800F0C0
:100788008FFEFFF7DDFDFFF793FD00F0A9FA0A4B96
:10079800196800F0ABFAFA239B009842D6D200F011
:1007A8009FFA084B196800F0A1FA6328E2D8E8E735
:1007B800C4460008F80100205C0100205801002010
:1007C800EC4600085401002060010020704700003A
:1007D80030B589B01422002103A803F073FA1B4B2B
:1007E800596B022211435963596B0A400092009ACF
:1007F800596B042211435963596B0A400192019ABB
:10080800596B0122114359635B6B1A400292029B98
:100818000F4B03930324049403A90E4801F098FA9C
:10082800C0231B02039304940025059503A90A48D5
:1008380001F08EFA094B039304940595A02003A9AF
:10084800C00501F085FA09B030BDC046001002406D
:10085800FF0300000004005000080050B3800000AF
:1008680000B583B0114A916B012319439163926BD0
:1008780013400193019B00220021092001F096FDFD
:10088800092001F097FD002200210A2001F08EFDC9
:100898000A2001F08FFD002200210B2001F086FDC7
:1008A8000B2001F087FD03B000BDC04600100240D8
:1008B80010B50848084B036005234360074BC36025
:1008C800836000F0BDFD002800D110BDFFF77EFF5A
:1008D800FBE7C0466001002000300040FF0F000029
:1008E80010B590B0142200210BA803F0EBF90024F6
:1008F8000A9428220021684603F0E4F92D482E4B7B
:10090800036084607F23C360803303614461846132
:10091800C4618023DB050362446201F04FFE0028B6
:100928003CD10BA914230B70043B4B7014338B7010
:1009380000234B60CB600B611E48002201F0A0FE33
:1009480000282ED10AA907230B70013B4B708B702E
:100958000023CB701748002201F0F8FE002823D1AD
:1009680014236A461370033B53700C3B93700023A7
:10097800019303930493802212060592069307932A
:10098800203301226946CA54E033099309480022FA
:1009980001F030FF00280AD110B010BDFFF716FF94
:1009A800BFE7FFF713FFCDE7FFF710FFD8E7FFF723
:1009B8000DFFF1E7700100200028004000B583B06A
:1009C80002680E4B9A4201D003B000BD0C4BD96DA2
:1009D800802212020A43DA65DA6B8021C9000A43D1
:1009E800DA63DB6B0B400193019B0022002102209C
:1009F80001F0DCFC022001F0DDFCE5E70028004006
:100A08000010024010B5094B1B78012B00D010BD17
:100A1800064B00221A70FFF71BFEFFF7D9FEFFF7FF
:100A28001FFF00F08FF800F0ADFAF0E79C010020FE
:100A380000B589B01422002103A803F043F90C2261
:100A48000021684603F03EF919481A4B0360002359
:100A580043608360184AC26003614361836102F0A6
:100A68002BF900281BD10723039349330493002350
:100A7800059307930E4803A902F0A6F9002811D19F
:100A880000230093019302930948694602F06EFA25
:100A980000280AD1064801F0D9FF09B000BDFFF7C8
:100AA80095FEE0E7FFF792FEEAE7FFF78FFEF1E732
:100AB80090020020002C0140FFFF000000B589B023
:100AC8001422002103A803F0FDF80C220021684637
:100AD80003F0F8F81848194B03600023436083605B
:100AE800174AC2600361836102F0E6F800281AD150
:100AF80007230393493304930023059307930E4870
:100B080003A902F061F9002810D100230093029391
:100B18000948694602F02AFA00280AD1064801F075
:100B280095FF09B000BDFFF751FEE1E7FFF74EFE64
:100B3800EBE7FFF74BFEF1E744020020000400401A
:100B4800FFFF000010B50A480A4B03603F234360CB
:100B580000238360FA229200C260036180338361BC
:100B680002F0AAF8002800D110BDFFF72FFEFBE71E
:100B7800F80100200020004010B50A480A4B036025
:100B88003F23436000238360084AC26003614361D6
:100B9800836102F091F8002800D110BDFFF716FE1E
:100BA800FBE7C046AC01002000440140FFFF000005
:100BB80010B58CB004001422002107A803F082F8B5
:100BC80023683A4A93420AD0394A93422DD0394A87
:100BD80093424DD0384A93425DD00CB010BD374B8C
:100BE8001A6C802109010A431A641A6C0A4001929E
:100BF800019A596B0122114359635B6B1A400292A7
:100C0800029B80235B000793FE3B08930B93A02075
:100C180007A9C00501F09CF8002200210D2001F071
:100C2800C5FB0D2001F0C6FBD7E7244BDA6B022188
:100C38000A43DA63DA6B0A400392039A586B01227B
:100C4800104358635B6B13400493049B4023079342
:100C580008910B92A02007A9C00501F079F800229D
:100C68000021102001F0A2FB102001F0A3FBB4E743
:100C7800124B1A6C802109020A431A641B6C0B4040
:100C88000593059B00220021132001F08FFB132000
:100C980001F090FBA1E7094B1A6C802189020A43F5
:100CA8001A641B6C0B400693069B96E7002C0140C8
:100CB80000040040002000400044014000100240B1
:100CC8000268054B1B689A4200D07047034A1368B4
:100CD80001331360F9E7C046F8010020A80100209D
:100CE800014B18687047C046A8010020884201D30C
:100CF800401A7047401A0138FBE70000034B186898
:100D08000004034B1B685B6AC0187047A0010020F1
:100D18009002002010B5032201210D2001F046FBAE
:100D28000D2001F047FB074C200001F061FE22680E
:100D3800D36801210B43D3600021200002F080F822
:100D480010BDC0469002002010B5032201211020DA
:100D580001F02CFB102001F02DFB074C200001F0C6
:100D680047FE2268D36801210B43D360002120008D
:100D780002F066F810BDC04644020020184B1B68FC
:100D8800196A184A114207D1196A174A114203D140
:100D98001A6801218A431A60144B00221A60104B0A
:100DA8001B685A621A6801210A431A60104B1B68B3
:100DB800196A0C4A114207D1196A0B4A114203D128
:100DC8001A6801218A431A600A4B00221A60084BEC
:100DD8001B685A621A6801210A431A607047C046A4
:100DE800900200201111000044040000A00100201E
:100DF80044020020A401002010B5094C200001F095
:100E08005DFE23681B69074A1368013313600648AF
:100E180000F020F82368022252421A6110BDC04631
:100E280044020020A4010020F446000810B5074C35
:100E3800200001F043FE2268136905490B6801335D
:100E48000B6002235B42136110BDC0469002002074
:100E5800A00100200FB410B582B002E0012001F01B
:100E68000BFB154801F026FA0228F7D0134CAF22E5
:100E780052000021200002F025FF05AA01920499E2
:100E8800200002F013FF2000FFF71CF920180C497E
:100E9800032202F057FF2000FFF714F982B2094B32
:100EA800DB695B06FBD50549074802F0C9F802B0C3
:100EB80010BC08BC04B0184780040020540C002063
:100EC800FC46000800380140DC0400200FB410B5CF
:100ED80082B002E0012001F0CFFA174801F0EAF9E8
:100EE8000228F7D0154BDB695B06FBD5144CAF2203
:100EF80052000021200002F0E5FE05AA01920499A3
:100F0800200002F0D3FE2000FFF7DCF820180D497E
:100F1800032202F017FF2000FFF7D4F882B2074B34
:100F2800DB695B06FBD50649074802F089F802B081
:100F380010BC08BC04B018476C03002000440040F3
:100F480090090020FC460008DC02002070B504006F
:100F58000D0002E0012001F08FFA074801F0AAF91C
:100F68000228F7D0054BDB695B06FBD504482A004D
:100F7800210002F065F870BD6C03002000440040B9
:100F8800DC02002010B51948194B0360E1235B020D
:100F9800436000238360C36003610C224261836164
:100FA800C36103624362836202F0C8FC002811D166
:100FB8000E48002102F0C5FD00280ED10B48002183
:100FC80002F0E4FD00280BD1084802F098FD002843
:100FD80009D110BDFFF7FAFBEAE7FFF7F7FBEDE7EA
:100FE800FFF7F4FBF0E7FFF7F1FBF2E7DC04002082
:100FF8000038014010B50C480C4B0360E1235B023C
:10100800436000238360C36003610C2242618361F3
:10101800C36103624362836202F090FC002800D13E
:1010280010BDFFF7D3FBFBE7DC02002000440040C3
:1010380010B58AB004001422002105A802F042FE6F
:101048002368654A934204D0644A934263D00AB045
:1010580010BD634B1A6C8021C9010A431A641A6CCB
:101068000A400192019A596B0122114359635B6B43
:1010780013400293029BC023DB00059302230693CF
:101088000992A02005A9C00500F062FE5548564BFC
:10109800036033234360233B83600023C3608022C3
:1010A800026143618361C361036200F077FF002836
:1010B8002BD14C4BA3679C624C484D4B03603223A9
:1010C800436000238360C3608022026143618361BF
:1010D800C361036200F062FF002819D1434BE36744
:1010E8009C62002200211B2001F060F91B2001F006
:1010F80061F940480268136810210B431360AF225E
:101108003D49520002F09AFCA1E7FFF75FFBD0E7E8
:10111800FFF75CFBE2E7324BDA6B802189020A4376
:10112800DA63DA6B0A400392039A596B012211437E
:1011380059635B6B13400493049B0C2305930A3B90
:1011480006930992A02005A9C00500F001FE2B48CE
:101158002B4B036035234360253B83600023C3602A
:101168008022026143618361C361036200F016FF5C
:1011780000282BD1214BA3679C622248224B036095
:101188003423436000238360C3608022026143618B
:101198008361C361036200F001FF002819D1194B74
:1011A800E3679C62002200211C2001F0FFF81C204C
:1011B80001F000F915480268136810210B43136009
:1011C800AF221349520002F039FC40E7FFF7FEFA5C
:1011D800D0E7FFF7FBFAE2E700380140004400409F
:1011E8000010024080040020300002402404002047
:1011F8001C000240DC040020CC0600206C03002008
:1012080008000240C803002044000240DC0200201D
:101218006C05002010B50648AF225200002102F0EC
:1012280051FD044B00221A80034B1A7010BDC046B2
:10123800F40A0020F00A0020EE0A002010B5064843
:10124800AF225200002102F03DFD044B00221A801B
:10125800034B1A7010BDC046300800202C0800202F
:101268002A0800207047FEE77047704710B501F064
:10127800F1F810BD10B5024801F018F910BDC046CC
:101288007001002010B5024800F0AEFF10BDC04646
:101298006C03002010B5034800F0A6FF024800F0D8
:1012A800A3FF10BD240400208004002010B50248CC
:1012B80000F09AFF10BDC046C803002010B50248D0
:1012C80001F0FCFB10BDC046F801002010B51E4C13
:1012D800200001F0C7FF200001F0C4FF23681B4A6B
:1012E800934200D010BDDA69D20609D4164B1A68A9
:1012F800D3691B07F6D508231362FFF78BFFF1E7C5
:1013080010221A62104801F0FFFE114B1B685B683F
:10131800AF225200D31A9BB20E490B80934202D3DC
:101328005E22FF320A800C4B01221A700B48094BCF
:101338001A880B4C210002F005FDAF22024852002A
:10134800210002F07BFBD1E7DC04002000380140DB
:1013580024040020F00A0020EE0A0020F40A0020ED
:10136800CC06002070B5204C200001F07BFF2368DC
:101378001E4A934200D070BDDA69D20609D41A4BCE
:101388001A68D3691B07F6D508231362FFF756FFBF
:10139800F1E710221A62144801F0B6FE144B1B68DC
:1013A8005B68AF225200D31A9BB212490B8093425A
:1013B80002D35E22FF320A800F4B01221A700F48B7
:1013C8000C4B1A880E4C210002F0BCFCAF256D00B6
:1013D80005482A00210002F031FB2A0000212000E4
:1013E80002F070FCCBE7C046DC020020004400405D
:1013F800C80300202C0800202A08002030080020FC
:101408006C05002000B583B00C4B196C0122114308
:101418001964196C0A400092009ADA6B8021490518
:101428000A43DA63DB6B0B400193019B082001F050
:1014380035F8102001F032F803B000BD001002406A
:1014480070B5041E24D00368124A1A600368124A51
:101458001A60036842685A60036882689A6001F0FB
:1014680005F805002368DA68002A06D000F0FEFFB8
:10147800401B3028F6D9032070BD1969E2689142F3
:1014880002D01A610020F7E7044A1A600020F3E747
:101498000120F1E7CCCC000055550000AAAA0000B5
:1014A8000368024A1A6000207047C046AAAA0000D2
:1014B80070B582B0041E00D12CE20368DB0739D571
:1014C800C14A916838230B40D16803220A40102B87
:1014D80026D0082B26D063688022520293427FD000
:1014E800A022D202934200D181E0B74B1A68B749D3
:1014F8000A401A601A68B6490A401A606368002BE5
:1015080000D180E000F0B2FF0500AF4B1B689B03E1
:1015180010D400F0ABFF401B6428F6D90320FAE191
:10152800032AD6D1A84B1B689B0303D56368002BFD
:1015380000D1F2E123689B0731D5A34A916838238B
:101548000B40D16803220A40102B6AD0002B6BD1C4
:101558009D4A1268520503D5E268002A00D1DEE1EF
:10156800994842689B490A40616909020A434260F6
:10157800002B0DD1036898490B4021690B43036088
:101588000368DB0A07221A40944BD340944A13603D
:10159800944B186800F01EFF002800D0C1E12368B2
:1015A8001B0700D481E0884B9A6838231340182B16
:1015B80073D0A369002B00D1B4E0834A136E0121D4
:1015C8000B43136600F052FF05007F4B1B6E9B0711
:1015D8006BD400F04BFF401B0228F6D903209AE198
:1015E800794A116880235B020B43136086E7764BC8
:1015F80019688022D2020A431A60196880225202AE
:101608000A431A607AE700F031FF05006E4B1B6849
:101618009B038FD500F02AFF401B6428F6D90320CE
:1016280079E1022A92D193E7E368002B22D0664A37
:10163800136869490B4021690B43136011688023C3
:101648005B000B43136000F011FF05005E4B1B6845
:101658005B0506D400F00AFF401B0228F6D90320D8
:1016680059E159494B685B4A1340626912021343B6
:101678004B6094E7544A13685B490B40136000F0D1
:10168800F5FE0500504B1B685B0588D500F0EEFEA3
:10169800401B0228F6D903203DE14B4B1B6E9B07EC
:1016A80003D5A369002B00D13DE123685B0700D473
:1016B800A2E0454B9A6838231340202B45D0424B73
:1016C800DB6BDB004AD4404BDA6B802149050A43C7
:1016D800DA63DB6B0B400193019B0125434B1B68CD
:1016E800DB053DD5A368012B4ED0052B52D0364BD8
:1016F800DA6D01218A43DA65DA6D03318A43DA65E6
:10170800A368002B50D000F0B1FE06002E4BDB6D15
:101718009B076FD400F0AAFE801B354B9842F5D981
:101728000320F8E0284A136E01218B43136600F06A
:101738009DFE0500244B1B6E9B07B6D500F096FE58
:10174800401B0228F6D90320E5E01F4BDB6D9B0701
:1017580052D5A368002B4FD10120DCE00025BDE75E
:10176800224A116880235B000B43136000F07EFE61
:1017780006001E4B1B68DB05B4D400F077FE801B07
:101788000228F6D90320C6E00F4AD36D01210B4386
:10179800D365B5E70C4BDA6D04210A43DA65DA6DD7
:1017A80003390A43DA65ABE700F060FE0600064B32
:1017B800DB6D9B071ED500F059FE801B0C4B984231
:1017C800F5D90320A7E0C04600100240FFFFFEFF46
:1017D800FFFFFBFFFF80FFFFFFC7FFFF0024F400B0
:1017E8003800002034000020FFFEFFFF007000409A
:1017F80088130000012D26D0E369002B00D194E066
:10180800514A916838220A40102A61D0022B20D010
:101818004D4B1A684D490A401A60DA6803218A4319
:10182800DA60DA684A490A40DA6000F01FFE04000C
:10183800454B1B689B0149D500F018FE001B022888
:10184800F6D9032067E0404AD36B42490B40D36383
:10185800D2E73D4A13683D490B40136000F006FE8D
:101868000500394B1B689B0106D500F0FFFD401BA6
:101878000228F6D903204EE0334AD3683649194086
:10188800236A606A0343A06A00020343E06A0343D1
:10189800206B03430B43D360116880235B040B4325
:1018A8001360D16880235B050B43D36000F0DEFD35
:1018B8000400254B1B689B0106D400F0D7FD001BD4
:1018C8000228F6D9032026E0002024E0002022E0A8
:1018D800012B2CD01C4BDA6803231340216A8B425E
:1018E80027D170231340616A8B4224D1FE21C9019C
:1018F8001140A36A1B0299421FD1F8239B0313408E
:10190800E16A8B421BD1520F5207236B9A4218D1BE
:10191800002000E0012002B070BD0120FBE701209B
:10192800F9E70120F7E70120F5E70020F3E70120B8
:10193800F1E70120EFE70120EDE70120EBE70120C7
:10194800E9E70120E7E7C04600100240FFFFFFFE7D
:10195800FFFFFEEFFFFFFFEF8C80C11F10B52A4B82
:101968009B6838221A4207D1274B1A68D20A0723E4
:1019780013402648D84010BD234B9A68382313409B
:10198800082B3BD0204B9A6838231340102B0DD0DE
:101998001D4B9A6838231340202B31D01A4B9A6874
:1019A80038231340182B26D00020E4E7164AD168C4
:1019B8000D3B0B40D2681209072111400131032B5E
:1019C8000FD01248FEF790FB0F4BDA68120A7F23FC
:1019D800134058430C4BD968490F0131FEF784FB7B
:1019E800C9E70B48FEF780FB074BDA68120A7F232A
:1019F80013405843EEE7FA20C001BCE70448BAE7B1
:101A080080200002B7E7C046001002400024F4001E
:101A180000127A0070B504000D00002800D1AAE079
:101A2800574B1A68072313408B4221D323689A0720
:101A38000ED55B0705D5534A9168E023DB010B43BC
:101A48009360504A936850490B40A1680B439360D8
:101A58002368DB0754D56368012B20D0022B3BD0C9
:101A6800002B3FD1474A126852051CD401206AE076
:101A7800434A136807218B432B43136000F0F6FC9D
:101A880006003F4B1A6807231340AB42CED000F044
:101A9800EDFC801B3D4A9042F3D9032053E0394ABC
:101AA8001268920369D537498A680720824313432D
:101AB8008B6000F0DBFC0600324B9B6838221A4032
:101AC8006368DB009A421BD000F0D0FC801B2F4BD0
:101AD8009842F1D9032036E02A4A12689201E2D4EA
:101AE800012030E0032B05D0264AD26D9207DAD4C4
:101AF800012028E0234A126E9207D4D4012022E064
:101B08001F4B1A6807231340AB421DD823685B0795
:101B180006D51C4A93681E490B40E1680B43936045
:101B2800FFF71CFF174B9A68120A0F231340194A34
:101B38009B009A581F231340D840174B1860174B27
:101B4800186800F047FC70BD0D4A136807218B43E5
:101B58002B43136000F08AFC0600094B1A68072320
:101B68001340AB42D2D000F081FC801B074B984257
:101B7800F3D90320E7E70120E5E70120E3E7C046C2
:101B88000020024000100240FFF0FFFF8813000011
:101B9800FF8FFFFFE04700083800002034000020D6
:101BA800014B18687047C0463800002010B5FFF791
:101BB800F7FF064B9A68120B07231340044A9B0051
:101BC8009A581F231340D84010BDC0460010024049
:101BD800C0470008F0B583B0040003689B0362D5D2
:101BE800534BDB6BDB001ED4514BDA6B802149056C
:101BF8000A43DA63DB6B0B400193019B01264D4AD4
:101C0800116880235B000B43136000F02FFC050074
:101C1800484B1B68DB0508D400F028FC401B022851
:101C2800F6D9032502E00026E9E70025002D23D197
:101C38003F4BD96DC02292000B001340114210D0C7
:101C480062699A420DD03A4AD36D3B490B40D06D38
:101C5800802149020143D165D16D38480140D165E1
:101C6800D365DB0710D4002D06D1314AD36D324934
:101C78000B4061690B43D365012E15D12C4AD36BF8
:101C88002F490B40D3630FE000F0F0FB0700284B0F
:101C9800DB6D9B07E7D400F0E9FBC01B294B98429A
:101CA800F5D90325DFE700252368DB0706D5204A99
:101CB800536D03218B4361680B43536523689B066F
:101CC80006D51B4A536D20490B40A1680B43536549
:101CD80023685B040BD5164A536D9B009B0821694A
:101CE8000B43536522698023DB059A4211D0236890
:101CF8001B050BD50E4A536D14490B40E1680B4385
:101D08005365E2688023DB019A4209D0280003B0BA
:101D1800F0BD074AD16880235B020B43D360E6E736
:101D2800034AD16880235B020B43D360EEE7C046C9
:101D38000010024000700040FFFCFFFFFFFFFEFFA5
:101D4800FFFFFFEF88130000FFCFFFFFFF3FFFFFFC
:101D5800F0B5D6464F464646C0B5002336E00326C2
:101D680000E00026A64034003C43574E183292004B
:101D780094518022B758EA433E00AE434C68E403CE
:101D880001D53E002E43504C8027E6518426A759A2
:101D98003E0016404C68A40301D53E002E434A4C31
:101DA8008427E65127683E0016404C68E40201D5B6
:101DB8003E002E43444C2660666832404C68A402BC
:101DC80001D52A003243404C626001330C6822007E
:101DD800DA4074D001229A40250015401442F4D00C
:101DE8004C68661E012E03D9112C01D0122C11D17A
:101DF80086685F000324BC40A643CC68BC403443DB
:101E08008460446894434E683609012232409A40FF
:101E180022434260C4685E000322B240D743944321
:101E28008A68B2402243C2604A68022A01D0122A54
:101E380019D1DA08083292009246125890460724BF
:101E48001C40A20091460F224C46A24094464246AE
:101E58006446A24390460A694C46A2401400424692
:101E680014435246145004683C404F6803223A40D9
:101E7800B240224302604A68D200A6D59A081400EC
:101E88001834A400104EA75903241C40E4000F2660
:101E9800A640B743A026F605B04200D161E70B4E35
:101EA800B04208D00A4EB04207D00A4EB04200D124
:101EB80055E7052656E7012654E7022652E7E0BC17
:101EC800BA46B146A846F0BD0018024000040050CA
:101ED80000080050000C0050002A01D081617047B2
:101EE8008162FCE7426913000B401B0491430B43DA
:101EF80083617047F0B5846CC56C6560046D002C17
:101F080002D0446D856D65600B4F7C68056C1C269E
:101F18002E400125B5402C437C60046863608368CB
:101F2800102B04D0036899600368DA60F0BD036879
:101F38009A600368D960F9E70000024010B5040010
:101F4800036C9B08094A944663449B0043640368F6
:101F5800FF20184008381421FEF7C6F8044BA36484
:101F68001F2318401E3B8340E36410BD008200100D
:101F78008008024042683F231340064A9A1892009C
:101F88000265054A4265013B03221A40012393403A
:101F9800836570473F8200104009024070B5041EF7
:101FA8004DD00568274BE8181421FEF79DF88000EE
:101FB800206425230222E2542B68234A13402B6015
:101FC80021680A68A368E0680343206903436069DD
:101FD8000343A0690343E0690343206A03431343AF
:101FE8000B602000FFF7AAFFA2688023DB019A425A
:101FF80018D06168626C3F230B401360A36CE26CDD
:102008005A606368013B032B0FD90023236563657E
:10201800A3650023E36325220121A154013AA354B7
:10202800002070BD00236360E3E72000FFF7A2FFF4
:10203800236D00221A60636DA26D5A60E9E70120E2
:10204800EFE7C046F8FFFDBF0F80FFFF70B5040043
:102058002420205C012845D0242001252554013066
:10206800205C012806D08023E3635C3B0022E25415
:10207800012070BD2430013525540020E063256817
:1020880028680126B04328602000FFF733FF236B40
:10209800002B1CD0226813680E210B431360626C5E
:1020A8001368DB0304D5116880235B000B431360BE
:1020B800236D002B04D01968802252000A431A604D
:1020C8002268136801210B4313600020D1E72268BE
:1020D800136804218B4313602268136806310B438D
:1020E8001360DCE70220C4E730B5002836D025238A
:1020F800C35C022B06D00423C36320330022C254DE
:10210800012030BD026813680E218B431360426CB6
:10211800136813490B40136001680A6801239A4346
:102128000A60104C6268056C1C2129408B401343DF
:102138006360836CC26C5A60036D002B06D01A680A
:1021480007490A401A60436D826D5A6025230122AF
:10215800C254013B0022C2540020D2E70120D0E73C
:10216800FFFEFFFF0000024070B52523C35C022B71
:1021780003D00423C363012070BD026813680E21D5
:102188008B43136001680A6801239A430A60416C13
:102198000A68134C22400A60124C6268056C1C21C4
:1021A80029408B4013436360836CC26C5A60036D93
:1021B800002B06D01A680A490A401A60436D826DDE
:1021C8005A6025230122C254013B0022C254836B6A
:1021D800002B02D098470020CEE70020CCE7C0466D
:1021E800FFFEFFFF0000024070B5314B196804681C
:1021F8002568026C1C23134004229A40114216D011
:102208006A0714D523689B0603D4236804229343E2
:102218002360274C6368026C1C21114004228A4009
:1022280013436360036B002B00D0984770BD0222F4
:102238009A4011421CD0AA071AD523689B0606D4D7
:1022480023680A22934323602523093AC254184C71
:102258006368026C1C21114002228A4013436360A8
:1022680024230022C254C36A002BDFD09847DDE73D
:1022780008229A401142D9D02D07D7D523680E22BB
:10228800934323600A4C6268036C1C2119400123A4
:102298001D008D402A436260C36325228354233383
:1022A8000022C254436B002BC0D09847BEE7C046FB
:1022B800000002402523C05CC0B27047C06B704765
:1022C80010B5104A136810490B400343136080236C
:1022D8009B00984201D0002010BD0C4B1B68580091
:1022E800C01840000A49FDF7FFFE0130054B5B6945
:1022F8005B0503D5002803D00138F7E70020EBE79A
:102308000320E9E700700040FFF9FFFF38000020D4
:1023180040420F0070B5002811DB8308134DC0330D
:102328009B005C5903221040C000FC321600864016
:10233800B44389010A40824022435A5170BD0F2399
:102348000340083B9B0806339B00094A94466344B4
:102358005C6803221040C000FC3215008540AC4385
:1023680089010A40824022435A60E7E700E100E021
:1023780000ED00E0013880235B0498420FD2094A3F
:1023880050600948036A1B021B0AC02109060B4357
:102398000362002393600733136000207047012015
:1023A800FCE7C04610E000E000ED00E010B5FFF7E4
:1023B800B1FF10BD002805DB1F2202400123934016
:1023C800014A13607047C04600E100E010B5FFF70E
:1023D800D1FF10BD10B50400114B1978002901D1A7
:1023E800012010BDFA208000FDF77EFE01000D4B94
:1023F8001868FDF779FEFFF7E9FF00280DD1032CD7
:1024080001D90120EDE70130002221004042FFF709
:10241800CDFF054B1C600020E3E70120E1E7C04643
:1024280030000020380000203400002010B5084A91
:10243800116880235B000B4313600020FFF7CAFF7D
:10244800041E02D00124200010BDFEF7DBFFFAE7CE
:1024580000200240034B1B78034A11685B18136085
:102468007047C04630000020B40D0020014B1868AA
:102478007047C046B40D002070B50400FFF7F6FFA2
:102488000500631C02D0044B1B78E418FFF7EEFF2D
:10249800401BA042FAD370BD30000020024A1368E6
:1024A800034313607047C0460000014010B50400A4
:1024B80002689369DB0402D5136DDB070AD422682E
:1024C80093699B0402D5136D9B070AD42923012223
:1024D800E25410BDD36D01210B43D365FEF792FA88
:1024E800EDE7D36D02210B43D365200000F05AFAC3
:1024F800ECE770B504000268D368A0218B43D36071
:10250800FFF7B4FF05002368DB689B0608D4FFF7D4
:10251800ADFF401BFA239B009842F4D9032000E04A
:10252800002070BD70B504000268D3685B0602D550
:102538000025280070BDD36880210B43D360FFF7C6
:1025480095FF060000252368DB685B06F1D4032DA0
:10255800EFD0FFF78BFF801BFA2292009042F2D94E
:1025680029230322E2540325EDE7000010B50400F7
:10257800114BDA6880218A43DA609B699B0608D48C
:10258800FFF7B7FF002816D029230322E2540320BF
:1025980011E0094A936920218B439361FFF7A9FF52
:1025A800002803D029230322E2540320024A936916
:1025B80020210B43936110BD0028004070B5041E14
:1025C8004ED02923C35C002B16D029230222E254C3
:1025D8002368C8325A622368773A5A622000FFF7A4
:1025E800A1FF002811D02368FF225A62002802D1D7
:1025F8002923FE3AE25470BD28330022C2548823AE
:102608001B024360FEF7DAF9DFE722689369154990
:102618000B40936121688A69A36860690343E06994
:10262800034313438B61236822691A6121680B698C
:10263800E268120413430B612000FFF797FF00289C
:10264800D1D122689369DB00DB08936121688A692C
:10265800636A256A2B43A5692B4313438B61C2E741
:102668000120C8E7BFFF8FFB002302E001330A38CF
:10267800C0B20928FAD81B01DBB218437047000022
:1026880070B504000E0015002823C35C012B57D039
:1026980028230122C25401330132C2540368C832CC
:1026A8005A620368773A5A62FFF73CFF00282AD13A
:1026B800002D34D123689B695B0601D40023F37095
:1026C8003078FFF7D1FF05047078FFF7CDFF0002DF
:1026D8000543B078FFF7C8FF2843F3789B051843F4
:1026E8002368184A104018602268936916490B40FD
:1026F800936121688B69F2683069024313438B61E7
:102708002000FFF733FF2368FF225A62002802D116
:102718002923FE3AE25428230022E25470BD23689C
:102728009B695B0601D40023F3703078000473784A
:102738001B021843B3781843F3789B051843CFE777
:102748000220EBE77F7F7F00FFFFFBFF70B50400EF
:102758000E002823C35C012B48D028230121C15433
:1027680001330131C154002A20D0F5782D04737843
:102778001B021D43B3781D4333785B031D43236855
:10278800CA225A622368773A5A622000FFF7CAFEC3
:10279800002823D02368FF225A62002802D1292367
:1027A800FE3AE25428230022E25470BD7378DA0618
:1027B80003D5102293430A337370F078FFF754FF60
:1027C80005047078FFF750FF00020543B078FFF763
:1027D8004BFF054333785B031D43D0E72368044A66
:1027E80015405D602000FFF7C1FED3E70220DCE75B
:1027F8003FFFFF00F8B504000E002823C35C012B3F
:1028080000D1C6E028230121C15401330131C1544C
:10281800002A50D103689B695B0601D40023F3703A
:102828003078FFF721FF05047078FFF71DFF0002DD
:102838000543B078FFF718FF0543F3789B051D4360
:102848002023F05CFFF710FF00060543F3691D43E2
:1028580073691D437768B3691F432368CA225A62A4
:102868002368773A5A62726A80235B009A423BD0A7
:102878002268936948490B4093612268D36D02210D
:102888000B43D365FFF7F2FD06002268D3689B0768
:102898005ED4FFF7EBFD801BFA239B009842F4D926
:1028A8002368FF225A622923FC3AE254013B0022A2
:1028B800E25403206CE003689B695B0601D40023A3
:1028C800F37035782D0473781B021D43B3781D43CC
:1028D800F3789B051D432023F35C1B061D43F36916
:1028E8001D4373691D43B5E7226893692B490B4063
:1028F80093612268D36D0331FF310B43D365FFF732
:10290800B5FD06002268D368DB0711D4FFF7AEFDDA
:10291800801BFA239B009842F4D92368FF225A624D
:102928002923FC3AE254013B0022E25403202FE021
:10293800156423685F642268916980235B000B43F8
:1029480093612268916980235B010B4393610EE0D8
:1029580095642368DF642268916980239B000B4398
:1029680093612268916980239B010B4393610C4911
:102978008022885880231B0303438B5023687F32AF
:102988005A622923FE3AE254013B0022E254002015
:10299800F8BD0220FCE7C046FFFDFFFFFFFEFFFF7A
:1029A80000180240704730B5036A046A0125AC4339
:1029B80004628469EF35AC43120122430A24A3431D
:1029C8000B438261036230BD30B5036A1024A34310
:1029D80003628469036A054D2C4012032243A02434
:1029E800A343090119438261016230BDFF0FFFFF54
:1029F8003D23C35C012B1DD13C330222C254036822
:102A08000F4A934208D00F4A934205D01A68012111
:102A18000A431A6000200EE09A680B490A40062A09
:102A28000AD007398A4209D01A6801210A431A6074
:102A3800002000E0012070470020FCE70020FAE7B2
:102A4800002C014000040040070001003D23C35C46
:102A5800012B22D13C330222C2540268D3680121DF
:102A68000B43D3600368104A934208D00F4A93423D
:102A780005D01A6801210A431A6000200EE09A68FE
:102A88000B490A40062A0AD007398A4209D01A682F
:102A980001210A431A60002000E00120704700204D
:102AA800FCE70020FAE7C046002C01400004004083
:102AB80007000100704770477047704710B5040061
:102AC800026813699B070FD5D3689B070CD50323AE
:102AD8005B4213610433037703689B699B076AD0E1
:102AE800FFF7E9FF00232377226813695B0712D5F4
:102AF800D3685B070FD505235B4213610733237740
:102B080023689A69C0239B001A425AD02000FFF715
:102B1800D2FF00232377226813691B0710D5D368D7
:102B28001B070DD509235B4213610D3323772368F7
:102B3800DB699B074CD02000FFF7BDFF00232377FC
:102B480022681369DB0612D5D368DB060FD511237B
:102B58005B421361193323772368DA69C0239B002A
:102B68001A423CD02000FFF7A6FF002323772268F3
:102B78001369DB0702D5D368DB0737D422681369EA
:102B88001B0602D5D3681B0637D422681369DB05F8
:102B980002D5D3681B0637D4226813695B0602D5B1
:102BA800D3685B0636D4226813699B0602D5D368BE
:102BB8009B0636D410BDFFF77DFF2000FFF77CFF92
:102BC80090E72000FFF776FF2000FFF775FFA0E7EA
:102BD8002000FFF76FFF2000FFF76EFFAEE7200031
:102BE800FFF768FF2000FFF767FFBEE702235B429D
:102BF80013612000FEF764F8C0E781235B4213618C
:102C0800200000F0ECF9C0E7094B1361200000F048
:102C1800E7F9C1E741235B4213612000FFF74DFF4D
:102C2800C1E721235B421361200000F0D7F9C1E717
:102C3800FFFEFFFF03681A4A904202D0194A9042E9
:102C480003D1702293434A681343154A90420BD02C
:102C5800144A904208D0144A904205D0134A904230
:102C680002D0134A904203D1124A1340CA68134350
:102C7800802293434A69134303608B68C3620B68DD
:102C88008362074B984205D0084B984202D0084B04
:102C9800984201D10B690363012343617047C04621
:102CA800002C014000040040002000400044014086
:102CB80000480140FFFCFFFF70B5041E2AD03D23E9
:102CC800C35C002B20D03D2502236355210001C998
:102CD800FFF7B0FF01234822A3540A3AA354013254
:102CE800A3540132A3540132A3540132A354013234
:102CF800A3540132A3540132A3540132A354013224
:102D0800A3546355002070BD3C330022C254FDF724
:102D18004FFFD8E70120F6E730B58468034D2C4013
:102D28001B0213430B432343836030BDFF00FFFFA7
:102D380070B50468A268224B1A404B681343214AB5
:102D480013400A681343A3604B68602B2CD00CD83F
:102D5800402B14D0502B06D10A6989680068FFF708
:102D680022FE00200AE0002008E0702B23D10B6926
:102D78008A68C9680068FFF7CFFF002070BD0B683C
:102D8800052B1AD003681D6A1A6A0124A2431A6225
:102D98000468A269F0239A430B691B011343A361DA
:102DA80003681D620020E9E70A6989680068FFF77F
:102DB8000BFE0020E2E70020E0E70120DEE7C04646
:102DC8008FFFCFFFF8FFFEFF10B504003C23C35C64
:102DD800012B22D03C230122C25401330132C254B8
:102DE800FFF7A6FF002810D12268D36840218B4343
:102DF800D3602268D3680A490B40D3603D2301227F
:102E0800E254013B0022E25410BD3D230122E2546A
:102E1800013B0022E2540120F6E70220F4E7C04615
:102E2800FFBFFFFF10B51F23194001248C40036A20
:102E3800A3430362036A8A401343036210BD000080
:102E480010B50400102925D88B00434AD3589F4653
:102E58003E23C05CC0B2002920D14423E35CDBB22E
:102E6800012872D1012B71D1102954D88B003B4A0B
:102E7800D3589F463F23C05CC0B2ECE74023C05CF8
:102E8800C0B2E8E74123C05CC0B2E4E74223C05CBB
:102E9800C0B2E0E74323E05CC0B2DCE7042905D018
:102EA800082907D04723E35CDBB2D9E74523E35C75
:102EB800DBB2D5E74623E35CDBB2D1E702233E224F
:102EC800A3540632A35409E03F230222E254042902
:102ED80025D0082927D047230222E254206801225E
:102EE800FFF7A0FF23681E4A934220D01D4A934251
:102EF8001DD01A6801210A431A60002026E04023E9
:102F08000222E254E3E741230222E254DFE74223AC
:102F18000222E254DBE743230222E254D7E74523A7
:102F28000222E254DAE746230222E254D6E79A68FC
:102F38000D490A40062A0AD007398A4209D01A6878
:102F480001210A431A60002000E0012010BD002082
:102F5800FCE70020FAE7C04620470008644700085D
:102F6800002C0140000400400700010030B53C235C
:102F7800C35C012B29D03C230122C2540133013206
:102F8800C254026853689568114CA24218D0702444
:102F9800A3430C682343536003680D4A934202D04D
:102FA8000C4A934204D1802295438A682A439A6046
:102FB8003D230122C254013B0022C254002030BDEF
:102FC800054C23404C682343E1E70220F7E7C0465D
:102FD800002C014000040040FFFF0FFF70477047BE
:102FE8007047000002681368C0218B4313600268B1
:102FF800936803490B40936084232022C250704792
:10300800FFFF7FFF026813680B490B4013600268DB
:1030180093680A490B409360C36E012B06D088233E
:103028002022C2500023C3660367704702681368F2
:1030380010218B431360F2E7DFFEFFFFFEFFFFEF77
:1030480010B50400130084228258202A4ED100298A
:103058004ED0002B4ED0806880225201904232D050
:103068008022A25C012A47D080220120A054216539
:103078002C3AA3520232A35236320021A150083A08
:103088002131A150A26F002A24D01C49D162A26F1D
:103098001B491163A26F1B495163A26F0021916301
:1030A800216D22682832A06FFEF7D0FF002811D0CA
:1030B8008C231022E2500C3B0022E25404332032CD
:1030C800E250012013E02269002AC9D1CA07C7D5F6
:1030D80001200CE0236840221A62802100236354F7
:1030E800226893680B439360002000E0022010BD23
:1030F8000120FCE70120FAE70220F8E7A5310008E3
:10310800F33100080332000870B504008423C15865
:103118000433C558026893681B0601D5212907D0D6
:10312800226893685B0636D5222D1AD0002033E03A
:1031380093685F318B439360806F002803D0FEF75C
:10314800D3FF002803D12000FFF74CFFE8E7A06F6A
:10315800FFF7B4F82028F6D18C231022E2501D384E
:103168001AE0936840218B439360E06F002803D0F6
:10317800FEF7BAFF002804D12000FFF743FF002024
:103188000AE0E06FFFF79AF82028F5D18C23102287
:10319800E2501D3800E0002070BD704710B50300F4
:1031A800806A1B681B689B060DD456230022C252F6
:1031B8000268936880218B439360026813684039E2
:1031C8000B43136010BDFFF7E8FFFBE710B502687B
:1031D800136840218B43136084232022C2500023AC
:1031E8004367FFF7DAFF10BD704710B5806AFFF735
:1031F800FBFF10BD70477047704770B5846A842321
:10320800E2580433E55823689B681B0601D5212A38
:103218000ED023689B685B0601D5222D0FD08C2227
:10322800A35810210B43A3502000FFF7E5FF70BD02
:1032380056230022E2522000FFF7D4FEE9E75E237E
:103248000022E2522000FFF7DDFEE8E710B5806AB1
:1032580000235E228352083A8352FFF7CDFF10BD48
:1032680070470000F8B504000268D36910689168D7
:103278009C4D2B420BD19D0611D5850601D4CD005E
:103288000DD5236F002B2AD02000984727E0964DB4
:103298000E002E40294223D1944D284220D1E56EBC
:1032A800012D00D198E0DD0202D54D0200D5FEE0E7
:1032B8001A0605D5020600D500E1090200D5FDE091
:1032C8005A0602D5420600D5FFE01A0202D542008E
:1032D80000D5FEE0DB0102D5002800DAFDE0F8BDEC
:1032E800DD0707D5C50505D5012717628C25625965
:1032F8003A4362519A0709D5CA0707D522680225B9
:1033080015628A35625904273A4362515A0709D52A
:10331800CA0707D52268042515628835625902272D
:103328003A4362511A070AD5820601D4002E06D004
:103338002268082616628C256259324362511A05A2
:103348000AD5420108D5226880252D0115628C25F1
:1033580062592026324362518C22A258002ABED0DC
:103368009B0608D5800601D4C90004D5236F002B1D
:1033780001D0200098478C23E25823689B685B069D
:1033880002D42823134220D02000FFF73BFE2368F5
:103398009A68520615D59A6840218A439A60E36F65
:1033A800002B0AD0524A9A63E06FFEF7DDFE002830
:1033B80095D0E06F836B984791E72000FFF71CFFDB
:1033C8008DE72000FFF718FF89E72000FFF714FFBB
:1033D8008C230022E25082E7DD0600D463E7C506AD
:1033E80000D460E710231362226893685B0638D51F
:1033F800E16F0B685B689BB2002B00D16FE75C2024
:10340800205A984200D86AE75E2023520B681B684E
:103418009B0609D55C23E15A0233E35AC91A89B2DB
:103428002000FFF71DFF5AE7136832490B4013606D
:10343800226893680331FF318B4393602268936855
:103448003F318B43936088232022E2500023E366B8
:103458002268136830398B431360E06FFEF744FE2F
:10346800D8E75C23E35A5E20215A591A89B2235AB5
:103478009BB2002B00D132E7002900D12FE7136857
:103488001D4803401360226893681C4803409360FA
:1034980088232022E2500023E3662367226813680A
:1034A8001020834313602000FFF7DAFE17E780231C
:1034B8005B031362200000F01FFB10E7636F002B13
:1034C80000D10CE72000984709E72000FFF77EFEAF
:1034D80005E7200000F012FB01E7200000F00DFBDB
:1034E800FDE6C0460F08000001000010200100049E
:1034F80055320008FFFEFFFFDFFEFFFFFEFFFFEF74
:1035080010B5806AC36E012B02D0FFF774FE10BDA0
:103518005B33C15A4908FFF7A3FEF8E710B503006B
:10352800806A1B681B689B0618D45E230022C2525F
:103538000268136812490B401360026893680331EC
:10354800FF318B439360026893683F318B439360EC
:1035580088232022C250C36E012B05D0C36E012BD5
:1035680008D0FFF747FE10BD0268136830398B4357
:103578001360F3E75B33C15AFFF772FEF3E7C04607
:10358800FFFEFFFF10B50400836802691343426918
:103598001343C2691343426E1A4301680B685B48C0
:1035A800034013430B602268536859490B40E16894
:1035B8000B435360A369226A1A4321688B685548F4
:1035C800034013438B602268D36A0F218B43616ADF
:1035D8000B43D3622368504A934211D04F4A934217
:1035E8001FD01023E06980221202904223D0042BBE
:1035F80079D057D8002B5CD0022B51D148485CE0D9
:10360800484B5A6D03231340022B0CD005D8002BCE
:103618000BD0012B0BD10333E4E7032B09D105337E
:10362800E0E70023DEE70223DCE70023DAE71023E4
:10363800D8E71023D6E7042B2FD007D8002B09D0C2
:10364800022B01D1364809E0012056E0082B05D0AD
:10365800012052E0FEF7AAFA002847D0626A324BEE
:103668005200D15AFCF740FD400061684B08C01871
:10367800FCF73AFD83B20004000C010010392B4A14
:10368800914235D80F2293431A004008072303407C
:1036980013432268D36000202FE0FEF75FF9DBE7D1
:1036A80001202AE0082B02D18020000205E0012039
:1036B80023E0FEF77BFA00281CD0626A1A4B5200FE
:1036C800D15AFCF711FD61684B08C018FCF70CFDD6
:1036D8000004000C0200103A144B9A420CD82368DC
:1036E800D860002009E0FEF739F9E4E7002004E09B
:1036F800012002E0002000E0012001236A22A352F9
:10370800023AA35200232367636710BDF369FFCF12
:10371800FFCFFFFFFFF4FF110038014000440040D5
:103728000024F40000100240A8470008EFFF000042
:10373800836ADB0706D5026853682C490B40C16AC7
:103748000B435360836A9B0706D502685368284970
:103758000B40016B0B435360836A5B0706D5026815
:10376800536824490B40416B0B435360836A1B0722
:1037780006D50268536820490B40816B0B435360A0
:10378800836ADB0606D5026893681C490B40C16B47
:103798000B439360836A9B0606D5026893681849B1
:1037A8000B40016C0B439360836A5B060BD5026880
:1037B800536814490B40416C0B435360426C80239F
:1037C8005B039A420AD0836A1B0606D502685368CF
:1037D8000D490B40C16C0B43536070470268536836
:1037E8000A490B40816C0B435360ECE7FFFFFDFF78
:1037F800FFFFFEFFFFFFFBFFFF7FFFFFFFEFFFFF66
:10380800FFDFFFFFFFFFEFFFFFFFF7FFFFFF9FFF58
:10381800F8B5CE46474680B506000D001700994614
:10382800089B98463368DC692C40641B63425C4102
:10383800BC4241D143460133F4D0FEF717FE4B4654
:10384800C01A404523D84346002B20D0326813685D
:103858005B07E7D5D3691B05E4D580231B011362F9
:103868003268136817490B40136032689368A331B4
:10387800FF318B43936020238422B3500432B3502A
:103888000432B35060330022F254032015E032684A
:1038980013680C490B40136032689368A331FF31F9
:1038A8008B43936020238422B3500432B350603397
:1038B8000022F254032000E00020C0BCB946B04604
:1038C800F8BDC0465FFEFFFF30B583B004008C230F
:1038D8000022C250FEF7CAFD050023681B681B07BB
:1038E8000FD423681B685B0718D420238422A350B5
:1038F8000432A3500023E366083AA354002003B01F
:1039080030BD80210C4B0093030000228903200066
:10391800FFF77EFF0028E4D00320F0E78021064B64
:1039280000932B000022C9032000FFF771FF002835
:10393800DBD00320E3E7C046FFFFFF0110B5041EFC
:1039480030D08423C358002B22D084232422E25071
:103958002268136801218B4313602000FFF712FED1
:10396800012814D0A36A002B18D1226853680E4985
:103978000B405360226893682A218B439360226826
:10398800136829390B4313602000FFF79DFF10BD12
:1039980080330022C254FDF74BFBD6E72000FFF727
:1039A800C7FEE2E70120F2E7FFB7FFFF10B504000A
:1039B800130081655C228352303200218150043A21
:1039C80022318150C26F002A12D01949D162C26FC8
:1039D80018491163C26F18495163C26F002191637E
:1039E80001682431826DC06FFEF730FB002813D1C7
:1039F80080230022E2542268116880330B4313604D
:103A08002268936801210B439360226893683F31D1
:103A18000B439360002010BD8C231022E2500C3B16
:103A28000022E25404332032E2500120F3E7C0467A
:103A380025350008093500080332000810B5882329
:103A4800C358202B1BD100291BD0002A1BD0846807
:103A580080235B019C420BD08023C35C012B14D0D4
:103A680080230124C4540023C366FFF79FFF07E0A7
:103A78000369002BF0D1CB07EED5012000E002202E
:103A880010BD0120FCE70120FAE70220F8E700005A
:103A980070B584B0040002AA154B21CB21C26A4636
:103AA800144B21CB21C2636E002B06D101336A224D
:103AB800A352023AA35204B070BD226895686D0EF5
:103AC80007231D409268520F134002AEF05CC000FD
:103AD8006A46D15CFCF74EFB6A23E052705DC00079
:103AE8006B46595DFCF746FB6823E052E3E7C046A6
:103AF8002C4600080047000870477047704770B5AB
:103B080004008023C35C012B19D080250120605557
:103B180084262423A3512268136811688143116005
:103B28008022920513436266226813602000FFF723
:103B3800AFFF2023A35100236355002070BD02204E
:103B4800FCE7F8B504000A008023C35C012B1BD0F6
:103B580080250120605584262423A35123681F68EB
:103B680019688143196020688368DB00D90811430C
:103B780081602000FFF78CFF23681F602023A3517A
:103B8800002363550020F8BD0220FCE7F8B50400C7
:103B98000B008022825C012A1BD080250120605501
:103BA80084262422A2512268176811688143116073
:103BB8002268916808480140194391602000FFF786
:103BC80067FF23681F602023A3510023635500204B
:103BD800F8BD0220FCE7C046FFFFFFF1024B802240
:103BE80012059A607047C04600ED00E00D48854612
:103BF800FFF7F4FF0C480D490D4A002302E0D458A2
:103C0800C4500433C4188C42F9D30A4A0A4C00231E
:103C180001E013600432A242FBD300F06DF8FCF718
:103C28005BFDFEE700200020000000208C00002043
:103C38005C4800088C000020040F0020FEE700000C
:103C48000EB400B50B499CB01DAB029006900791CD
:103C580004910948094904CB0591006802A9019318
:103C680000F0D0F90022029B1A701CB008BC03B007
:103C78001847C046FFFFFF7F3C0000200802FFFFF7
:103C880000B59BB00091049106490591029106493F
:103C98000391694600F0B6F90022009B1A701BB028
:103CA80000BDC046FFFFFF7F0802FFFF10B5044CB0
:103CB80013000A0001002068FFF7E2FF10BDC046AC
:103CC8003C00002003008218934200D1704719700D
:103CD8000133F9E730B50500101E0BD00024013A76
:103CE8002B5D085D834204D1A24202D00134002B2F
:103CF800F6D1181A30BD000070B500260C4C0D4DD9
:103D0800641BA410A64209D1002600F07FFC0A4CCF
:103D18000A4D641BA410A64205D170BDB300EB5830
:103D280098470136EEE7B300EB5898470136F2E7BB
:103D380054480008544800085848000854480008E7
:103D480070477047002310B59A4200D110BDCC5C73
:103D5800C4540133F8E7000070B505000C1E10D0FC
:103D6800043C2368002B00DAE418280000F0DAF895
:103D78001D4A1368002B05D163601460280000F009
:103D8800D9F870BDA34208D9206821188B42F3D115
:103D980019685B6809182160EEE71A005B68002B58
:103DA80001D0A342F9D911685018A0420BD120685C
:103DB8000918501811608342E0D118685B684118EF
:103DC80011605360DAE7A04202D90C232B60D5E7D3
:103DD800206821188B4203D119685B680918216093
:103DE80063605460CAE7C046FC0E002070B50F4EF1
:103DF8000D0031680400002902D100F0A5FB3060F5
:103E08002900200000F0A0FB431C03D101256D42CE
:103E1800280070BD0323C51C9D43A842F8D0291A69
:103E2800200000F091FB0130F2D1EFE7F80E0020FE
:103E38000323F7B5CD1C9D43083506000C2D34D25D
:103E48000C25A94233D8300000F06CF8344F3B6899
:103E58001C00002C2FD129003000FFF7C7FF0400F9
:103E6800431C58D13C682100002949D1002C4CD072
:103E780023683000E318019300F066FB019B83423E
:103E880043D123683000ED1A2900FFF7AFFF013056
:103E98003BD023685B1923603B68002B3DD05A68F0
:103EA800A24230D100225A6012E0002DC9DA0C2358
:103EB80033600020FEBD2168491B1ED40B2917D989
:103EC80062192560A34211D13A606368116053609A
:103ED800300000F02FF8200007220B30231D9043FC
:103EE800C21A9842E6D01B1AA350E3E75A60ECE7DF
:103EF8006268A342D7D13A60EAE723006468A8E77A
:103F08000C004968B0E71300C7E70C2330003360A2
:103F180000F010F8CDE70560DAE75B60FFDEC04629
:103F2800FC0E002010B50248FFF70AFF10BDC0467E
:103F3800F40E002010B50248FFF703FF10BDC0467D
:103F4800F40E0020F0B58E6885B01F000C000B68D9
:103F580002900392BE4230D80C21625E9021C900C3
:103F68000A4228D0032021695B1A019363694343FD
:103F78000198DD0FED187B1C1B186D10AB4200D9A2
:103F88001D00520528D529000298FFF751FF061E8B
:103F98002CD0019A2169FFF7D5FEA289184B1A4047
:103FA80080231343A381019B2661F61826603E00F7
:103FB8006561ED1AA560BE4200D93E003200039942
:103FC800206800F0ADFA0020A3689B1BA36023685B
:103FD8009B19236005B0F0BD2A00029800F0D1FAC1
:103FE800061EE0D121690298FFF7B6FE0C230120D6
:103FF800029A40421360A28934331343A381E9E74C
:104008007FFBFFFFF0B5A1B003901D008B890F0067
:1040180016001B0611D50B69002B0ED14021FFF7A6
:1040280007FF38603861002805D10C23039A136014
:1040380001204042CFE040237B61002308AC63614C
:10404800203363761033A376079535002B78002B41
:1040580001D0252B48D1AB1B0593B5420BD03200BC
:1040680039000398FFF76EFF013000D1AEE06369B5
:10407800059A9B1863612B78002B00D1A6E00122DA
:1040880000235242626004A9543252186E1C236005
:10409800E360A3601370A365544B052218003178C0
:1040A800059300F063FA751C00281FD12268D30617
:1040B80004D5532304A95B1820211970130704D5CC
:1040C800532304A95B182B21197033782A2B16D097
:1040D800350000210A20E3682A786E1C303A092A44
:1040E80050D9002911D117E00135AFE7059B2268A7
:1040F800C01A0123834013432E002360CCE7079B9B
:10410800191D1B680791002B01DB0B9304E05B4230
:10411800E3600223134323602B782E2B0CD16B789A
:104128002A2B34D1079B02351A1D1B680792002BD6
:1041380001DA01235B4209932D4E032230002978CE
:1041480000F014FA002806D04023801B8340226820
:104158000135134323602978062226486E1C2176F0
:1041680000F004FA002838D0234B002B22D1072274
:10417800079B07339343083307936369049A9B1893
:10418800636162E74343350001219B18A4E70023DC
:104198000A201900013563602A786E1C303A092A12
:1041A80003D9002BC8D00991C6E741433500012344
:1041B8008918F1E707AA009221003A000F4B0398EB
:1041C80000E000BF0490049B0133D6D1BB890D9851
:1041D8005B0600D52CE721B0F0BD07AA00922100AC
:1041E8003A00064B039800F07BF8EBE720480008FC
:1041F800264800082A480008000000004D3F000833
:10420800F7B5160001938A680B690C000090934279
:1042180000DA13002200336043321278002A01D0FA
:104228000133336023689B0602D533680233336059
:104238002268062315001D401A4227D02300433365
:104248001B785A1E93412268920630D422000199A5
:104258000098089D4332A847013025D006222368DC
:1042680000251340042B05D13368E568ED1AEB43AC
:10427800DB171D40A3682269934201DD9B1AED18E4
:104288000026B54220D1002010E00135E3683268ED
:104298009B1AAB42D2DD2200012301990098089FA6
:1042A8001932B8470130F0D101204042FEBD30201C
:1042B800E1184331087021005A1C45310978A218C9
:1042C800433202331170C1E722000123019900989B
:1042D800089F1A32B8470130E6D00136D1E700000E
:1042E800F0B58BB006920A0043320793059004920A
:1042F8000A7E0C00109B782A09D8622A0BD8002A5B
:1043080000D1CEE084490391582A00D19FE02600CD
:104318004236327022E0100063381528F7D8FBF7D0
:10432800D9FE16001F00F6FFF6FFF6FFF6FF1F0086
:10433800F6FFF6FFF6FFF6FFB3004F008F00F6FF1B
:10434800F6FFC400F6FF4F00F6FFF6FF93002600C5
:104358001A684236111D1960136833700123B2E0E0
:1043680018680968021D0D061FD505681A606A4A93
:104378000A2761680392002D38DA23002D20433381
:104388001870A160002916DA0A276D420392049E6C
:1043980028003900FBF7E4FE039B013E5B5C3370A9
:1043A8002B0005009F42F3D92DE005681A604906E5
:1043B800DDD52DB2DBE7042123688B432360E3E7D7
:1043C8000D681968081D18602E0601D50D6803E0F0
:1043D8006D06FBD50D68ADB24F4B0A2703936F2AC4
:1043E80000D1023F2300002243331A706368A360A0
:1043F800002BCCDB042122688A432260002DC6D121
:10440800049E002BC3D1082F09D12368DB0706D5EA
:10441800626823699A4202DC3023013E3370049BB0
:104428009B1B2361079B210000930598069B09AA03
:10443800FFF7E6FE01304BD1012040420BB0F0BD42
:10444800202209680A432260782234490391210016
:1044580045310A7019682268081D1860150601D5CB
:104468000D6803E05506FBD50D68ADB2D30702D53C
:10447800202313432360002D01D01027B2E7202208
:10448800236893432360F8E71A680D68101D49698B
:10449800186013682E0601D5196002E06D06FBD579
:1044A80019800023049E2361BCE71A68111D196056
:1044B800166800213000626800F058F8002801D022
:1044C800801B6060636823610023049A1370A9E766
:1044D8003200236906990598079DA8470130ABD09B
:1044E80023689B0715D4099BE0689842A6DA180050
:1044F800A4E72200012306990598079E1932B047C0
:10450800013099D00135E368099A9B1AAB42F0DC77
:10451800E9E70025F7E7C0463148000842480008A7
:1045280010B5884206D800239A4208D0CC5CC454FF
:104538000133F9E78B189842F5D2013A00D210BD41
:104548008B5C8354F9E70000002370B5064D040026
:1045580008002B6000F04CF8431C03D12B68002B9B
:1045680000D0236070BDC046F00E0020C9B282188A
:10457800904201D10020704703788B42FBD0013074
:10458800F6E7F7B506000C001500002905D1110063
:10459800FFF74EFC04002000FEBD002A03D1FFF700
:1045A800DBFB0024F7E700F01BF80700854202D880
:1045B8004308AB42EFD329003000FFF739FC0190E4
:1045C8000028EED02A00BD4200D93A002100019807
:1045D800FFF7B8FB21003000FFF7BEFB019CDAE7CC
:1045E8000B1F1B68181F002B01DA0B58C0187047E7
:1045F800044A03001068002802D0C31813607047EB
:104608000148FAE7000F0020080F0020F8B5C0465F
:10461800F8BC08BC9E467047F8B5C046F8BC08BC54
:044628009E467047F3
:10462C000101010307010000253032582000000071
:10463C0025730000627567007265626F6F7400000D
:10464C00207265626F6F7420436D640075320000D8
:10465C0052656331282564293A257300BDD3CAD528
:10466C00B5BD434D44282564290000004352432026
:10467C0045727220253034583A25303458000000E9
:10468C006869676800000000526563322825642958
:10469C00000000004164647220657272000000002A
:1046AC004C454420436F756E74204572720D0A00A0
:1046BC00436D64206572720053544D33324730336E
:1046CC0030463620C6B5EFBFBDCABCEFBFBD2C20EF
:1046DC004759532032303233313031310000000031
:1046EC007B54313A25647D0054494D330000000061
:1046FC000D0A00000804020408010101000000007A
:10470C0008000020010080000100200010000100C2
:10471C0002000040582E00089C2E00089C2E000819
:10472C009C2E00087C2E00089C2E00089C2E000855
:10473C009C2E0008842E00089C2E00089C2E00083D
:10474C009C2E00088C2E00089C2E00089C2E000825
:10475C009C2E0008942E0008C42E00081E2F000862
:10476C001E2F00081E2F0008D02E00081E2F000838
:10477C001E2F00081E2F0008062F00081E2F0008F1
:10478C001E2F00081E2F00080E2F00081E2F0008D9
:10479C001E2F00081E2F0008162F00080100020013
:1047AC000400060008000A000C0010002000400065
:1047BC00800000010000000000000000000000006C
:1047CC0000000000010000000200000003000000D7
:1047DC0004000000000000000000000000000000C9
:1047EC0000000000000000000000000000000000BD
:1047FC0000000000010000000200000003000000A7
:10480C000400000006000000070000000800000083
:10481C0009000000232D302B2000686C4C006566CD
:10482C0067454647003031323334353637383941F5
:10483C00424344454600303132333435363738390B
:08484C0061626364656600000F
:044854005102000805
:044858002902000829
:10485C0001030200000000000004005000000050A2
:10486C0000040050000000500000005000000050F8
:10487C0000000050000000500000005000000050EC
:10488C0001000000040000000024F400400000209F
:10489C0000000000B80D0020200E0020880E002023
:1048AC0000000000000000000000000000000000FC
:1048BC0000000000000000000000000000000000EC
:1048CC0000000000000000000000000000000000DC
:0C48DC00000000000000000000000000D0
:0400000508003BF5BF
:00000001FF
